{
    "abi": [
        {
            "inputs": [
                {
                    "internalType": "address",
                    "name": "manager",
                    "type": "address"
                },
                {
                    "internalType": "address",
                    "name": "usr",
                    "type": "address"
                },
                {
                    "internalType": "uint256",
                    "name": "ok",
                    "type": "uint256"
                }
            ],
            "name": "allowHandler",
            "outputs": [],
            "stateMutability": "nonpayable",
            "type": "function"
        },
        {
            "inputs": [
                {
                    "internalType": "address",
                    "name": "manager",
                    "type": "address"
                },
                {
                    "internalType": "uint256",
                    "name": "safe",
                    "type": "uint256"
                },
                {
                    "internalType": "address",
                    "name": "usr",
                    "type": "address"
                },
                {
                    "internalType": "uint256",
                    "name": "ok",
                    "type": "uint256"
                }
            ],
            "name": "allowSAFE",
            "outputs": [],
            "stateMutability": "nonpayable",
            "type": "function"
        },
        {
            "inputs": [
                {
                    "internalType": "address",
                    "name": "safeEngine",
                    "type": "address"
                },
                {
                    "internalType": "address",
                    "name": "usr",
                    "type": "address"
                }
            ],
            "name": "approveSAFEModification",
            "outputs": [],
            "stateMutability": "nonpayable",
            "type": "function"
        },
        {
            "inputs": [
                {
                    "internalType": "address",
                    "name": "apt",
                    "type": "address"
                },
                {
                    "internalType": "address",
                    "name": "safeHandler",
                    "type": "address"
                },
                {
                    "internalType": "uint256",
                    "name": "wad",
                    "type": "uint256"
                }
            ],
            "name": "coinJoin_join",
            "outputs": [],
            "stateMutability": "nonpayable",
            "type": "function"
        },
        {
            "inputs": [
                {
                    "internalType": "address",
                    "name": "safeEngine",
                    "type": "address"
                },
                {
                    "internalType": "address",
                    "name": "usr",
                    "type": "address"
                }
            ],
            "name": "denySAFEModification",
            "outputs": [],
            "stateMutability": "nonpayable",
            "type": "function"
        },
        {
            "inputs": [
                {
                    "internalType": "address",
                    "name": "manager",
                    "type": "address"
                },
                {
                    "internalType": "address",
                    "name": "src",
                    "type": "address"
                },
                {
                    "internalType": "uint256",
                    "name": "safe",
                    "type": "uint256"
                }
            ],
            "name": "enterSystem",
            "outputs": [],
            "stateMutability": "nonpayable",
            "type": "function"
        },
        {
            "inputs": [
                {
                    "internalType": "address",
                    "name": "apt",
                    "type": "address"
                },
                {
                    "internalType": "address",
                    "name": "safe",
                    "type": "address"
                }
            ],
            "name": "ethJoin_join",
            "outputs": [],
            "stateMutability": "payable",
            "type": "function"
        },
        {
            "inputs": [
                {
                    "internalType": "address",
                    "name": "apt",
                    "type": "address"
                },
                {
                    "internalType": "address",
                    "name": "safe",
                    "type": "address"
                },
                {
                    "internalType": "uint256",
                    "name": "value",
                    "type": "uint256"
                }
            ],
            "name": "ethJoin_join",
            "outputs": [],
            "stateMutability": "payable",
            "type": "function"
        },
        {
            "inputs": [
                {
                    "internalType": "address",
                    "name": "manager",
                    "type": "address"
                },
                {
                    "internalType": "address",
                    "name": "ethJoin",
                    "type": "address"
                },
                {
                    "internalType": "uint256",
                    "name": "safe",
                    "type": "uint256"
                },
                {
                    "internalType": "uint256",
                    "name": "wad",
                    "type": "uint256"
                }
            ],
            "name": "exitETH",
            "outputs": [],
            "stateMutability": "nonpayable",
            "type": "function"
        },
        {
            "inputs": [
                {
                    "internalType": "address",
                    "name": "manager",
                    "type": "address"
                },
                {
                    "internalType": "address",
                    "name": "ethJoin",
                    "type": "address"
                },
                {
                    "internalType": "uint256",
                    "name": "safe",
                    "type": "uint256"
                },
                {
                    "internalType": "uint256",
                    "name": "wad",
                    "type": "uint256"
                }
            ],
            "name": "freeETH",
            "outputs": [],
            "stateMutability": "nonpayable",
            "type": "function"
        },
        {
            "inputs": [
                {
                    "internalType": "address",
                    "name": "manager",
                    "type": "address"
                },
                {
                    "internalType": "address",
                    "name": "taxCollector",
                    "type": "address"
                },
                {
                    "internalType": "address",
                    "name": "coinJoin",
                    "type": "address"
                },
                {
                    "internalType": "uint256",
                    "name": "safe",
                    "type": "uint256"
                },
                {
                    "internalType": "uint256",
                    "name": "wad",
                    "type": "uint256"
                }
            ],
            "name": "generateDebt",
            "outputs": [],
            "stateMutability": "nonpayable",
            "type": "function"
        },
        {
            "inputs": [
                {
                    "internalType": "address",
                    "name": "manager",
                    "type": "address"
                },
                {
                    "internalType": "address",
                    "name": "ethJoin",
                    "type": "address"
                },
                {
                    "internalType": "uint256",
                    "name": "safe",
                    "type": "uint256"
                }
            ],
            "name": "lockETH",
            "outputs": [],
            "stateMutability": "payable",
            "type": "function"
        },
        {
            "inputs": [
                {
                    "internalType": "address",
                    "name": "manager",
                    "type": "address"
                },
                {
                    "internalType": "address",
                    "name": "taxCollector",
                    "type": "address"
                },
                {
                    "internalType": "address",
                    "name": "ethJoin",
                    "type": "address"
                },
                {
                    "internalType": "address",
                    "name": "coinJoin",
                    "type": "address"
                },
                {
                    "internalType": "uint256",
                    "name": "safe",
                    "type": "uint256"
                },
                {
                    "internalType": "uint256",
                    "name": "deltaWad",
                    "type": "uint256"
                }
            ],
            "name": "lockETHAndGenerateDebt",
            "outputs": [],
            "stateMutability": "payable",
            "type": "function"
        },
        {
            "inputs": [
                {
                    "internalType": "address",
                    "name": "manager",
                    "type": "address"
                },
                {
                    "internalType": "uint256",
                    "name": "safe",
                    "type": "uint256"
                },
                {
                    "internalType": "int256",
                    "name": "deltaCollateral",
                    "type": "int256"
                },
                {
                    "internalType": "int256",
                    "name": "deltaDebt",
                    "type": "int256"
                }
            ],
            "name": "modifySAFECollateralization",
            "outputs": [],
            "stateMutability": "nonpayable",
            "type": "function"
        },
        {
            "inputs": [
                {
                    "internalType": "address",
                    "name": "manager",
                    "type": "address"
                },
                {
                    "internalType": "uint256",
                    "name": "safeSrc",
                    "type": "uint256"
                },
                {
                    "internalType": "uint256",
                    "name": "safeDst",
                    "type": "uint256"
                }
            ],
            "name": "moveSAFE",
            "outputs": [],
            "stateMutability": "nonpayable",
            "type": "function"
        },
        {
            "inputs": [
                {
                    "internalType": "address",
                    "name": "manager",
                    "type": "address"
                },
                {
                    "internalType": "address",
                    "name": "taxCollector",
                    "type": "address"
                },
                {
                    "internalType": "address",
                    "name": "ethJoin",
                    "type": "address"
                },
                {
                    "internalType": "address",
                    "name": "coinJoin",
                    "type": "address"
                },
                {
                    "internalType": "bytes32",
                    "name": "collateralType",
                    "type": "bytes32"
                },
                {
                    "internalType": "uint256",
                    "name": "deltaWad",
                    "type": "uint256"
                }
            ],
            "name": "openLockETHAndGenerateDebt",
            "outputs": [
                {
                    "internalType": "uint256",
                    "name": "safe",
                    "type": "uint256"
                }
            ],
            "stateMutability": "payable",
            "type": "function"
        },
        {
            "inputs": [
                {
                    "internalType": "address",
                    "name": "manager",
                    "type": "address"
                },
                {
                    "internalType": "bytes32",
                    "name": "collateralType",
                    "type": "bytes32"
                },
                {
                    "internalType": "address",
                    "name": "usr",
                    "type": "address"
                }
            ],
            "name": "openSAFE",
            "outputs": [
                {
                    "internalType": "uint256",
                    "name": "safe",
                    "type": "uint256"
                }
            ],
            "stateMutability": "nonpayable",
            "type": "function"
        },
        {
            "inputs": [
                {
                    "internalType": "address",
                    "name": "manager",
                    "type": "address"
                },
                {
                    "internalType": "uint256",
                    "name": "safe",
                    "type": "uint256"
                },
                {
                    "internalType": "address",
                    "name": "dst",
                    "type": "address"
                }
            ],
            "name": "quitSystem",
            "outputs": [],
            "stateMutability": "nonpayable",
            "type": "function"
        },
        {
            "inputs": [
                {
                    "internalType": "address",
                    "name": "manager",
                    "type": "address"
                },
                {
                    "internalType": "address",
                    "name": "coinJoin",
                    "type": "address"
                },
                {
                    "internalType": "uint256",
                    "name": "safe",
                    "type": "uint256"
                },
                {
                    "internalType": "uint256",
                    "name": "wad",
                    "type": "uint256"
                }
            ],
            "name": "repayDebt",
            "outputs": [],
            "stateMutability": "nonpayable",
            "type": "function"
        },
        {
            "inputs": [
                {
                    "internalType": "address",
                    "name": "manager",
                    "type": "address"
                },
                {
                    "internalType": "address",
                    "name": "ethJoin",
                    "type": "address"
                },
                {
                    "internalType": "address",
                    "name": "coinJoin",
                    "type": "address"
                },
                {
                    "internalType": "uint256",
                    "name": "safe",
                    "type": "uint256"
                },
                {
                    "internalType": "uint256",
                    "name": "collateralWad",
                    "type": "uint256"
                },
                {
                    "internalType": "uint256",
                    "name": "deltaWad",
                    "type": "uint256"
                }
            ],
            "name": "repayDebtAndFreeETH",
            "outputs": [],
            "stateMutability": "nonpayable",
            "type": "function"
        },
        {
            "inputs": [
                {
                    "internalType": "address",
                    "name": "collateral",
                    "type": "address"
                },
                {
                    "internalType": "address",
                    "name": "dst",
                    "type": "address"
                },
                {
                    "internalType": "uint256",
                    "name": "amt",
                    "type": "uint256"
                }
            ],
            "name": "transfer",
            "outputs": [],
            "stateMutability": "nonpayable",
            "type": "function"
        },
        {
            "inputs": [
                {
                    "internalType": "address",
                    "name": "manager",
                    "type": "address"
                },
                {
                    "internalType": "uint256",
                    "name": "safe",
                    "type": "uint256"
                },
                {
                    "internalType": "address",
                    "name": "dst",
                    "type": "address"
                },
                {
                    "internalType": "uint256",
                    "name": "wad",
                    "type": "uint256"
                }
            ],
            "name": "transferCollateral",
            "outputs": [],
            "stateMutability": "nonpayable",
            "type": "function"
        },
        {
            "inputs": [
                {
                    "internalType": "address",
                    "name": "manager",
                    "type": "address"
                },
                {
                    "internalType": "uint256",
                    "name": "safe",
                    "type": "uint256"
                },
                {
                    "internalType": "address",
                    "name": "dst",
                    "type": "address"
                },
                {
                    "internalType": "uint256",
                    "name": "rad",
                    "type": "uint256"
                }
            ],
            "name": "transferInternalCoins",
            "outputs": [],
            "stateMutability": "nonpayable",
            "type": "function"
        },
        {
            "inputs": [
                {
                    "internalType": "address",
                    "name": "manager",
                    "type": "address"
                },
                {
                    "internalType": "uint256",
                    "name": "safe",
                    "type": "uint256"
                },
                {
                    "internalType": "address",
                    "name": "usr",
                    "type": "address"
                }
            ],
            "name": "transferSAFEOwnership",
            "outputs": [],
            "stateMutability": "nonpayable",
            "type": "function"
        },
        {
            "inputs": [
                {
                    "internalType": "address",
                    "name": "proxyRegistry",
                    "type": "address"
                },
                {
                    "internalType": "address",
                    "name": "manager",
                    "type": "address"
                },
                {
                    "internalType": "uint256",
                    "name": "safe",
                    "type": "uint256"
                },
                {
                    "internalType": "address",
                    "name": "dst",
                    "type": "address"
                }
            ],
            "name": "transferSAFEOwnershipToProxy",
            "outputs": [],
            "stateMutability": "nonpayable",
            "type": "function"
        }
    ],
    "bytecode": {
        "object": "0x608060405234801561001057600080fd5b506125d2806100206000396000f3fe6080604052600436106101665760003560e01c80637b65158f116100d1578063b02f9e3d1161008a578063d723323b11610064578063d723323b14610720578063e205c10814610756578063f19d3b411461078c578063ff08ec26146107d157610166565b8063b02f9e3d14610653578063beabacc8146106a2578063c42e34e7146106e557610166565b80637b65158f146104c4578063861b15eb1461050b5780638a58060c146105465780639edd72071461058d578063a033df12146105e2578063a72d3ab01461061057610166565b80633c6dc59a116101235780633c6dc59a1461031d57806343847b21146103665780634cac3da1146103a957806352e83c6d146103ec578063545232491461042f5780637b5a3b431461047b57610166565b806308f00e341461016b5780631c005fda146101b6578063252fa0f6146101f9578063258170081461024e5780632d418a33146102975780633664fa71146102de575b600080fd5b34801561017757600080fd5b506101b46004803603608081101561018e57600080fd5b506001600160a01b0381358116916020810135909116906040810135906060013561081d565b005b3480156101c257600080fd5b506101b4600480360360608110156101d957600080fd5b506001600160a01b0381358116916020810135909116906040013561098c565b34801561020557600080fd5b5061023c6004803603606081101561021c57600080fd5b506001600160a01b03813581169160208101359160409091013516610a87565b60408051918252519081900360200190f35b34801561025a57600080fd5b506101b46004803603608081101561027157600080fd5b506001600160a01b03813581169160208101359091169060408101359060600135610b0e565b3480156102a357600080fd5b506101b4600480360360808110156102ba57600080fd5b506001600160a01b0381358116916020810135916040820135169060600135610b22565b3480156102ea57600080fd5b506101b46004803603606081101561030157600080fd5b506001600160a01b038135169060208101359060400135610b99565b34801561032957600080fd5b506101b46004803603608081101561034057600080fd5b506001600160a01b03813581169160208101358216916040820135916060013516610c04565b34801561037257600080fd5b506101b46004803603606081101561038957600080fd5b506001600160a01b03813581169160208101359091169060400135610df7565b3480156103b557600080fd5b506101b4600480360360608110156103cc57600080fd5b506001600160a01b03813581169160208101359091169060400135610e57565b3480156103f857600080fd5b506101b46004803603606081101561040f57600080fd5b506001600160a01b03813581169160208101359160409091013516610eb7565b61023c600480360360c081101561044557600080fd5b506001600160a01b0381358116916020810135821691604082013581169160608101359091169060808101359060a00135610f17565b34801561048757600080fd5b506101b46004803603608081101561049e57600080fd5b506001600160a01b03813581169160208101359091169060408101359060600135610f3e565b3480156104d057600080fd5b506101b4600480360360808110156104e757600080fd5b506001600160a01b0381358116916020810135916040820135169060600135610f56565b34801561051757600080fd5b506101b46004803603604081101561052e57600080fd5b506001600160a01b0381358116916020013516610faf565b34801561055257600080fd5b506101b46004803603608081101561056957600080fd5b506001600160a01b0381358116916020810135916040820135169060600135611023565b34801561059957600080fd5b506101b4600480360360c08110156105b057600080fd5b506001600160a01b03813581169160208101358216916040820135169060608101359060808101359060a0013561107c565b6101b4600480360360408110156105f857600080fd5b506001600160a01b03813581169160200135166110b9565b34801561061c57600080fd5b506101b46004803603606081101561063357600080fd5b506001600160a01b038135811691602081013591604090910135166110c8565b34801561065f57600080fd5b506101b4600480360360a081101561067657600080fd5b506001600160a01b03813581169160208101358216916040820135169060608101359060800135611128565b3480156106ae57600080fd5b506101b4600480360360608110156106c557600080fd5b506001600160a01b03813581169160208101359091169060400135611136565b3480156106f157600080fd5b506101b46004803603604081101561070857600080fd5b506001600160a01b0381358116916020013516611196565b6101b46004803603606081101561073657600080fd5b506001600160a01b038135811691602081013590911690604001356111ee565b6101b46004803603606081101561076c57600080fd5b506001600160a01b038135811691602081013590911690604001356113e3565b34801561079857600080fd5b506101b4600480360360808110156107af57600080fd5b506001600160a01b0381351690602081013590604081013590606001356113ef565b6101b4600480360360c08110156107e757600080fd5b506001600160a01b0381358116916020810135821691604082013581169160608101359091169060808101359060a00135611445565b61082984833084610f56565b6040805163ef693bed60e01b81523060048201526024810183905290516001600160a01b0385169163ef693bed91604480830192600092919082900301818387803b15801561087757600080fd5b505af115801561088b573d6000803e3d6000fd5b50505050826001600160a01b031663d8dfeb456040518163ffffffff1660e01b8152600401602060405180830381600087803b1580156108ca57600080fd5b505af11580156108de573d6000803e3d6000fd5b505050506040513d60208110156108f457600080fd5b505160408051632e1a7d4d60e01b81526004810184905290516001600160a01b0390921691632e1a7d4d9160248082019260009290919082900301818387803b15801561094057600080fd5b505af1158015610954573d6000803e3d6000fd5b505060405133925083156108fc02915083906000818181858888f19350505050158015610985573d6000803e3d6000fd5b5050505050565b826001600160a01b031663a7e944556040518163ffffffff1660e01b8152600401602060405180830381600087803b1580156109c757600080fd5b505af11580156109db573d6000803e3d6000fd5b505050506040513d60208110156109f157600080fd5b5051604080516323b872dd60e01b81523360048201523060248201526044810184905290516001600160a01b03909216916323b872dd916064808201926020929091908290030181600087803b158015610a4a57600080fd5b505af1158015610a5e573d6000803e3d6000fd5b505050506040513d6020811015610a7457600080fd5b50610a82905083838361145f565b505050565b6040805163d983ff9560e01b8152600481018490526001600160a01b038381166024830152915160009286169163d983ff9591604480830192602092919082900301818787803b158015610ada57600080fd5b505af1158015610aee573d6000803e3d6000fd5b505050506040513d6020811015610b0457600080fd5b5051949350505050565b610b1c84848484600161149a565b50505050565b6040805163660e160760e01b8152600481018590526001600160a01b0384811660248301526044820184905291519186169163660e16079160648082019260009290919082900301818387803b158015610b7b57600080fd5b505af1158015610b8f573d6000803e3d6000fd5b5050505050505050565b826001600160a01b031663018477a583836040518363ffffffff1660e01b81526004018083815260200182815260200192505050600060405180830381600087803b158015610be757600080fd5b505af1158015610bfb573d6000803e3d6000fd5b50505050505050565b6000846001600160a01b031663c4552791836040518263ffffffff1660e01b815260040180826001600160a01b03166001600160a01b0316815260200191505060206040518083038186803b158015610c5c57600080fd5b505afa158015610c70573d6000803e3d6000fd5b505050506040513d6020811015610c8657600080fd5b505190506001600160a01b0381161580610d165750816001600160a01b0316816001600160a01b0316638da5cb5b6040518163ffffffff1660e01b815260040160206040518083038186803b158015610cde57600080fd5b505afa158015610cf2573d6000803e3d6000fd5b505050506040513d6020811015610d0857600080fd5b50516001600160a01b031614155b15610dec57813b8015610d64576040805162461bcd60e51b8152602060048201526011602482015270191cdd0b5a5ccb584b58dbdb9d1c9858dd607a1b604482015290519081900360640190fd5b856001600160a01b031663f3701da2846040518263ffffffff1660e01b815260040180826001600160a01b03166001600160a01b03168152602001915050602060405180830381600087803b158015610dbc57600080fd5b505af1158015610dd0573d6000803e3d6000fd5b505050506040513d6020811015610de657600080fd5b50519150505b6109858484836110c8565b826001600160a01b031663391735c183836040518363ffffffff1660e01b815260040180836001600160a01b03166001600160a01b0316815260200182815260200192505050600060405180830381600087803b158015610be757600080fd5b826001600160a01b0316636ffdabbf83836040518363ffffffff1660e01b815260040180836001600160a01b03166001600160a01b0316815260200182815260200192505050600060405180830381600087803b158015610be757600080fd5b826001600160a01b031663a26292db83836040518363ffffffff1660e01b815260040180838152602001826001600160a01b03166001600160a01b0316815260200192505050600060405180830381600087803b158015610be757600080fd5b6000610f24878430610a87565b9050610f34878787878587611445565b9695505050505050565b61081d8483610f4c846118ce565b60000360006113ef565b6040805163438ac0d160e11b8152600481018590526001600160a01b0384811660248301526044820184905291519186169163871581a29160648082019260009290919082900301818387803b158015610b7b57600080fd5b816001600160a01b031663d94d4208826040518263ffffffff1660e01b815260040180826001600160a01b03166001600160a01b03168152602001915050600060405180830381600087803b15801561100757600080fd5b505af115801561101b573d6000803e3d6000fd5b505050505050565b6040805163e0decbcd60e01b8152600481018590526001600160a01b0384811660248301526044820184905291519186169163e0decbcd9160648082019260009290919082900301818387803b158015610b7b57600080fd5b61108c8686868686866001611919565b604051339083156108fc029084906000818181858888f19350505050158015610bfb573d6000803e3d6000fd5b6110c48282346111ee565b5050565b826001600160a01b03166380bdb6b283836040518363ffffffff1660e01b815260040180838152602001826001600160a01b03166001600160a01b0316815260200192505050600060405180830381600087803b158015610be757600080fd5b610985858585858533611cdb565b826001600160a01b031663a9059cbb83836040518363ffffffff1660e01b815260040180836001600160a01b03166001600160a01b0316815260200182815260200192505050600060405180830381600087803b158015610be757600080fd5b816001600160a01b031663d49d7867826040518263ffffffff1660e01b815260040180826001600160a01b03166001600160a01b03168152602001915050600060405180830381600087803b15801561100757600080fd5b826001600160a01b031663d8dfeb456040518163ffffffff1660e01b8152600401602060405180830381600087803b15801561122957600080fd5b505af115801561123d573d6000803e3d6000fd5b505050506040513d602081101561125357600080fd5b505160408051630d0e30db60e41b815290516001600160a01b039092169163d0e30db0918491600480830192600092919082900301818588803b15801561129957600080fd5b505af11580156112ad573d6000803e3d6000fd5b5050505050826001600160a01b031663d8dfeb456040518163ffffffff1660e01b8152600401602060405180830381600087803b1580156112ed57600080fd5b505af1158015611301573d6000803e3d6000fd5b505050506040513d602081101561131757600080fd5b50516040805163095ea7b360e01b81526001600160a01b038681166004830152602482018590529151919092169163095ea7b391604480830192600092919082900301818387803b15801561136b57600080fd5b505af115801561137f573d6000803e3d6000fd5b50505050826001600160a01b0316633b4da69f83836040518363ffffffff1660e01b815260040180836001600160a01b03166001600160a01b0316815260200182815260200192505050600060405180830381600087803b158015610be757600080fd5b610a8283838334611fb3565b836001600160a01b031663c78101f88484846040518463ffffffff1660e01b8152600401808481526020018381526020018281526020019350505050600060405180830381600087803b158015610b7b57600080fd5b61145186858434611fb3565b61101b868685858533611cdb565b826001600160a01b031663a7e944556040518163ffffffff1660e01b8152600401602060405180830381600087803b1580156112ed57600080fd5b6000856001600160a01b03166367aea3136040518163ffffffff1660e01b815260040160206040518083038186803b1580156114d557600080fd5b505afa1580156114e9573d6000803e3d6000fd5b505050506040513d60208110156114ff57600080fd5b50516040805163434efcbd60e01b81526004810187905290519192506000916001600160a01b0389169163434efcbd916024808301926020929190829003018186803b15801561154e57600080fd5b505afa158015611562573d6000803e3d6000fd5b505050506040513d602081101561157857600080fd5b5051604080516348c5be7f60e11b81526004810188905290519192506000916001600160a01b038a169163918b7cfe916024808301926020929190829003018186803b1580156115c757600080fd5b505afa1580156115db573d6000803e3d6000fd5b505050506040513d60208110156115f157600080fd5b5051604080516351526bb760e11b81526004810189905290519192506000916001600160a01b038b169163a2a4d76e916024808301926020929190829003018186803b15801561164057600080fd5b505afa158015611654573d6000803e3d6000fd5b505050506040513d602081101561166a57600080fd5b505190506001600160a01b038116301480611707575060408051634fa053b160e01b81526001600160a01b038381166004830152602482018a90523060448301529151918b1691634fa053b191606480820192602092909190829003018186803b1580156116d757600080fd5b505afa1580156116eb573d6000803e3d6000fd5b505050506040513d602081101561170157600080fd5b50516001145b156117cb5784156117225761171d88848861098c565b61172d565b61172d88848861145f565b6117c6898860006117c188896001600160a01b031663fabde80c8a6040518263ffffffff1660e01b815260040180826001600160a01b03166001600160a01b0316815260200191505060206040518083038186803b15801561178e57600080fd5b505afa1580156117a2573d6000803e3d6000fd5b505050506040513d60208110156117b857600080fd5b5051898961218a565b6113ef565b6118c3565b84156117e1576117dc88308861098c565b6117ec565b6117ec88308861145f565b836001600160a01b03166399bec31583853030600061181b8b6b033b2e3c9fd0803ce80000008f028c8c61218a565b6040518763ffffffff1660e01b815260040180878152602001866001600160a01b03166001600160a01b03168152602001856001600160a01b03166001600160a01b03168152602001846001600160a01b03166001600160a01b031681526020018381526020018281526020019650505050505050600060405180830381600087803b1580156118aa57600080fd5b505af11580156118be573d6000803e3d6000fd5b505050505b505050505050505050565b806000811215611914576040805162461bcd60e51b815260206004820152600c60248201526b696e742d6f766572666c6f7760a01b604482015290519081900360640190fd5b919050565b6000876001600160a01b031663434efcbd866040518263ffffffff1660e01b81526004018082815260200191505060206040518083038186803b15801561195f57600080fd5b505afa158015611973573d6000803e3d6000fd5b505050506040513d602081101561198957600080fd5b5051905081156119a35761199e86828561098c565b6119ae565b6119ae86828561145f565b611b9688866119bc876118ce565b6000036117c18c6001600160a01b03166367aea3136040518163ffffffff1660e01b815260040160206040518083038186803b1580156119fb57600080fd5b505afa158015611a0f573d6000803e3d6000fd5b505050506040513d6020811015611a2557600080fd5b81019080805190602001909291905050508d6001600160a01b03166367aea3136040518163ffffffff1660e01b815260040160206040518083038186803b158015611a6f57600080fd5b505afa158015611a83573d6000803e3d6000fd5b505050506040513d6020811015611a9957600080fd5b505160408051633eaf7a0360e21b81526001600160a01b038a811660048301529151919092169163fabde80c916024808301926020929190829003018186803b158015611ae557600080fd5b505afa158015611af9573d6000803e3d6000fd5b505050506040513d6020811015611b0f57600080fd5b8101908080519060200190929190505050878f6001600160a01b031663918b7cfe8e6040518263ffffffff1660e01b81526004018082815260200191505060206040518083038186803b158015611b6557600080fd5b505afa158015611b79573d6000803e3d6000fd5b505050506040513d6020811015611b8f57600080fd5b505161218a565b611ba288863087610f56565b6040805163ef693bed60e01b81523060048201526024810186905290516001600160a01b0389169163ef693bed91604480830192600092919082900301818387803b158015611bf057600080fd5b505af1158015611c04573d6000803e3d6000fd5b50505050866001600160a01b031663d8dfeb456040518163ffffffff1660e01b8152600401602060405180830381600087803b158015611c4357600080fd5b505af1158015611c57573d6000803e3d6000fd5b505050506040513d6020811015611c6d57600080fd5b505160408051632e1a7d4d60e01b81526004810187905290516001600160a01b0390921691632e1a7d4d9160248082019260009290919082900301818387803b158015611cb957600080fd5b505af1158015611ccd573d6000803e3d6000fd5b505050505050505050505050565b6000866001600160a01b031663434efcbd856040518263ffffffff1660e01b81526004018082815260200191505060206040518083038186803b158015611d2157600080fd5b505afa158015611d35573d6000803e3d6000fd5b505050506040513d6020811015611d4b57600080fd5b5051604080516367aea31360e01b815290519192506000916001600160a01b038a16916367aea313916004808301926020929190829003018186803b158015611d9357600080fd5b505afa158015611da7573d6000803e3d6000fd5b505050506040513d6020811015611dbd57600080fd5b5051604080516348c5be7f60e11b81526004810188905290519192506000916001600160a01b038b169163918b7cfe916024808301926020929190829003018186803b158015611e0c57600080fd5b505afa158015611e20573d6000803e3d6000fd5b505050506040513d6020811015611e3657600080fd5b50519050611e4e898760006117c1868d89888d61230c565b611e62898730611e5d896124dc565b610b22565b604080516350de215d60e01b81523060048201526001600160a01b0389811660248301529151918416916350de215d91604480820192602092909190829003018186803b158015611eb257600080fd5b505afa158015611ec6573d6000803e3d6000fd5b505050506040513d6020811015611edc57600080fd5b5051611f5357816001600160a01b031663d94d4208886040518263ffffffff1660e01b815260040180826001600160a01b03166001600160a01b03168152602001915050600060405180830381600087803b158015611f3a57600080fd5b505af1158015611f4e573d6000803e3d6000fd5b505050505b866001600160a01b031663ef693bed85876040518363ffffffff1660e01b815260040180836001600160a01b03166001600160a01b0316815260200182815260200192505050600060405180830381600087803b1580156118aa57600080fd5b611fbe8330836111ee565b836001600160a01b03166367aea3136040518163ffffffff1660e01b815260040160206040518083038186803b158015611ff757600080fd5b505afa15801561200b573d6000803e3d6000fd5b505050506040513d602081101561202157600080fd5b5051604080516348c5be7f60e11b81526004810185905290516001600160a01b03928316926399bec315929088169163918b7cfe91602480820192602092909190829003018186803b15801561207657600080fd5b505afa15801561208a573d6000803e3d6000fd5b505050506040513d60208110156120a057600080fd5b50516040805163434efcbd60e01b81526004810187905290516001600160a01b0389169163434efcbd916024808301926020929190829003018186803b1580156120e957600080fd5b505afa1580156120fd573d6000803e3d6000fd5b505050506040513d602081101561211357600080fd5b50513080612120876118ce565b604080516001600160e01b031960e089901b16815260048101969096526001600160a01b0394851660248701529284166044860152921660648401526084830191909152600060a48301819052905160c48084019382900301818387803b158015610b7b57600080fd5b600080856001600160a01b031663d07900bb846040518263ffffffff1660e01b81526004018082815260200191505060a06040518083038186803b1580156121d157600080fd5b505afa1580156121e5573d6000803e3d6000fd5b505050506040513d60a08110156121fb57600080fd5b506020015190508061224e576040805162461bcd60e51b8152602060048201526017602482015276696e76616c69642d636f6c6c61746572616c2d7479706560481b604482015290519081900360640190fd5b60408051630f50894160e21b8152600481018590526001600160a01b0386811660248301528251600093918a1692633d422504926044808301939192829003018186803b15801561229e57600080fd5b505afa1580156122b2573d6000803e3d6000fd5b505050506040513d60408110156122c857600080fd5b506020015190506122e18287816122db57fe5b046118ce565b9250808311156122fc576122f4816118ce565b600003612301565b826000035b979650505050505050565b600080856001600160a01b0316636c50dbba856040518263ffffffff1660e01b815260040180828152602001915050602060405180830381600087803b15801561235557600080fd5b505af1158015612369573d6000803e3d6000fd5b505050506040513d602081101561237f57600080fd5b50519050806123cf576040805162461bcd60e51b8152602060048201526017602482015276696e76616c69642d636f6c6c61746572616c2d7479706560481b604482015290519081900360640190fd5b6000876001600160a01b031663fabde80c876040518263ffffffff1660e01b815260040180826001600160a01b03166001600160a01b0316815260200191505060206040518083038186803b15801561242757600080fd5b505afa15801561243b573d6000803e3d6000fd5b505050506040513d602081101561245157600080fd5b5051905061246b846b033b2e3c9fd0803ce80000006124fa565b8110156124d15761249c8261249561248f876b033b2e3c9fd0803ce80000006124fa565b84612555565b816122db57fe5b92506124b4846b033b2e3c9fd0803ce80000006124fa565b6124be84846124fa565b106124c957826124ce565b826001015b92505b505095945050505050565b60006124f4826b033b2e3c9fd0803ce80000006124fa565b92915050565b60008115806125155750508082028282828161251257fe5b04145b6124f4576040805162461bcd60e51b815260206004820152600c60248201526b6d756c2d6f766572666c6f7760a01b604482015290519081900360640190fd5b808203828111156124f4576040805162461bcd60e51b815260206004820152600c60248201526b7375622d6f766572666c6f7760a01b604482015290519081900360640190fdfea26469706673582212208c4e4041193006712eb64d9c9fd72e1e5d139e1925c8ca2bc72aafea523cf9d264736f6c63430006070033",
        "linkReferences": {}
    },
    "methodIdentifiers": {
        "allowHandler(address,address,uint256)": "43847b21",
        "allowSAFE(address,uint256,address,uint256)": "8a58060c",
        "approveSAFEModification(address,address)": "861b15eb",
        "coinJoin_join(address,address,uint256)": "1c005fda",
        "denySAFEModification(address,address)": "c42e34e7",
        "enterSystem(address,address,uint256)": "4cac3da1",
        "ethJoin_join(address,address)": "a033df12",
        "ethJoin_join(address,address,uint256)": "d723323b",
        "exitETH(address,address,uint256,uint256)": "08f00e34",
        "freeETH(address,address,uint256,uint256)": "7b5a3b43",
        "generateDebt(address,address,address,uint256,uint256)": "b02f9e3d",
        "lockETH(address,address,uint256)": "e205c108",
        "lockETHAndGenerateDebt(address,address,address,address,uint256,uint256)": "ff08ec26",
        "modifySAFECollateralization(address,uint256,int256,int256)": "f19d3b41",
        "moveSAFE(address,uint256,uint256)": "3664fa71",
        "openLockETHAndGenerateDebt(address,address,address,address,bytes32,uint256)": "54523249",
        "openSAFE(address,bytes32,address)": "252fa0f6",
        "quitSystem(address,uint256,address)": "52e83c6d",
        "repayDebt(address,address,uint256,uint256)": "25817008",
        "repayDebtAndFreeETH(address,address,address,uint256,uint256,uint256)": "9edd7207",
        "transfer(address,address,uint256)": "beabacc8",
        "transferCollateral(address,uint256,address,uint256)": "7b65158f",
        "transferInternalCoins(address,uint256,address,uint256)": "2d418a33",
        "transferSAFEOwnership(address,uint256,address)": "a72d3ab0",
        "transferSAFEOwnershipToProxy(address,address,uint256,address)": "3c6dc59a"
    },
    "id": 27
}