{
    "abi": [
        {
            "inputs": [
                {
                    "internalType": "address",
                    "name": "safeEngine_",
                    "type": "address"
                }
            ],
            "stateMutability": "nonpayable",
            "type": "constructor"
        },
        {
            "anonymous": false,
            "inputs": [
                {
                    "indexed": false,
                    "internalType": "address",
                    "name": "account",
                    "type": "address"
                }
            ],
            "name": "AddAuthorization",
            "type": "event"
        },
        {
            "anonymous": false,
            "inputs": [
                {
                    "indexed": true,
                    "internalType": "address",
                    "name": "usr",
                    "type": "address"
                },
                {
                    "indexed": false,
                    "internalType": "uint256",
                    "name": "balance",
                    "type": "uint256"
                },
                {
                    "indexed": false,
                    "internalType": "uint256",
                    "name": "totalSavings",
                    "type": "uint256"
                }
            ],
            "name": "Deposit",
            "type": "event"
        },
        {
            "anonymous": false,
            "inputs": [],
            "name": "DisableContract",
            "type": "event"
        },
        {
            "anonymous": false,
            "inputs": [
                {
                    "indexed": false,
                    "internalType": "bytes32",
                    "name": "parameter",
                    "type": "bytes32"
                },
                {
                    "indexed": false,
                    "internalType": "uint256",
                    "name": "data",
                    "type": "uint256"
                }
            ],
            "name": "ModifyParameters",
            "type": "event"
        },
        {
            "anonymous": false,
            "inputs": [
                {
                    "indexed": false,
                    "internalType": "bytes32",
                    "name": "parameter",
                    "type": "bytes32"
                },
                {
                    "indexed": false,
                    "internalType": "address",
                    "name": "data",
                    "type": "address"
                }
            ],
            "name": "ModifyParameters",
            "type": "event"
        },
        {
            "anonymous": false,
            "inputs": [
                {
                    "indexed": false,
                    "internalType": "address",
                    "name": "account",
                    "type": "address"
                }
            ],
            "name": "RemoveAuthorization",
            "type": "event"
        },
        {
            "anonymous": false,
            "inputs": [
                {
                    "indexed": false,
                    "internalType": "uint256",
                    "name": "newAccumulatedRate",
                    "type": "uint256"
                },
                {
                    "indexed": false,
                    "internalType": "uint256",
                    "name": "coinAmount",
                    "type": "uint256"
                }
            ],
            "name": "UpdateAccumulatedRate",
            "type": "event"
        },
        {
            "anonymous": false,
            "inputs": [
                {
                    "indexed": true,
                    "internalType": "address",
                    "name": "usr",
                    "type": "address"
                },
                {
                    "indexed": false,
                    "internalType": "uint256",
                    "name": "balance",
                    "type": "uint256"
                },
                {
                    "indexed": false,
                    "internalType": "uint256",
                    "name": "totalSavings",
                    "type": "uint256"
                }
            ],
            "name": "Withdraw",
            "type": "event"
        },
        {
            "inputs": [],
            "name": "accountingEngine",
            "outputs": [
                {
                    "internalType": "address",
                    "name": "",
                    "type": "address"
                }
            ],
            "stateMutability": "view",
            "type": "function"
        },
        {
            "inputs": [],
            "name": "accumulatedRate",
            "outputs": [
                {
                    "internalType": "uint256",
                    "name": "",
                    "type": "uint256"
                }
            ],
            "stateMutability": "view",
            "type": "function"
        },
        {
            "inputs": [
                {
                    "internalType": "address",
                    "name": "account",
                    "type": "address"
                }
            ],
            "name": "addAuthorization",
            "outputs": [],
            "stateMutability": "nonpayable",
            "type": "function"
        },
        {
            "inputs": [
                {
                    "internalType": "address",
                    "name": "",
                    "type": "address"
                }
            ],
            "name": "authorizedAccounts",
            "outputs": [
                {
                    "internalType": "uint256",
                    "name": "",
                    "type": "uint256"
                }
            ],
            "stateMutability": "view",
            "type": "function"
        },
        {
            "inputs": [],
            "name": "contractEnabled",
            "outputs": [
                {
                    "internalType": "uint256",
                    "name": "",
                    "type": "uint256"
                }
            ],
            "stateMutability": "view",
            "type": "function"
        },
        {
            "inputs": [
                {
                    "internalType": "uint256",
                    "name": "wad",
                    "type": "uint256"
                }
            ],
            "name": "deposit",
            "outputs": [],
            "stateMutability": "nonpayable",
            "type": "function"
        },
        {
            "inputs": [],
            "name": "disableContract",
            "outputs": [],
            "stateMutability": "nonpayable",
            "type": "function"
        },
        {
            "inputs": [],
            "name": "latestUpdateTime",
            "outputs": [
                {
                    "internalType": "uint256",
                    "name": "",
                    "type": "uint256"
                }
            ],
            "stateMutability": "view",
            "type": "function"
        },
        {
            "inputs": [
                {
                    "internalType": "bytes32",
                    "name": "parameter",
                    "type": "bytes32"
                },
                {
                    "internalType": "address",
                    "name": "addr",
                    "type": "address"
                }
            ],
            "name": "modifyParameters",
            "outputs": [],
            "stateMutability": "nonpayable",
            "type": "function"
        },
        {
            "inputs": [
                {
                    "internalType": "bytes32",
                    "name": "parameter",
                    "type": "bytes32"
                },
                {
                    "internalType": "uint256",
                    "name": "data",
                    "type": "uint256"
                }
            ],
            "name": "modifyParameters",
            "outputs": [],
            "stateMutability": "nonpayable",
            "type": "function"
        },
        {
            "inputs": [],
            "name": "nextAccumulatedRate",
            "outputs": [
                {
                    "internalType": "uint256",
                    "name": "",
                    "type": "uint256"
                }
            ],
            "stateMutability": "view",
            "type": "function"
        },
        {
            "inputs": [
                {
                    "internalType": "address",
                    "name": "account",
                    "type": "address"
                }
            ],
            "name": "removeAuthorization",
            "outputs": [],
            "stateMutability": "nonpayable",
            "type": "function"
        },
        {
            "inputs": [],
            "name": "safeEngine",
            "outputs": [
                {
                    "internalType": "contract SAFEEngineLike",
                    "name": "",
                    "type": "address"
                }
            ],
            "stateMutability": "view",
            "type": "function"
        },
        {
            "inputs": [
                {
                    "internalType": "address",
                    "name": "",
                    "type": "address"
                }
            ],
            "name": "savings",
            "outputs": [
                {
                    "internalType": "uint256",
                    "name": "",
                    "type": "uint256"
                }
            ],
            "stateMutability": "view",
            "type": "function"
        },
        {
            "inputs": [],
            "name": "savingsRate",
            "outputs": [
                {
                    "internalType": "uint256",
                    "name": "",
                    "type": "uint256"
                }
            ],
            "stateMutability": "view",
            "type": "function"
        },
        {
            "inputs": [],
            "name": "totalSavings",
            "outputs": [
                {
                    "internalType": "uint256",
                    "name": "",
                    "type": "uint256"
                }
            ],
            "stateMutability": "view",
            "type": "function"
        },
        {
            "inputs": [],
            "name": "updateAccumulatedRate",
            "outputs": [
                {
                    "internalType": "uint256",
                    "name": "newAccumulatedRate",
                    "type": "uint256"
                }
            ],
            "stateMutability": "nonpayable",
            "type": "function"
        },
        {
            "inputs": [
                {
                    "internalType": "uint256",
                    "name": "wad",
                    "type": "uint256"
                }
            ],
            "name": "withdraw",
            "outputs": [],
            "stateMutability": "nonpayable",
            "type": "function"
        }
    ],
    "bytecode": {
        "object": "0x608060405234801561001057600080fd5b50604051610ed3380380610ed38339818101604052602081101561003357600080fd5b5051336000908152602081905260409020600190819055600580546001600160a01b039093166001600160a01b0319909316929092179091556b033b2e3c9fd0803ce8000000600381905560045542600755600855610e3c806100976000396000f3fe608060405234801561001057600080fd5b50600436106101165760003560e01c8063894ba833116100a2578063b1b970bd11610071578063b1b970bd14610264578063b6b55f251461026c578063dd07d28814610289578063df2f52ca14610291578063fe4f58901461029957610116565b8063894ba8331461022657806394f3f81d1461022e578063961d45c4146102545780639bf42b3f1461025c57610116565b806341b3a0d9116100e957806341b3a0d9146101be57806364dbfd81146101c65780636614f010146101ce57806367aea313146101fa5780636ecd067f1461021e57610116565b80631f7cdd5f1461011b57806324ba5884146101535780632e1a7d4d1461017957806335b2815314610198575b600080fd5b6101416004803603602081101561013157600080fd5b50356001600160a01b03166102bc565b60408051918252519081900360200190f35b6101416004803603602081101561016957600080fd5b50356001600160a01b03166102ce565b6101966004803603602081101561018f57600080fd5b50356102e0565b005b610196600480360360208110156101ae57600080fd5b50356001600160a01b031661041b565b6101416104bb565b6101416104c1565b610196600480360360408110156101e457600080fd5b50803590602001356001600160a01b0316610616565b61020261071d565b604080516001600160a01b039092168252519081900360200190f35b61014161072c565b610196610732565b6101966004803603602081101561024457600080fd5b50356001600160a01b03166107c0565b61020261085f565b61014161086e565b610141610874565b6101966004803603602081101561028257600080fd5b50356108a2565b610141610a1d565b610141610a23565b610196600480360360408110156102af57600080fd5b5080359060200135610a29565b60016020526000908152604090205481565b60006020819052908152604090205481565b6102e86104c1565b50336000908152600160205260409020546103039082610b52565b336000908152600160205260409020556002546103209082610b52565b6002556005546004546001600160a01b039091169063efabcadc90309033906103499086610bb0565b6040518463ffffffff1660e01b815260040180846001600160a01b03166001600160a01b03168152602001836001600160a01b03166001600160a01b031681526020018281526020019350505050600060405180830381600087803b1580156103b157600080fd5b505af11580156103c5573d6000803e3d6000fd5b5050336000818152600160209081526040918290205460025483519182529181019190915281519294507ff279e6a1f5e320cca91135676d9cb6e44ca8a08c0b88342bcdb1144f6511b56893508290030190a250565b336000908152602081905260409020546001146104695760405162461bcd60e51b8152600401808060200182810382526029815260200180610db26029913960400191505060405180910390fd5b6001600160a01b0381166000818152602081815260409182902060019055815192835290517f599a298163e1678bb1c676052a8930bf0b8a1261ed6e01b8a2391e55f70001029281900390910190a150565b60085481565b600060075442116104d55750600454610613565b6105046104fc6003546104ea42600754610b52565b6b033b2e3c9fd0803ce8000000610c1c565b600454610cda565b9050600061051482600454610b52565b6004839055426007556005546006546002549293506001600160a01b0391821692631b1428209290911690309061054b9086610bb0565b6040518463ffffffff1660e01b815260040180846001600160a01b03166001600160a01b03168152602001836001600160a01b03166001600160a01b031681526020018281526020019350505050600060405180830381600087803b1580156105b357600080fd5b505af11580156105c7573d6000803e3d6000fd5b505050507f0aa00dd7843cd2b6740561f3caf4e9c164f748188fda85f7c06bcf1b483da5a7826105f960025484610bb0565b6040805192835260208301919091528051918290030190a1505b90565b336000908152602081905260409020546001146106645760405162461bcd60e51b8152600401808060200182810382526029815260200180610db26029913960400191505060405180910390fd5b816f6163636f756e74696e67456e67696e6560801b141561069f57600680546001600160a01b0319166001600160a01b0383161790556106d6565b60405162461bcd60e51b815260040180806020018281038252602c815260200180610ddb602c913960400191505060405180910390fd5b604080518381526001600160a01b038316602082015281517fd91f38cf03346b5dc15fb60f9076f866295231ad3c3841a1051f8443f25170d1929181900390910190a15050565b6005546001600160a01b031681565b60035481565b336000908152602081905260409020546001146107805760405162461bcd60e51b8152600401808060200182810382526029815260200180610db26029913960400191505060405180910390fd5b600060088190556b033b2e3c9fd0803ce80000006003556040517f2d4b4ecff7bd7503135271925520a2f6c0d98c9473ffc1a1e72c92502f51b25e9190a1565b3360009081526020819052604090205460011461080e5760405162461bcd60e51b8152600401808060200182810382526029815260200180610db26029913960400191505060405180910390fd5b6001600160a01b03811660008181526020818152604080832092909255815192835290517f8834a87e641e9716be4f34527af5d23e11624f1ddeefede6ad75a9acfc31b9039281900390910190a150565b6006546001600160a01b031681565b60025481565b600060075442116108885750600454610613565b61089d6104fc6003546104ea42600754610b52565b905090565b6108aa6104c1565b5060075442146108eb5760405162461bcd60e51b8152600401808060200182810382526030815260200180610d826030913960400191505060405180910390fd5b336000908152600160205260409020546109059082610d02565b336000908152600160205260409020556002546109229082610d02565b6002556005546004546001600160a01b039091169063efabcadc903390309061094b9086610bb0565b6040518463ffffffff1660e01b815260040180846001600160a01b03166001600160a01b03168152602001836001600160a01b03166001600160a01b031681526020018281526020019350505050600060405180830381600087803b1580156109b357600080fd5b505af11580156109c7573d6000803e3d6000fd5b5050336000818152600160209081526040918290205460025483519182529181019190915281519294507f90890809c654f11d6e72a28fa60149770a0d11ec6c92319d6ceb2bb0a4ea1a1593508290030190a250565b60075481565b60045481565b33600090815260208190526040902054600114610a775760405162461bcd60e51b8152600401808060200182810382526029815260200180610db26029913960400191505060405180910390fd5b600854600114610ab85760405162461bcd60e51b8152600401808060200182810382526027815260200180610d5b6027913960400191505060405180910390fd5b6007544214610af85760405162461bcd60e51b8152600401808060200182810382526030815260200180610d826030913960400191505060405180910390fd5b816a736176696e67735261746560a81b141561069f576003819055604080518381526020810183905281517fac7c5c1afaef770ec56ac6268cd3f2fbb1035858ead2601d6553157c33036c3a929181900390910190a15050565b80820382811115610baa576040805162461bcd60e51b815260206004820181905260248201527f436f696e536176696e67734163636f756e742f7375622d756e646572666c6f77604482015290519081900360640190fd5b92915050565b6000811580610bcb57505080820282828281610bc857fe5b04145b610baa576040805162461bcd60e51b815260206004820152601f60248201527f436f696e536176696e67734163636f756e742f6d756c2d6f766572666c6f7700604482015290519081900360640190fd5b6000838015610cbc57600184168015610c3757859250610c3b565b8392505b50600283046002850494505b8415610cb6578586028687820414610c5e57600080fd5b81810181811015610c6e57600080fd5b8590049650506001851615610cab578583028387820414158715151615610c9457600080fd5b81810181811015610ca457600080fd5b8590049350505b600285049450610c47565b50610cd2565b838015610ccc5760009250610cd0565b8392505b505b509392505050565b60006b033b2e3c9fd0803ce8000000610cf38484610bb0565b81610cfa57fe5b049392505050565b80820182811015610baa576040805162461bcd60e51b815260206004820152601f60248201527f436f696e536176696e67734163636f756e742f6164642d6f766572666c6f7700604482015290519081900360640190fdfe436f696e536176696e67734163636f756e742f636f6e74726163742d6e6f742d656e61626c6564436f696e536176696e67734163636f756e742f616363756d756c6174696f6e2d74696d652d6e6f742d75706461746564436f696e536176696e67734163636f756e742f6163636f756e742d6e6f742d617574686f72697a6564436f696e536176696e67734163636f756e742f6d6f646966792d756e7265636f676e697a65642d706172616da264697066735822122058ea69c1f9f61ebb84579266a0ce978747ef0063ddeb09ddc662375d6c600ab164736f6c63430006070033",
        "linkReferences": {}
    },
    "methodIdentifiers": {
        "accountingEngine()": "961d45c4",
        "accumulatedRate()": "df2f52ca",
        "addAuthorization(address)": "35b28153",
        "authorizedAccounts(address)": "24ba5884",
        "contractEnabled()": "41b3a0d9",
        "deposit(uint256)": "b6b55f25",
        "disableContract()": "894ba833",
        "latestUpdateTime()": "dd07d288",
        "modifyParameters(bytes32,address)": "6614f010",
        "modifyParameters(bytes32,uint256)": "fe4f5890",
        "nextAccumulatedRate()": "b1b970bd",
        "removeAuthorization(address)": "94f3f81d",
        "safeEngine()": "67aea313",
        "savings(address)": "1f7cdd5f",
        "savingsRate()": "6ecd067f",
        "totalSavings()": "9bf42b3f",
        "updateAccumulatedRate()": "64dbfd81",
        "withdraw(uint256)": "2e1a7d4d"
    },
    "id": 40
}