{
    "abi": [
        {
            "inputs": [
                {
                    "internalType": "address",
                    "name": "protocolToken_",
                    "type": "address"
                },
                {
                    "internalType": "uint256",
                    "name": "minAmountToBurn_",
                    "type": "uint256"
                },
                {
                    "internalType": "uint256",
                    "name": "supplyPercentageToBurn_",
                    "type": "uint256"
                }
            ],
            "stateMutability": "nonpayable",
            "type": "constructor"
        },
        {
            "anonymous": false,
            "inputs": [
                {
                    "indexed": false,
                    "internalType": "address",
                    "name": "account",
                    "type": "address"
                }
            ],
            "name": "AddAuthorization",
            "type": "event"
        },
        {
            "anonymous": false,
            "inputs": [
                {
                    "indexed": false,
                    "internalType": "bytes32",
                    "name": "parameter",
                    "type": "bytes32"
                },
                {
                    "indexed": false,
                    "internalType": "address",
                    "name": "account",
                    "type": "address"
                }
            ],
            "name": "ModifyParameters",
            "type": "event"
        },
        {
            "anonymous": false,
            "inputs": [
                {
                    "indexed": false,
                    "internalType": "address",
                    "name": "account",
                    "type": "address"
                }
            ],
            "name": "RemoveAuthorization",
            "type": "event"
        },
        {
            "inputs": [
                {
                    "internalType": "address",
                    "name": "account",
                    "type": "address"
                }
            ],
            "name": "addAuthorization",
            "outputs": [],
            "stateMutability": "nonpayable",
            "type": "function"
        },
        {
            "inputs": [
                {
                    "internalType": "address",
                    "name": "",
                    "type": "address"
                }
            ],
            "name": "authorizedAccounts",
            "outputs": [
                {
                    "internalType": "uint256",
                    "name": "",
                    "type": "uint256"
                }
            ],
            "stateMutability": "view",
            "type": "function"
        },
        {
            "inputs": [],
            "name": "esm",
            "outputs": [
                {
                    "internalType": "contract ESMLike",
                    "name": "",
                    "type": "address"
                }
            ],
            "stateMutability": "view",
            "type": "function"
        },
        {
            "inputs": [],
            "name": "minAmountToBurn",
            "outputs": [
                {
                    "internalType": "uint256",
                    "name": "",
                    "type": "uint256"
                }
            ],
            "stateMutability": "view",
            "type": "function"
        },
        {
            "inputs": [
                {
                    "internalType": "bytes32",
                    "name": "parameter",
                    "type": "bytes32"
                },
                {
                    "internalType": "address",
                    "name": "addr",
                    "type": "address"
                }
            ],
            "name": "modifyParameters",
            "outputs": [],
            "stateMutability": "nonpayable",
            "type": "function"
        },
        {
            "inputs": [],
            "name": "protocolToken",
            "outputs": [
                {
                    "internalType": "contract ProtocolTokenLike",
                    "name": "",
                    "type": "address"
                }
            ],
            "stateMutability": "view",
            "type": "function"
        },
        {
            "inputs": [],
            "name": "recomputeThreshold",
            "outputs": [],
            "stateMutability": "nonpayable",
            "type": "function"
        },
        {
            "inputs": [
                {
                    "internalType": "address",
                    "name": "account",
                    "type": "address"
                }
            ],
            "name": "removeAuthorization",
            "outputs": [],
            "stateMutability": "nonpayable",
            "type": "function"
        },
        {
            "inputs": [],
            "name": "supplyPercentageToBurn",
            "outputs": [
                {
                    "internalType": "uint256",
                    "name": "",
                    "type": "uint256"
                }
            ],
            "stateMutability": "view",
            "type": "function"
        }
    ],
    "bytecode": {
        "object": "0x608060405234801561001057600080fd5b50604051610cb5380380610cb58339818101604052606081101561003357600080fd5b50805160208201516040909201519091906001600160a01b03831661009f576040805162461bcd60e51b815260206004820152601360248201527f45534d5468726573686f6c645365747465722f00000000000000000000000000604482015290519081900360640190fd5b6100b88115156103e883106001600160e01b0361021316565b6100f35760405162461bcd60e51b815260040180806020018281038252602d815260200180610c3a602d913960400191505060405180910390fd5b600082116101325760405162461bcd60e51b815260040180806020018281038252602a815260200180610c67602a913960400191505060405180910390fd5b336000908152602081815260408083206001908190558590556002849055600380546001600160a01b0319166001600160a01b03888116919091179182905582516318160ddd60e01b815292519116926318160ddd9260048082019391829003018186803b1580156101a357600080fd5b505afa1580156101b7573d6000803e3d6000fd5b505050506040513d60208110156101cd57600080fd5b50511161020b5760405162461bcd60e51b8152600401808060200182810382526024815260200180610c916024913960400191505060405180910390fd5b505050610217565b1690565b610a14806102266000396000f3fe608060405234801561001057600080fd5b50600436106100935760003560e01c80636614f010116100665780636614f01014610124578063792e0adf1461015057806394f3f81d14610158578063af41b2481461017e578063cab860c11461018657610093565b80630648f0b5146100985780631a465fe1146100b257806324ba5884146100d657806335b28153146100fc575b600080fd5b6100a061018e565b60408051918252519081900360200190f35b6100ba610194565b604080516001600160a01b039092168252519081900360200190f35b6100a0600480360360208110156100ec57600080fd5b50356001600160a01b03166101a3565b6101226004803603602081101561011257600080fd5b50356001600160a01b03166101b5565b005b6101226004803603604081101561013a57600080fd5b50803590602001356001600160a01b0316610255565b6101226104b3565b6101226004803603602081101561016e57600080fd5b50356001600160a01b03166107a4565b6100ba610843565b6100a0610852565b60015481565b6003546001600160a01b031681565b60006020819052908152604090205481565b336000908152602081905260409020546001146102035760405162461bcd60e51b815260040180806020018281038252602981526020018061093a6029913960400191505060405180910390fd5b6001600160a01b0381166000818152602081815260409182902060019055815192835290517f599a298163e1678bb1c676052a8930bf0b8a1261ed6e01b8a2391e55f70001029281900390910190a150565b336000908152602081905260409020546001146102a35760405162461bcd60e51b815260040180806020018281038252602981526020018061093a6029913960400191505060405180910390fd5b6001600160a01b0381166102fe576040805162461bcd60e51b815260206004820152601c60248201527f45534d5468726573686f6c645365747465722f6e756c6c2d6164647200000000604482015290519081900360640190fd5b816265736d60e81b141561042f576004546001600160a01b0316156103545760405162461bcd60e51b81526004018080602001828103825260228152602001806109636022913960400191505060405180910390fd5b600480546001600160a01b0319166001600160a01b038381169190911780835560408051638f77583960e01b815290519190921692638f77583992808201926020929091829003018186803b1580156103ac57600080fd5b505afa1580156103c0573d6000803e3d6000fd5b505050506040513d60208110156103d657600080fd5b50511561042a576040805162461bcd60e51b815260206004820152601f60248201527f45534d5468726573686f6c645365747465722f65736d2d64697361626c656400604482015290519081900360640190fd5b610466565b60405162461bcd60e51b815260040180806020018281038252602c815260200180610985602c913960400191505060405180910390fd5b604080516265736d60e81b81526001600160a01b038316602082015281517fd91f38cf03346b5dc15fb60f9076f866295231ad3c3841a1051f8443f25170d1929181900390910190a15050565b6004805460408051638f77583960e01b815290516001600160a01b0390921692638f775839928282019260209290829003018186803b1580156104f557600080fd5b505afa158015610509573d6000803e3d6000fd5b505050506040513d602081101561051f57600080fd5b505115610573576040805162461bcd60e51b815260206004820152601f60248201527f45534d5468726573686f6c645365747465722f65736d2d64697361626c656400604482015290519081900360640190fd5b600354604080516318160ddd60e01b815290516000926001600160a01b0316916318160ddd916004808301926020929190829003018186803b1580156105b857600080fd5b505afa1580156105cc573d6000803e3d6000fd5b505050506040513d60208110156105e257600080fd5b5051905080610673576004805460015460408051630fe4f58960e41b81526f1d1c9a59d9d95c951a1c995cda1bdb1960821b948101949094526024840191909152516001600160a01b039091169163fe4f589091604480830192600092919082900301818387803b15801561065657600080fd5b505af115801561066a573d6000803e3d6000fd5b505050506107a1565b600354604080516370a0823160e01b8152600060048201819052915191926103e892610709926107019287926001600160a01b03909116916370a08231916024808301926020929190829003018186803b1580156106d057600080fd5b505afa1580156106e4573d6000803e3d6000fd5b505050506040513d60208110156106fa57600080fd5b5051610858565b6002546108a0565b8161071057fe5b6004546001549290910492506001600160a01b03169063fe4f58909061073690846108f6565b6040518263ffffffff1660e01b815260040180806f1d1c9a59d9d95c951a1c995cda1bdb1960821b815250602001828152602001915050600060405180830381600087803b15801561078757600080fd5b505af115801561079b573d6000803e3d6000fd5b50505050505b50565b336000908152602081905260409020546001146107f25760405162461bcd60e51b815260040180806020018281038252602981526020018061093a6029913960400191505060405180910390fd5b6001600160a01b03811660008181526020818152604080832092909255815192835290517f8834a87e641e9716be4f34527af5d23e11624f1ddeefede6ad75a9acfc31b9039281900390910190a150565b6004546001600160a01b031681565b60025481565b8082038281111561089a5760405162461bcd60e51b815260040180806020018281038252602a815260200180610910602a913960400191505060405180910390fd5b92915050565b60008115806108bb575050808202828282816108b857fe5b04145b61089a5760405162461bcd60e51b815260040180806020018281038252602e8152602001806109b1602e913960400191505060405180910390fd5b6000818310156109065781610908565b825b939250505056fe45534d5468726573686f6c645365747465722f7375622d75696e742d75696e742d756e646572666c6f7745534d5468726573686f6c645365747465722f6163636f756e742d6e6f742d617574686f72697a656445534d5468726573686f6c645365747465722f65736d2d616c72656164792d73657445534d5468726573686f6c645365747465722f6d6f646966792d756e7265636f676e697a65642d706172616d45534d5468726573686f6c645365747465722f6d756c7469706c792d75696e742d75696e742d6f766572666c6f77a26469706673582212204f7f2370a16994982f15f0b6c9b2e672c398c5c5b50d169f871b0dd5222f9cc064736f6c6343000607003345534d5468726573686f6c645365747465722f696e76616c69642d70657263656e746167652d746f2d6275726e45534d5468726573686f6c645365747465722f6e756c6c2d6d696e2d616d6f756e742d746f2d6275726e45534d5468726573686f6c645365747465722f6e756c6c2d746f6b656e2d737570706c79",
        "linkReferences": {}
    },
    "methodIdentifiers": {
        "addAuthorization(address)": "35b28153",
        "authorizedAccounts(address)": "24ba5884",
        "esm()": "af41b248",
        "minAmountToBurn()": "0648f0b5",
        "modifyParameters(bytes32,address)": "6614f010",
        "protocolToken()": "1a465fe1",
        "recomputeThreshold()": "792e0adf",
        "removeAuthorization(address)": "94f3f81d",
        "supplyPercentageToBurn()": "cab860c1"
    },
    "id": 22
}