{
    "abi": [
        {
            "inputs": [
                {
                    "internalType": "uint256",
                    "name": "rad",
                    "type": "uint256"
                }
            ],
            "name": "cancelAuctionedDebtWithSurplus",
            "outputs": [],
            "stateMutability": "nonpayable",
            "type": "function"
        },
        {
            "inputs": [
                {
                    "internalType": "contract DebtAuctionHouseLike",
                    "name": "debtAuctionHouse",
                    "type": "address"
                }
            ],
            "name": "disableContract",
            "outputs": [],
            "stateMutability": "nonpayable",
            "type": "function"
        },
        {
            "inputs": [
                {
                    "internalType": "contract DebtAuctionHouseLike",
                    "name": "debtAuctionHouse",
                    "type": "address"
                },
                {
                    "internalType": "uint256",
                    "name": "amountToSell",
                    "type": "uint256"
                },
                {
                    "internalType": "uint256",
                    "name": "initialBid",
                    "type": "uint256"
                }
            ],
            "name": "startAuction",
            "outputs": [
                {
                    "internalType": "uint256",
                    "name": "",
                    "type": "uint256"
                }
            ],
            "stateMutability": "nonpayable",
            "type": "function"
        },
        {
            "inputs": [],
            "name": "totalOnAuctionDebt",
            "outputs": [
                {
                    "internalType": "uint256",
                    "name": "",
                    "type": "uint256"
                }
            ],
            "stateMutability": "view",
            "type": "function"
        }
    ],
    "bytecode": {
        "object": "0x608060405234801561001057600080fd5b50610231806100206000396000f3fe608060405234801561001057600080fd5b506004361061004c5760003560e01c80630f44d6bd146100515780633dc4ab1d1461006b57806356dd47551461008a578063a154ce82146100bc575b600080fd5b6100596100e2565b60408051918252519081900360200190f35b6100886004803603602081101561008157600080fd5b50356100e8565b005b610059600480360360608110156100a057600080fd5b506001600160a01b0381351690602081013590604001356100fa565b610088600480360360208110156100d257600080fd5b50356001600160a01b031661018f565b60005481565b6100f4600054826101e5565b60005550565b6000805482018155604080516356dd475560e01b81523060048201526024810185905260448101849052905182916001600160a01b038716916356dd47559160648082019260209290919082900301818787803b15801561015a57600080fd5b505af115801561016e573d6000803e3d6000fd5b505050506040513d602081101561018457600080fd5b505195945050505050565b806001600160a01b031663894ba8336040518163ffffffff1660e01b8152600401600060405180830381600087803b1580156101ca57600080fd5b505af11580156101de573d6000803e3d6000fd5b5050505050565b808203828111156101f557600080fd5b9291505056fea264697066735822122057d0682e8bf900c8205550c4c7ec7f5f9d77ae17448db898f150266a37b74fc264736f6c63430006070033",
        "linkReferences": {}
    },
    "methodIdentifiers": {
        "cancelAuctionedDebtWithSurplus(uint256)": "3dc4ab1d",
        "disableContract(address)": "a154ce82",
        "startAuction(address,uint256,uint256)": "56dd4755",
        "totalOnAuctionDebt()": "0f44d6bd"
    },
    "id": 60
}