{
    "abi": [
        {
            "inputs": [
                {
                    "internalType": "contract SurplusAuctionHouseLike",
                    "name": "surplusAuctionHouse_",
                    "type": "address"
                }
            ],
            "stateMutability": "nonpayable",
            "type": "constructor"
        },
        {
            "inputs": [
                {
                    "internalType": "uint256",
                    "name": "id",
                    "type": "uint256"
                },
                {
                    "internalType": "uint256",
                    "name": "amountToBuy",
                    "type": "uint256"
                },
                {
                    "internalType": "uint256",
                    "name": "bid",
                    "type": "uint256"
                }
            ],
            "name": "increaseBidSize",
            "outputs": [],
            "stateMutability": "nonpayable",
            "type": "function"
        },
        {
            "inputs": [
                {
                    "internalType": "uint256",
                    "name": "id",
                    "type": "uint256"
                }
            ],
            "name": "settleAuction",
            "outputs": [],
            "stateMutability": "nonpayable",
            "type": "function"
        },
        {
            "inputs": [
                {
                    "internalType": "uint256",
                    "name": "id",
                    "type": "uint256"
                },
                {
                    "internalType": "uint256",
                    "name": "amountToBuy",
                    "type": "uint256"
                },
                {
                    "internalType": "uint256",
                    "name": "bid",
                    "type": "uint256"
                }
            ],
            "name": "try_increaseBidSize",
            "outputs": [
                {
                    "internalType": "bool",
                    "name": "ok",
                    "type": "bool"
                }
            ],
            "stateMutability": "nonpayable",
            "type": "function"
        },
        {
            "inputs": [
                {
                    "internalType": "uint256",
                    "name": "id",
                    "type": "uint256"
                }
            ],
            "name": "try_restartAuction",
            "outputs": [
                {
                    "internalType": "bool",
                    "name": "ok",
                    "type": "bool"
                }
            ],
            "stateMutability": "nonpayable",
            "type": "function"
        },
        {
            "inputs": [
                {
                    "internalType": "uint256",
                    "name": "id",
                    "type": "uint256"
                }
            ],
            "name": "try_settleAuction",
            "outputs": [
                {
                    "internalType": "bool",
                    "name": "ok",
                    "type": "bool"
                }
            ],
            "stateMutability": "nonpayable",
            "type": "function"
        }
    ],
    "bytecode": {
        "object": "0x608060405234801561001057600080fd5b506040516107f73803806107f78339818101604052602081101561003357600080fd5b5051600080546001600160a01b0319166001600160a01b038084169190911791829055604080516367aea31360e01b8152905192909116916367aea31391600480820192602092909190829003018186803b15801561009157600080fd5b505afa1580156100a5573d6000803e3d6000fd5b505050506040513d60208110156100bb57600080fd5b50516000805460408051631b29a84160e31b81526001600160a01b0392831660048201529051919093169263d94d420892602480830193919282900301818387803b15801561010957600080fd5b505af115801561011d573d6000803e3d6000fd5b505050506000809054906101000a90046001600160a01b03166001600160a01b0316631a465fe16040518163ffffffff1660e01b815260040160206040518083038186803b15801561016e57600080fd5b505afa158015610182573d6000803e3d6000fd5b505050506040513d602081101561019857600080fd5b5051600080546040805163095ea7b360e01b81526001600160a01b03928316600482015260001960248201529051919093169263095ea7b39260448083019360209390929083900390910190829087803b1580156101f557600080fd5b505af1158015610209573d6000803e3d6000fd5b505050506040513d602081101561021f57600080fd5b5050506105c6806102316000396000f3fe608060405234801561001057600080fd5b50600436106100575760003560e01c80632e9936111461005c5780635a93f0311461007b5780637682adea146100a4578063d17bf0b4146100d5578063f3789794146100fe575b600080fd5b6100796004803603602081101561007257600080fd5b503561011b565b005b6100796004803603606081101561009157600080fd5b508035906020810135906040013561017e565b6100c1600480360360208110156100ba57600080fd5b50356101f1565b604080519115158252519081900360200190f35b6100c1600480360360608110156100eb57600080fd5b508035906020810135906040013561036a565b6100c16004803603602081101561011457600080fd5b50356104e0565b6000805460408051632e99361160e01b81526004810185905290516001600160a01b0390921692632e9936119260248084019382900301818387803b15801561016357600080fd5b505af1158015610177573d6000803e3d6000fd5b5050505050565b6000805460408051635a93f03160e01b815260048101879052602481018690526044810185905290516001600160a01b0390921692635a93f0319260648084019382900301818387803b1580156101d457600080fd5b505af11580156101e8573d6000803e3d6000fd5b50505050505050565b604080518082018252601781527f7265737461727441756374696f6e2875696e743235362900000000000000000060208201908152600080548451602480820188905286518083039091018152604490910195869052845192956001600160a01b0390921693909285929182918083835b602083106102815780518252601f199092019160209182019101610262565b51815160001960209485036101000a01908116901991909116179052604080519490920184900390932092860180516001600160e01b03166001600160e01b031990941693909317835251855190945084935090508083835b602083106102f95780518252601f1990920191602091820191016102da565b6001836020036101000a0380198251168184511680821785525050505050509050019150506000604051808303816000865af19150503d806000811461035b576040519150601f19603f3d011682016040523d82523d6000602084013e610360565b606091505b5090949350505050565b600060606040518060600160405280602881526020016105696028913960005460408051602481018990526044810188905260648082018890528251808303909101815260849091019182905283519394506001600160a01b0390921692849190819060208401908083835b602083106103f55780518252601f1990920191602091820191016103d6565b51815160001960209485036101000a01908116901991909116179052604080519490920184900390932092860180516001600160e01b03166001600160e01b031990941693909317835251855190945084935090508083835b6020831061046d5780518252601f19909201916020918201910161044e565b6001836020036101000a0380198251168184511680821785525050505050509050019150506000604051808303816000865af19150503d80600081146104cf576040519150601f19603f3d011682016040523d82523d6000602084013e6104d4565b606091505b50909695505050505050565b6040805180820182526016815275736574746c6541756374696f6e2875696e743235362960501b60208201908152600080548451602480820188905286518083039091018152604490910195869052845192956001600160a01b039092169390928592918291808383602083106102815780518252601f19909201916020918201910161026256fe696e63726561736542696453697a652875696e743235362c75696e743235362c75696e7432353629a2646970667358221220bcd738ae60868a0ef94d76d82ecf4dd964ad00c9fd4e36e04b335841cb022e6664736f6c63430006070033",
        "linkReferences": {}
    },
    "methodIdentifiers": {
        "increaseBidSize(uint256,uint256,uint256)": "5a93f031",
        "settleAuction(uint256)": "2e993611",
        "try_increaseBidSize(uint256,uint256,uint256)": "d17bf0b4",
        "try_restartAuction(uint256)": "7682adea",
        "try_settleAuction(uint256)": "f3789794"
    },
    "id": 62
}