{
    "abi": [
        {
            "inputs": [],
            "stateMutability": "nonpayable",
            "type": "constructor"
        },
        {
            "anonymous": false,
            "inputs": [
                {
                    "indexed": true,
                    "internalType": "address",
                    "name": "usr",
                    "type": "address"
                }
            ],
            "name": "AddAuthorization",
            "type": "event"
        },
        {
            "anonymous": false,
            "inputs": [
                {
                    "indexed": true,
                    "internalType": "address",
                    "name": "usr",
                    "type": "address"
                }
            ],
            "name": "RemoveAuthorization",
            "type": "event"
        },
        {
            "anonymous": false,
            "inputs": [
                {
                    "indexed": true,
                    "internalType": "address",
                    "name": "newOwner",
                    "type": "address"
                }
            ],
            "name": "SetOwner",
            "type": "event"
        },
        {
            "anonymous": false,
            "inputs": [
                {
                    "indexed": true,
                    "internalType": "address",
                    "name": "newRoot",
                    "type": "address"
                }
            ],
            "name": "SetRoot",
            "type": "event"
        },
        {
            "inputs": [
                {
                    "internalType": "address",
                    "name": "usr",
                    "type": "address"
                }
            ],
            "name": "addAuthorization",
            "outputs": [],
            "stateMutability": "nonpayable",
            "type": "function"
        },
        {
            "inputs": [
                {
                    "internalType": "address",
                    "name": "",
                    "type": "address"
                }
            ],
            "name": "authorizedAccounts",
            "outputs": [
                {
                    "internalType": "uint256",
                    "name": "",
                    "type": "uint256"
                }
            ],
            "stateMutability": "view",
            "type": "function"
        },
        {
            "inputs": [
                {
                    "internalType": "address",
                    "name": "src",
                    "type": "address"
                },
                {
                    "internalType": "address",
                    "name": "",
                    "type": "address"
                },
                {
                    "internalType": "bytes4",
                    "name": "sig",
                    "type": "bytes4"
                }
            ],
            "name": "canCall",
            "outputs": [
                {
                    "internalType": "bool",
                    "name": "",
                    "type": "bool"
                }
            ],
            "stateMutability": "view",
            "type": "function"
        },
        {
            "inputs": [],
            "name": "owner",
            "outputs": [
                {
                    "internalType": "address",
                    "name": "",
                    "type": "address"
                }
            ],
            "stateMutability": "view",
            "type": "function"
        },
        {
            "inputs": [
                {
                    "internalType": "address",
                    "name": "usr",
                    "type": "address"
                }
            ],
            "name": "removeAuthorization",
            "outputs": [],
            "stateMutability": "nonpayable",
            "type": "function"
        },
        {
            "inputs": [],
            "name": "root",
            "outputs": [
                {
                    "internalType": "address",
                    "name": "",
                    "type": "address"
                }
            ],
            "stateMutability": "view",
            "type": "function"
        },
        {
            "inputs": [
                {
                    "internalType": "address",
                    "name": "usr",
                    "type": "address"
                }
            ],
            "name": "setOwner",
            "outputs": [],
            "stateMutability": "nonpayable",
            "type": "function"
        },
        {
            "inputs": [
                {
                    "internalType": "address",
                    "name": "usr",
                    "type": "address"
                }
            ],
            "name": "setRoot",
            "outputs": [],
            "stateMutability": "nonpayable",
            "type": "function"
        }
    ],
    "bytecode": {
        "object": "0x608060405234801561001057600080fd5b50600080546001600160a01b03191633908117825560405190917f9d383c373e0ae3e05fc32358f1044a9f9647712def528d2f34cf16fcac40eeac91a26104af8061005c6000396000f3fe608060405234801561001057600080fd5b50600436106100875760003560e01c80638da5cb5b1161005b5780638da5cb5b1461013857806394f3f81d1461015c578063b700961314610182578063ebf0c717146101d757610087565b80623ba1ed1461008c57806313af4035146100b457806324ba5884146100da57806335b2815314610112575b600080fd5b6100b2600480360360208110156100a257600080fd5b50356001600160a01b03166101df565b005b6100b2600480360360208110156100ca57600080fd5b50356001600160a01b031661023e565b610100600480360360208110156100f057600080fd5b50356001600160a01b03166102b4565b60408051918252519081900360200190f35b6100b26004803603602081101561012857600080fd5b50356001600160a01b03166102c6565b610140610337565b604080516001600160a01b039092168252519081900360200190f35b6100b26004803603602081101561017257600080fd5b50356001600160a01b0316610346565b6101c36004803603606081101561019857600080fd5b5080356001600160a01b0390811691602081013590911690604001356001600160e01b0319166103b6565b604080519115158252519081900360200190f35b61014061046a565b6000546001600160a01b031633146101f657600080fd5b600080546001600160a01b0319166001600160a01b038316908117825560405190917f9d383c373e0ae3e05fc32358f1044a9f9647712def528d2f34cf16fcac40eeac91a250565b6000546001600160a01b031633148061026157506001546001600160a01b031633145b61026a57600080fd5b600180546001600160a01b0319166001600160a01b0383169081179091556040517f167d3e9c1016ab80e58802ca9da10ce5c6a0f4debc46a2e7a2cd9e56899a4fb590600090a250565b60026020526000908152604090205481565b6000546001600160a01b03163314806102e957506001546001600160a01b031633145b6102f257600080fd5b6001600160a01b03811660008181526002602052604080822060019055517f599a298163e1678bb1c676052a8930bf0b8a1261ed6e01b8a2391e55f70001029190a250565b6001546001600160a01b031681565b6000546001600160a01b031633148061036957506001546001600160a01b031633145b61037257600080fd5b6001600160a01b038116600081815260026020526040808220829055517f8834a87e641e9716be4f34527af5d23e11624f1ddeefede6ad75a9acfc31b9039190a250565b60006001600160e01b03198216630852cd8d60e31b14806103e757506001600160e01b03198216632770a7eb60e21b145b806103ff57506000546001600160a01b038581169116145b8061041757506001546001600160a01b038581169116145b1561042457506001610463565b6001600160e01b031982166340c10f1960e01b141561045f57506001600160a01b038316600090815260026020526040902054600114610463565b5060005b9392505050565b6000546001600160a01b03168156fea2646970667358221220d07cde50ed66daafff955367a6e8da8da96b33ef65e6ff78ac32e5aac7edefcf64736f6c63430006070033",
        "linkReferences": {}
    },
    "methodIdentifiers": {
        "addAuthorization(address)": "35b28153",
        "authorizedAccounts(address)": "24ba5884",
        "canCall(address,address,bytes4)": "b7009613",
        "owner()": "8da5cb5b",
        "removeAuthorization(address)": "94f3f81d",
        "root()": "ebf0c717",
        "setOwner(address)": "13af4035",
        "setRoot(address)": "003ba1ed"
    },
    "id": 26
}