{
    "abi": [
        {
            "inputs": [
                {
                    "internalType": "address[]",
                    "name": "addresses",
                    "type": "address[]"
                }
            ],
            "stateMutability": "nonpayable",
            "type": "constructor"
        },
        {
            "inputs": [],
            "name": "setup",
            "outputs": [],
            "stateMutability": "nonpayable",
            "type": "function"
        },
        {
            "inputs": [
                {
                    "internalType": "bytes32",
                    "name": "collateralType",
                    "type": "bytes32"
                },
                {
                    "internalType": "address",
                    "name": "auctionHouse",
                    "type": "address"
                },
                {
                    "internalType": "address",
                    "name": "adapter",
                    "type": "address"
                },
                {
                    "internalType": "address",
                    "name": "collateralFSM",
                    "type": "address"
                },
                {
                    "internalType": "uint256",
                    "name": "debtCeiling",
                    "type": "uint256"
                },
                {
                    "internalType": "uint256",
                    "name": "debtFloor",
                    "type": "uint256"
                },
                {
                    "internalType": "uint256",
                    "name": "cRatio",
                    "type": "uint256"
                },
                {
                    "internalType": "uint256",
                    "name": "stabilityFee",
                    "type": "uint256"
                },
                {
                    "internalType": "uint256",
                    "name": "liquidationPenalty",
                    "type": "uint256"
                },
                {
                    "internalType": "uint256",
                    "name": "liquidationQuantity",
                    "type": "uint256"
                }
            ],
            "name": "setupCollateral",
            "outputs": [],
            "stateMutability": "nonpayable",
            "type": "function"
        }
    ],
    "bytecode": {
        "object": "0x60056103208181526103e06040529061034060a080368337505081516200002e926000925060200190620004ff565b503480156200003c57600080fd5b5060405162003ac038038062003ac0833981810160405260208110156200006257600080fd5b81019080805160405193929190846401000000008211156200008357600080fd5b9083019060208201858111156200009957600080fd5b8251866020820283011164010000000082111715620000b757600080fd5b82525081516020918201928201910280838360005b83811015620000e6578181015183820152602001620000cc565b50505050905001604052505050426103e80160808181525050806000815181106200010d57fe5b60200260200101516001600160a01b031660a0816001600160a01b031660601b81525050806001815181106200013f57fe5b60200260200101516001600160a01b031660c0816001600160a01b031660601b81525050806002815181106200017157fe5b60200260200101516001600160a01b031660e0816001600160a01b031660601b8152505080600381518110620001a357fe5b60200260200101516001600160a01b0316610100816001600160a01b031660601b8152505080600481518110620001d657fe5b60200260200101516001600160a01b0316610120816001600160a01b031660601b81525050806005815181106200020957fe5b60200260200101516001600160a01b0316610140816001600160a01b031660601b81525050806006815181106200023c57fe5b60200260200101516001600160a01b0316610160816001600160a01b031660601b81525050806007815181106200026f57fe5b60200260200101516001600160a01b0316610180816001600160a01b031660601b8152505080600881518110620002a257fe5b60200260200101516001600160a01b03166101a0816001600160a01b031660601b8152505080600981518110620002d557fe5b60200260200101516001600160a01b03166101c0816001600160a01b031660601b8152505080600a815181106200030857fe5b60200260200101516001600160a01b03166101e0816001600160a01b031660601b8152505080600b815181106200033b57fe5b60200260200101516001600160a01b0316610200816001600160a01b031660601b8152505080600c815181106200036e57fe5b60200260200101516001600160a01b0316610220816001600160a01b031660601b8152505080600d81518110620003a157fe5b60200260200101516001600160a01b0316610240816001600160a01b031660601b8152505080600e81518110620003d457fe5b60200260200101516001600160a01b0316610260816001600160a01b031660601b8152505080600f815181106200040757fe5b60200260200101516001600160a01b0316610280816001600160a01b031660601b81525050806010815181106200043a57fe5b60200260200101516001600160a01b03166102a0816001600160a01b031660601b81525050806011815181106200046d57fe5b60200260200101516001600160a01b03166102c0816001600160a01b031660601b8152505080601281518110620004a057fe5b60200260200101516001600160a01b03166102e0816001600160a01b031660601b8152505080601381518110620004d357fe5b60200260200101516001600160a01b0316610300816001600160a01b031660601b81525050506200056f565b8280548282559060005260206000209081019282156200053d579160200282015b828111156200053d57825182559160200191906001019062000520565b506200054b9291506200054f565b5090565b6200056c91905b808211156200054b576000815560010162000556565b90565b60805160a05160601c60c05160601c60e05160601c6101005160601c6101205160601c6101405160601c6101605160601c6101805160601c6101a05160601c6101c05160601c6101e05160601c6102005160601c6102205160601c6102405160601c6102605160601c6102805160601c6102a05160601c6102c05160601c6102e05160601c6103005160601c6132836200083d60003980610ec0525080610b655280610eef5280610f70528061102052508061312e52806131ca525080612649528061270252806127ca52806130cb525080612599528061303e5250806125075280612fb15250806124515280612f245250806104675280611a805280611b455280611c115280611cdc5280611dd45280611ed15280611fd05280612080528061213052806121e052806122c052806123a052806124225280612e97525080611ea25280611f0052806123425280612371528061261a52806126d35280612e0a52508061013a528061023252806102d5528061033852806103d75280611855528061194f52806119ff5280611b7452806120515280612d7d525080610b365280610c5e5280610d09528061158c5280611657528061172452806117d4528061188452806119d05280611c4052806121015280612cf0525080610f9f52806114dc528061155d52806117a55280612c6352508061104f528061144c52806116f55280612bd8525080611da35280611e03528061226052806122915280612aed5280612b4a52508061060d52806106c4528061138052806116285280612a8b52508060aa528061058f52806108ff52806109965280611156528061123e528061135152806114ad52806119205280611aaf5280611fa152806129fe5250806104e852806107b25280610a325280610ad352806111855280611d0b52806121b1528061256a52806129715250806110d05250806112d052806128e45250806112a152806128575250506132836000f3fe608060405234801561001057600080fd5b50600436106100365760003560e01c80637f49ccfc1461003b578063ba0bba40146100a0575b600080fd5b61009e600480360361014081101561005257600080fd5b508035906001600160a01b03602082013581169160408101358216916060820135169060808101359060a08101359060c08101359060e0810135906101008101359061012001356100a8565b005b61009e610ebe565b7f00000000000000000000000000000000000000000000000000000000000000006001600160a01b03166335b28153896040518263ffffffff1660e01b815260040180826001600160a01b03166001600160a01b03168152602001915050600060405180830381600087803b15801561012057600080fd5b505af1158015610134573d6000803e3d6000fd5b505050507f00000000000000000000000000000000000000000000000000000000000000006001600160a01b031663513a3dba8b8b6040518363ffffffff1660e01b8152600401808381526020018075636f6c6c61746572616c41756374696f6e486f75736560501b815250602001826001600160a01b03166001600160a01b0316815260200192505050600060405180830381600087803b1580156101d957600080fd5b505af11580156101ed573d6000803e3d6000fd5b50506040805163d4b9311d60e01b8152600481018e9052716c69717569646174696f6e50656e616c747960701b60248201526044810186905290516001600160a01b037f000000000000000000000000000000000000000000000000000000000000000016935063d4b9311d9250606480830192600092919082900301818387803b15801561027b57600080fd5b505af115801561028f573d6000803e3d6000fd5b50506040805163d4b9311d60e01b8152600481018e9052726c69717569646174696f6e5175616e7469747960681b60248201526044810185905290516001600160a01b037f000000000000000000000000000000000000000000000000000000000000000016935063d4b9311d9250606480830192600092919082900301818387803b15801561031e57600080fd5b505af1158015610332573d6000803e3d6000fd5b505050507f00000000000000000000000000000000000000000000000000000000000000006001600160a01b03166335b281538a6040518263ffffffff1660e01b815260040180826001600160a01b03166001600160a01b03168152602001915050600060405180830381600087803b1580156103ae57600080fd5b505af11580156103c2573d6000803e3d6000fd5b50505050886001600160a01b03166335b281537f00000000000000000000000000000000000000000000000000000000000000006040518263ffffffff1660e01b815260040180826001600160a01b03166001600160a01b03168152602001915050600060405180830381600087803b15801561043e57600080fd5b505af1158015610452573d6000803e3d6000fd5b50505050886001600160a01b03166335b281537f00000000000000000000000000000000000000000000000000000000000000006040518263ffffffff1660e01b815260040180826001600160a01b03166001600160a01b03168152602001915050600060405180830381600087803b1580156104ce57600080fd5b505af11580156104e2573d6000803e3d6000fd5b505050507f00000000000000000000000000000000000000000000000000000000000000006001600160a01b031663513a3dba8b896040518363ffffffff1660e01b81526004018083815260200180631bdc98db60e21b815250602001826001600160a01b03166001600160a01b0316815260200192505050600060405180830381600087803b15801561057557600080fd5b505af1158015610589573d6000803e3d6000fd5b505050507f00000000000000000000000000000000000000000000000000000000000000006001600160a01b0316635e4128588b6040518263ffffffff1660e01b815260040180828152602001915050600060405180830381600087803b1580156105f357600080fd5b505af1158015610607573d6000803e3d6000fd5b505050507f00000000000000000000000000000000000000000000000000000000000000006001600160a01b0316635e4128588b6040518263ffffffff1660e01b815260040180828152602001915050600060405180830381600087803b15801561067157600080fd5b505af1158015610685573d6000803e3d6000fd5b50506040805163d4b9311d60e01b8152600481018e90526b73746162696c69747946656560a01b60248201526044810187905290516001600160a01b037f000000000000000000000000000000000000000000000000000000000000000016935063d4b9311d9250606480830192600092919082900301818387803b15801561070d57600080fd5b505af1158015610721573d6000803e3d6000fd5b505050506000896001600160a01b031663355a47536040518163ffffffff1660e01b8152600401602060405180830381600087803b15801561076257600080fd5b505af1158015610776573d6000803e3d6000fd5b505050506040513d602081101561078c57600080fd5b505190506608a9c8e9892a6960cb1b81146108c357896001600160a01b0316636614f0107f00000000000000000000000000000000000000000000000000000000000000006040518263ffffffff1660e01b815260040180806c37b930b1b632a932b630bcb2b960991b815250602001826001600160a01b03166001600160a01b03168152602001915050600060405180830381600087803b15801561083157600080fd5b505af1158015610845573d6000803e3d6000fd5b5050604080516306614f0160e41b81526c636f6c6c61746572616c46534d60981b60048201526001600160a01b038c811660248301529151918e169350636614f010925060448082019260009290919082900301818387803b1580156108aa57600080fd5b505af11580156108be573d6000803e3d6000fd5b505050505b6040805163d4b9311d60e01b8152600481018d90526a646562744365696c696e6760a81b60248201526044810189905290516001600160a01b037f0000000000000000000000000000000000000000000000000000000000000000169163d4b9311d91606480830192600092919082900301818387803b15801561094657600080fd5b505af115801561095a573d6000803e3d6000fd5b50506040805163d4b9311d60e01b8152600481018f9052683232b13a233637b7b960b91b6024820152604481018a905290516001600160a01b037f000000000000000000000000000000000000000000000000000000000000000016935063d4b9311d9250606480830192600092919082900301818387803b1580156109df57600080fd5b505af11580156109f3573d6000803e3d6000fd5b50506040805163d4b9311d60e01b8152600481018f90526b73616665747943526174696f60a01b60248201526044810189905290516001600160a01b037f000000000000000000000000000000000000000000000000000000000000000016935063d4b9311d9250606480830192600092919082900301818387803b158015610a7b57600080fd5b505af1158015610a8f573d6000803e3d6000fd5b50506040805163d4b9311d60e01b8152600481018f9052706c69717569646174696f6e43526174696f60781b60248201526044810189905290516001600160a01b037f000000000000000000000000000000000000000000000000000000000000000016935063d4b9311d9250606480830192600092919082900301818387803b158015610b1c57600080fd5b505af1158015610b30573d6000803e3d6000fd5b505050507f00000000000000000000000000000000000000000000000000000000000000006001600160a01b0316636614f0107f00000000000000000000000000000000000000000000000000000000000000006040518263ffffffff1660e01b815260040180807570726f746f636f6c546f6b656e417574686f7269747960501b815250602001826001600160a01b03166001600160a01b03168152602001915050600060405180830381600087803b158015610bed57600080fd5b505af1158015610c01573d6000803e3d6000fd5b505060408051630fe4f58960e41b81527f737572706c757341756374696f6e416d6f756e74546f53656c6c000000000000600482015274101b46ef0a30e12310ddb28a484be3c60c5d140000602482015290516001600160a01b037f000000000000000000000000000000000000000000000000000000000000000016935063fe4f58909250604480830192600092919082900301818387803b158015610ca757600080fd5b505af1158015610cbb573d6000803e3d6000fd5b505060408051630fe4f58960e41b81526c39bab938363ab9a13ab33332b960991b60048201527501561d276ddfdc00a71dd41a08f48af4000000000000602482015290516001600160a01b037f000000000000000000000000000000000000000000000000000000000000000016935063fe4f58909250604480830192600092919082900301818387803b158015610d5257600080fd5b505af1158015610d66573d6000803e3d6000fd5b5050604080516394f3f81d60e01b815260008051602061322e833981519152600482015290516001600160a01b038e1693506394f3f81d9250602480830192600092919082900301818387803b158015610dbf57600080fd5b505af1158015610dd3573d6000803e3d6000fd5b5050604080516394f3f81d60e01b815260008051602061322e833981519152600482015290516001600160a01b038d1693506394f3f81d9250602480830192600092919082900301818387803b158015610e2c57600080fd5b505af1158015610e40573d6000803e3d6000fd5b5050604080516394f3f81d60e01b815260008051602061322e833981519152600482015290516001600160a01b038c1693506394f3f81d9250602480830192600092919082900301818387803b158015610e9957600080fd5b505af1158015610ead573d6000803e3d6000fd5b505050505050505050505050505050565b7f00000000000000000000000000000000000000000000000000000000000000006001600160a01b0316637a9e5e4b7f00000000000000000000000000000000000000000000000000000000000000006040518263ffffffff1660e01b815260040180826001600160a01b03166001600160a01b03168152602001915050600060405180830381600087803b158015610f5657600080fd5b505af1158015610f6a573d6000803e3d6000fd5b505050507f00000000000000000000000000000000000000000000000000000000000000006001600160a01b03166335b281537f00000000000000000000000000000000000000000000000000000000000000006040518263ffffffff1660e01b815260040180826001600160a01b03166001600160a01b03168152602001915050600060405180830381600087803b15801561100657600080fd5b505af115801561101a573d6000803e3d6000fd5b505050507f00000000000000000000000000000000000000000000000000000000000000006001600160a01b03166335b281537f00000000000000000000000000000000000000000000000000000000000000006040518263ffffffff1660e01b815260040180826001600160a01b03166001600160a01b03168152602001915050600060405180830381600087803b1580156110b657600080fd5b505af11580156110ca573d6000803e3d6000fd5b505050507f00000000000000000000000000000000000000000000000000000000000000006001600160a01b03166382dcc26d678ac7230489e800006040518263ffffffff1660e01b815260040180828152602001915050600060405180830381600087803b15801561113c57600080fd5b505af1158015611150573d6000803e3d6000fd5b505050507f00000000000000000000000000000000000000000000000000000000000000006001600160a01b03166335b281537f00000000000000000000000000000000000000000000000000000000000000006040518263ffffffff1660e01b815260040180826001600160a01b03166001600160a01b03168152602001915050600060405180830381600087803b1580156111ec57600080fd5b505af1158015611200573d6000803e3d6000fd5b505060408051630fe4f58960e41b815270676c6f62616c446562744365696c696e6760781b6004820152600019602482015290516001600160a01b037f000000000000000000000000000000000000000000000000000000000000000016935063fe4f58909250604480830192600092919082900301818387803b15801561128757600080fd5b505af115801561129b573d6000803e3d6000fd5b505050507f00000000000000000000000000000000000000000000000000000000000000006001600160a01b03166335b281537f00000000000000000000000000000000000000000000000000000000000000006040518263ffffffff1660e01b815260040180826001600160a01b03166001600160a01b03168152602001915050600060405180830381600087803b15801561133757600080fd5b505af115801561134b573d6000803e3d6000fd5b505050507f00000000000000000000000000000000000000000000000000000000000000006001600160a01b03166335b281537f00000000000000000000000000000000000000000000000000000000000000006040518263ffffffff1660e01b815260040180826001600160a01b03166001600160a01b03168152602001915050600060405180830381600087803b1580156113e757600080fd5b505af11580156113fb573d6000803e3d6000fd5b5061140592505050565b604080516306614f0160e41b81527f70726f746f636f6c546f6b656e4269645265636569766572000000000000000060048201526001602482015290516001600160a01b037f00000000000000000000000000000000000000000000000000000000000000001691636614f01091604480830192600092919082900301818387803b15801561149357600080fd5b505af11580156114a7573d6000803e3d6000fd5b505050507f00000000000000000000000000000000000000000000000000000000000000006001600160a01b03166335b281537f00000000000000000000000000000000000000000000000000000000000000006040518263ffffffff1660e01b815260040180826001600160a01b03166001600160a01b03168152602001915050600060405180830381600087803b15801561154357600080fd5b505af1158015611557573d6000803e3d6000fd5b505050507f00000000000000000000000000000000000000000000000000000000000000006001600160a01b0316636614f0107f00000000000000000000000000000000000000000000000000000000000000006040518263ffffffff1660e01b815260040180806f6163636f756e74696e67456e67696e6560801b815250602001826001600160a01b03166001600160a01b03168152602001915050600060405180830381600087803b15801561160e57600080fd5b505af1158015611622573d6000803e3d6000fd5b505050507f00000000000000000000000000000000000000000000000000000000000000006001600160a01b0316636614f0107f00000000000000000000000000000000000000000000000000000000000000006040518263ffffffff1660e01b8152600401808071383934b6b0b93caa30bc2932b1b2b4bb32b960711b815250602001826001600160a01b03166001600160a01b03168152602001915050600060405180830381600087803b1580156116db57600080fd5b505af11580156116ef573d6000803e3d6000fd5b505050507f00000000000000000000000000000000000000000000000000000000000000006001600160a01b03166335b281537f00000000000000000000000000000000000000000000000000000000000000006040518263ffffffff1660e01b815260040180826001600160a01b03166001600160a01b03168152602001915050600060405180830381600087803b15801561178b57600080fd5b505af115801561179f573d6000803e3d6000fd5b505050507f00000000000000000000000000000000000000000000000000000000000000006001600160a01b03166335b281537f00000000000000000000000000000000000000000000000000000000000000006040518263ffffffff1660e01b815260040180826001600160a01b03166001600160a01b03168152602001915050600060405180830381600087803b15801561183b57600080fd5b505af115801561184f573d6000803e3d6000fd5b505050507f00000000000000000000000000000000000000000000000000000000000000006001600160a01b0316636614f0107f00000000000000000000000000000000000000000000000000000000000000006040518263ffffffff1660e01b815260040180806f6163636f756e74696e67456e67696e6560801b815250602001826001600160a01b03166001600160a01b03168152602001915050600060405180830381600087803b15801561190657600080fd5b505af115801561191a573d6000803e3d6000fd5b505050507f00000000000000000000000000000000000000000000000000000000000000006001600160a01b03166335b281537f00000000000000000000000000000000000000000000000000000000000000006040518263ffffffff1660e01b815260040180826001600160a01b03166001600160a01b03168152602001915050600060405180830381600087803b1580156119b657600080fd5b505af11580156119ca573d6000803e3d6000fd5b505050507f00000000000000000000000000000000000000000000000000000000000000006001600160a01b03166335b281537f00000000000000000000000000000000000000000000000000000000000000006040518263ffffffff1660e01b815260040180826001600160a01b03166001600160a01b03168152602001915050600060405180830381600087803b158015611a6657600080fd5b505af1158015611a7a573d6000803e3d6000fd5b505050507f00000000000000000000000000000000000000000000000000000000000000006001600160a01b0316636614f0107f00000000000000000000000000000000000000000000000000000000000000006040518263ffffffff1660e01b815260040180806973616665456e67696e6560b01b815250602001826001600160a01b03166001600160a01b03168152602001915050600060405180830381600087803b158015611b2b57600080fd5b505af1158015611b3f573d6000803e3d6000fd5b505050507f00000000000000000000000000000000000000000000000000000000000000006001600160a01b0316636614f0107f00000000000000000000000000000000000000000000000000000000000000006040518263ffffffff1660e01b81526004018080706c69717569646174696f6e456e67696e6560781b815250602001826001600160a01b03166001600160a01b03168152602001915050600060405180830381600087803b158015611bf757600080fd5b505af1158015611c0b573d6000803e3d6000fd5b505050507f00000000000000000000000000000000000000000000000000000000000000006001600160a01b0316636614f0107f00000000000000000000000000000000000000000000000000000000000000006040518263ffffffff1660e01b815260040180806f6163636f756e74696e67456e67696e6560801b815250602001826001600160a01b03166001600160a01b03168152602001915050600060405180830381600087803b158015611cc257600080fd5b505af1158015611cd6573d6000803e3d6000fd5b505050507f00000000000000000000000000000000000000000000000000000000000000006001600160a01b0316636614f0107f00000000000000000000000000000000000000000000000000000000000000006040518263ffffffff1660e01b815260040180806c37b930b1b632a932b630bcb2b960991b815250602001826001600160a01b03166001600160a01b03168152602001915050600060405180830381600087803b158015611d8a57600080fd5b505af1158015611d9e573d6000803e3d6000fd5b5050507f00000000000000000000000000000000000000000000000000000000000000006001600160a01b0316159050611ea0577f00000000000000000000000000000000000000000000000000000000000000006001600160a01b0316636614f0107f00000000000000000000000000000000000000000000000000000000000000006040518263ffffffff1660e01b815260040180807118dbda5b94d85d9a5b99dcd058d8dbdd5b9d60721b815250602001826001600160a01b03166001600160a01b03168152602001915050600060405180830381600087803b158015611e8757600080fd5b505af1158015611e9b573d6000803e3d6000fd5b505050505b7f00000000000000000000000000000000000000000000000000000000000000006001600160a01b031615611f9f577f00000000000000000000000000000000000000000000000000000000000000006001600160a01b0316636614f0107f00000000000000000000000000000000000000000000000000000000000000006040518263ffffffff1660e01b815260040180807373746162696c697479466565547265617375727960601b815250602001826001600160a01b03166001600160a01b03168152602001915050600060405180830381600087803b158015611f8657600080fd5b505af1158015611f9a573d6000803e3d6000fd5b505050505b7f00000000000000000000000000000000000000000000000000000000000000006001600160a01b03166335b281537f00000000000000000000000000000000000000000000000000000000000000006040518263ffffffff1660e01b815260040180826001600160a01b03166001600160a01b03168152602001915050600060405180830381600087803b15801561203757600080fd5b505af115801561204b573d6000803e3d6000fd5b505050507f00000000000000000000000000000000000000000000000000000000000000006001600160a01b03166335b281537f00000000000000000000000000000000000000000000000000000000000000006040518263ffffffff1660e01b815260040180826001600160a01b03166001600160a01b03168152602001915050600060405180830381600087803b1580156120e757600080fd5b505af11580156120fb573d6000803e3d6000fd5b505050507f00000000000000000000000000000000000000000000000000000000000000006001600160a01b03166335b281537f00000000000000000000000000000000000000000000000000000000000000006040518263ffffffff1660e01b815260040180826001600160a01b03166001600160a01b03168152602001915050600060405180830381600087803b15801561219757600080fd5b505af11580156121ab573d6000803e3d6000fd5b505050507f00000000000000000000000000000000000000000000000000000000000000006001600160a01b03166335b281537f00000000000000000000000000000000000000000000000000000000000000006040518263ffffffff1660e01b815260040180826001600160a01b03166001600160a01b03168152602001915050600060405180830381600087803b15801561224757600080fd5b505af115801561225b573d6000803e3d6000fd5b5050507f00000000000000000000000000000000000000000000000000000000000000006001600160a01b0316159050612340577f00000000000000000000000000000000000000000000000000000000000000006001600160a01b03166335b281537f00000000000000000000000000000000000000000000000000000000000000006040518263ffffffff1660e01b815260040180826001600160a01b03166001600160a01b03168152602001915050600060405180830381600087803b15801561232757600080fd5b505af115801561233b573d6000803e3d6000fd5b505050505b7f00000000000000000000000000000000000000000000000000000000000000006001600160a01b031615612420577f00000000000000000000000000000000000000000000000000000000000000006001600160a01b03166335b281537f00000000000000000000000000000000000000000000000000000000000000006040518263ffffffff1660e01b815260040180826001600160a01b03166001600160a01b03168152602001915050600060405180830381600087803b15801561240757600080fd5b505af115801561241b573d6000803e3d6000fd5b505050505b7f00000000000000000000000000000000000000000000000000000000000000006001600160a01b03166335b281537f00000000000000000000000000000000000000000000000000000000000000006040518263ffffffff1660e01b815260040180826001600160a01b03166001600160a01b03168152602001915050600060405180830381600087803b1580156124b857600080fd5b505af11580156124cc573d6000803e3d6000fd5b505060408051630fe4f58960e41b81526e616c6c526561646572546f67676c6560881b60048201526001602482015290516001600160a01b037f000000000000000000000000000000000000000000000000000000000000000016935063fe4f58909250604480830192600092919082900301818387803b15801561255057600080fd5b505af1158015612564573d6000803e3d6000fd5b505050507f00000000000000000000000000000000000000000000000000000000000000006001600160a01b03166335b281537f00000000000000000000000000000000000000000000000000000000000000006040518263ffffffff1660e01b815260040180826001600160a01b03166001600160a01b03168152602001915050600060405180830381600087803b15801561260057600080fd5b505af1158015612614573d6000803e3d6000fd5b505050507f00000000000000000000000000000000000000000000000000000000000000006001600160a01b0316633d285a6f7f000000000000000000000000000000000000000000000000000000000000000060c86040518363ffffffff1660e01b815260040180836001600160a01b03166001600160a01b0316815260200182815260200192505050600060405180830381600087803b1580156126b957600080fd5b505af11580156126cd573d6000803e3d6000fd5b505050507f00000000000000000000000000000000000000000000000000000000000000006001600160a01b03166343e9c6b07f00000000000000000000000000000000000000000000000000000000000000006000196040518363ffffffff1660e01b815260040180836001600160a01b03166001600160a01b0316815260200182815260200192505050600060405180830381600087803b15801561277357600080fd5b505af1158015612787573d6000803e3d6000fd5b505060408051630fe4f58960e41b8152756d6178526577617264496e63726561736544656c617960501b6004820152615460602482015290516001600160a01b037f000000000000000000000000000000000000000000000000000000000000000016935063fe4f58909250604480830192600092919082900301818387803b15801561281357600080fd5b505af1158015612827573d6000803e3d6000fd5b5050604080516394f3f81d60e01b815260008051602061322e833981519152600482015290516001600160a01b037f00000000000000000000000000000000000000000000000000000000000000001693506394f3f81d9250602480830192600092919082900301818387803b1580156128a057600080fd5b505af11580156128b4573d6000803e3d6000fd5b5050604080516394f3f81d60e01b815260008051602061322e833981519152600482015290516001600160a01b037f00000000000000000000000000000000000000000000000000000000000000001693506394f3f81d9250602480830192600092919082900301818387803b15801561292d57600080fd5b505af1158015612941573d6000803e3d6000fd5b5050604080516394f3f81d60e01b815260008051602061322e833981519152600482015290516001600160a01b037f00000000000000000000000000000000000000000000000000000000000000001693506394f3f81d9250602480830192600092919082900301818387803b1580156129ba57600080fd5b505af11580156129ce573d6000803e3d6000fd5b5050604080516394f3f81d60e01b815260008051602061322e833981519152600482015290516001600160a01b037f00000000000000000000000000000000000000000000000000000000000000001693506394f3f81d9250602480830192600092919082900301818387803b158015612a4757600080fd5b505af1158015612a5b573d6000803e3d6000fd5b5050604080516394f3f81d60e01b815260008051602061322e833981519152600482015290516001600160a01b037f00000000000000000000000000000000000000000000000000000000000000001693506394f3f81d9250602480830192600092919082900301818387803b158015612ad457600080fd5b505af1158015612ae8573d6000803e3d6000fd5b5050507f00000000000000000000000000000000000000000000000000000000000000006001600160a01b0316159050612baa57604080516394f3f81d60e01b815260008051602061322e833981519152600482015290516001600160a01b037f000000000000000000000000000000000000000000000000000000000000000016916394f3f81d91602480830192600092919082900301818387803b158015612b9157600080fd5b505af1158015612ba5573d6000803e3d6000fd5b505050505b604080516394f3f81d60e01b815260008051602061322e833981519152600482015290516001600160a01b037f000000000000000000000000000000000000000000000000000000000000000016916394f3f81d91602480830192600092919082900301818387803b158015612c1f57600080fd5b505af1158015612c33573d6000803e3d6000fd5b5050604080516394f3f81d60e01b815260008051602061322e833981519152600482015290516001600160a01b037f00000000000000000000000000000000000000000000000000000000000000001693506394f3f81d9250602480830192600092919082900301818387803b158015612cac57600080fd5b505af1158015612cc0573d6000803e3d6000fd5b5050604080516394f3f81d60e01b815260008051602061322e833981519152600482015290516001600160a01b037f00000000000000000000000000000000000000000000000000000000000000001693506394f3f81d9250602480830192600092919082900301818387803b158015612d3957600080fd5b505af1158015612d4d573d6000803e3d6000fd5b5050604080516394f3f81d60e01b815260008051602061322e833981519152600482015290516001600160a01b037f00000000000000000000000000000000000000000000000000000000000000001693506394f3f81d9250602480830192600092919082900301818387803b158015612dc657600080fd5b505af1158015612dda573d6000803e3d6000fd5b5050604080516394f3f81d60e01b815260008051602061322e833981519152600482015290516001600160a01b037f00000000000000000000000000000000000000000000000000000000000000001693506394f3f81d9250602480830192600092919082900301818387803b158015612e5357600080fd5b505af1158015612e67573d6000803e3d6000fd5b5050604080516394f3f81d60e01b815260008051602061322e833981519152600482015290516001600160a01b037f00000000000000000000000000000000000000000000000000000000000000001693506394f3f81d9250602480830192600092919082900301818387803b158015612ee057600080fd5b505af1158015612ef4573d6000803e3d6000fd5b5050604080516394f3f81d60e01b815260008051602061322e833981519152600482015290516001600160a01b037f00000000000000000000000000000000000000000000000000000000000000001693506394f3f81d9250602480830192600092919082900301818387803b158015612f6d57600080fd5b505af1158015612f81573d6000803e3d6000fd5b505060408051630d544e0160e41b815260008051602061322e833981519152600482015290516001600160a01b037f000000000000000000000000000000000000000000000000000000000000000016935063d544e0109250602480830192600092919082900301818387803b158015612ffa57600080fd5b505af115801561300e573d6000803e3d6000fd5b5050604080516394f3f81d60e01b815260008051602061322e833981519152600482015290516001600160a01b037f00000000000000000000000000000000000000000000000000000000000000001693506394f3f81d9250602480830192600092919082900301818387803b15801561308757600080fd5b505af115801561309b573d6000803e3d6000fd5b5050604080516394f3f81d60e01b815260008051602061322e833981519152600482015290516001600160a01b037f00000000000000000000000000000000000000000000000000000000000000001693506394f3f81d9250602480830192600092919082900301818387803b15801561311457600080fd5b505af1158015613128573d6000803e3d6000fd5b505050507f00000000000000000000000000000000000000000000000000000000000000006001600160a01b031663e177246e60006040518263ffffffff1660e01b815260040180828152602001915050600060405180830381600087803b15801561319357600080fd5b505af11580156131a7573d6000803e3d6000fd5b5050604080516313af403560e01b81526003600482015290516001600160a01b037f00000000000000000000000000000000000000000000000000000000000000001693506313af40359250602480830192600092919082900301818387803b15801561321357600080fd5b505af1158015613227573d6000803e3d6000fd5b5050505056fe000000000000000000000000f39fd6e51aad88f6f4ce6ab8827279cfffb92266a26469706673582212206c74119b132b949d9abcfb117c92c7663b71cf2c2b9de2235a8ec52fba9587a564736f6c63430006070033",
        "linkReferences": {}
    },
    "methodIdentifiers": {
        "setup()": "ba0bba40",
        "setupCollateral(bytes32,address,address,address,uint256,uint256,uint256,uint256,uint256,uint256)": "7f49ccfc"
    },
    "id": 56
}