{
    "abi": [
        {
            "anonymous": false,
            "inputs": [
                {
                    "indexed": false,
                    "internalType": "string",
                    "name": "key",
                    "type": "string"
                },
                {
                    "indexed": false,
                    "internalType": "address",
                    "name": "val",
                    "type": "address"
                }
            ],
            "name": "log_named_address",
            "type": "event"
        },
        {
            "inputs": [
                {
                    "internalType": "string",
                    "name": "",
                    "type": "string"
                }
            ],
            "name": "addr",
            "outputs": [
                {
                    "internalType": "address",
                    "name": "",
                    "type": "address"
                }
            ],
            "stateMutability": "view",
            "type": "function"
        },
        {
            "inputs": [
                {
                    "internalType": "uint256",
                    "name": "",
                    "type": "uint256"
                }
            ],
            "name": "addressList",
            "outputs": [
                {
                    "internalType": "string",
                    "name": "",
                    "type": "string"
                }
            ],
            "stateMutability": "view",
            "type": "function"
        },
        {
            "inputs": [],
            "name": "addressListLength",
            "outputs": [
                {
                    "internalType": "uint256",
                    "name": "",
                    "type": "uint256"
                }
            ],
            "stateMutability": "view",
            "type": "function"
        }
    ],
    "bytecode": {
        "object": "0x608060405234801561001057600080fd5b506102db806100206000396000f3fe608060405234801561001057600080fd5b50600436106100415760003560e01c8063511b1df914610046578063b810fb431461006f578063d63044381461008f575b600080fd5b610059610054366004610176565b6100a4565b6040516100669190610229565b60405180910390f35b61008261007d366004610211565b6100ca565b604051610066919061023d565b610097610170565b6040516100669190610290565b80516020818301810180516000825292820191909301209152546001600160a01b031681565b600181815481106100d757fe5b600091825260209182902001805460408051601f60026000196101006001871615020190941693909304928301859004850281018501909152818152935090918301828280156101685780601f1061013d57610100808354040283529160200191610168565b820191906000526020600020905b81548152906001019060200180831161014b57829003601f168201915b505050505081565b60015490565b600060208284031215610187578081fd5b813567ffffffffffffffff8082111561019e578283fd5b81840185601f8201126101af578384fd5b80359250818311156101bf578384fd5b604051601f8401601f1916810160200183811182821017156101df578586fd5b6040528381528184016020018710156101f6578485fd5b610207846020830160208501610299565b9695505050505050565b600060208284031215610222578081fd5b5035919050565b6001600160a01b0391909116815260200190565b6000602080835283518082850152825b818110156102695785810183015185820160400152820161024d565b8181111561027a5783604083870101525b50601f01601f1916929092016040019392505050565b90815260200190565b8281833750600091015256fea26469706673582212207f3eedc81d426afccbc92705bd38f2237965680a3815a22a67736728f9b2836f64736f6c63430006070033",
        "linkReferences": {}
    },
    "methodIdentifiers": {
        "addr(string)": "511b1df9",
        "addressList(uint256)": "b810fb43",
        "addressListLength()": "d6304438"
    },
    "id": 54
}