{
    "abi": [
        {
            "inputs": [
                {
                    "internalType": "address",
                    "name": "safeEngine_",
                    "type": "address"
                },
                {
                    "internalType": "address",
                    "name": "surplusAuctionHouse_",
                    "type": "address"
                },
                {
                    "internalType": "address",
                    "name": "debtAuctionHouse_",
                    "type": "address"
                }
            ],
            "stateMutability": "nonpayable",
            "type": "constructor"
        },
        {
            "anonymous": false,
            "inputs": [
                {
                    "indexed": false,
                    "internalType": "address",
                    "name": "account",
                    "type": "address"
                }
            ],
            "name": "AddAuthorization",
            "type": "event"
        },
        {
            "anonymous": false,
            "inputs": [
                {
                    "indexed": true,
                    "internalType": "uint256",
                    "name": "id",
                    "type": "uint256"
                },
                {
                    "indexed": false,
                    "internalType": "uint256",
                    "name": "totalOnAuctionDebt",
                    "type": "uint256"
                },
                {
                    "indexed": false,
                    "internalType": "uint256",
                    "name": "debtBalance",
                    "type": "uint256"
                }
            ],
            "name": "AuctionDebt",
            "type": "event"
        },
        {
            "anonymous": false,
            "inputs": [
                {
                    "indexed": true,
                    "internalType": "uint256",
                    "name": "id",
                    "type": "uint256"
                },
                {
                    "indexed": false,
                    "internalType": "uint256",
                    "name": "lastSurplusAuctionTime",
                    "type": "uint256"
                },
                {
                    "indexed": false,
                    "internalType": "uint256",
                    "name": "coinBalance",
                    "type": "uint256"
                }
            ],
            "name": "AuctionSurplus",
            "type": "event"
        },
        {
            "anonymous": false,
            "inputs": [
                {
                    "indexed": false,
                    "internalType": "uint256",
                    "name": "rad",
                    "type": "uint256"
                },
                {
                    "indexed": false,
                    "internalType": "uint256",
                    "name": "totalOnAuctionDebt",
                    "type": "uint256"
                },
                {
                    "indexed": false,
                    "internalType": "uint256",
                    "name": "coinBalance",
                    "type": "uint256"
                },
                {
                    "indexed": false,
                    "internalType": "uint256",
                    "name": "debtBalance",
                    "type": "uint256"
                }
            ],
            "name": "CancelAuctionedDebtWithSurplus",
            "type": "event"
        },
        {
            "anonymous": false,
            "inputs": [
                {
                    "indexed": false,
                    "internalType": "uint256",
                    "name": "disableTimestamp",
                    "type": "uint256"
                },
                {
                    "indexed": false,
                    "internalType": "uint256",
                    "name": "disableCooldown",
                    "type": "uint256"
                },
                {
                    "indexed": false,
                    "internalType": "uint256",
                    "name": "coinBalance",
                    "type": "uint256"
                },
                {
                    "indexed": false,
                    "internalType": "uint256",
                    "name": "debtBalance",
                    "type": "uint256"
                }
            ],
            "name": "DisableContract",
            "type": "event"
        },
        {
            "anonymous": false,
            "inputs": [
                {
                    "indexed": true,
                    "internalType": "bytes32",
                    "name": "parameter",
                    "type": "bytes32"
                },
                {
                    "indexed": false,
                    "internalType": "uint256",
                    "name": "data",
                    "type": "uint256"
                }
            ],
            "name": "ModifyParameters",
            "type": "event"
        },
        {
            "anonymous": false,
            "inputs": [
                {
                    "indexed": true,
                    "internalType": "bytes32",
                    "name": "parameter",
                    "type": "bytes32"
                },
                {
                    "indexed": false,
                    "internalType": "address",
                    "name": "data",
                    "type": "address"
                }
            ],
            "name": "ModifyParameters",
            "type": "event"
        },
        {
            "anonymous": false,
            "inputs": [
                {
                    "indexed": true,
                    "internalType": "uint256",
                    "name": "timestamp",
                    "type": "uint256"
                },
                {
                    "indexed": false,
                    "internalType": "uint256",
                    "name": "debtQueueBlock",
                    "type": "uint256"
                },
                {
                    "indexed": false,
                    "internalType": "uint256",
                    "name": "totalQueuedDebt",
                    "type": "uint256"
                }
            ],
            "name": "PopDebtFromQueue",
            "type": "event"
        },
        {
            "anonymous": false,
            "inputs": [
                {
                    "indexed": true,
                    "internalType": "uint256",
                    "name": "timestamp",
                    "type": "uint256"
                },
                {
                    "indexed": false,
                    "internalType": "uint256",
                    "name": "debtQueueBlock",
                    "type": "uint256"
                },
                {
                    "indexed": false,
                    "internalType": "uint256",
                    "name": "totalQueuedDebt",
                    "type": "uint256"
                }
            ],
            "name": "PushDebtToQueue",
            "type": "event"
        },
        {
            "anonymous": false,
            "inputs": [
                {
                    "indexed": false,
                    "internalType": "address",
                    "name": "account",
                    "type": "address"
                }
            ],
            "name": "RemoveAuthorization",
            "type": "event"
        },
        {
            "anonymous": false,
            "inputs": [
                {
                    "indexed": false,
                    "internalType": "uint256",
                    "name": "rad",
                    "type": "uint256"
                },
                {
                    "indexed": false,
                    "internalType": "uint256",
                    "name": "coinBalance",
                    "type": "uint256"
                },
                {
                    "indexed": false,
                    "internalType": "uint256",
                    "name": "debtBalance",
                    "type": "uint256"
                }
            ],
            "name": "SettleDebt",
            "type": "event"
        },
        {
            "anonymous": false,
            "inputs": [
                {
                    "indexed": true,
                    "internalType": "address",
                    "name": "extraSurplusReceiver",
                    "type": "address"
                },
                {
                    "indexed": false,
                    "internalType": "uint256",
                    "name": "lastSurplusAuctionTime",
                    "type": "uint256"
                },
                {
                    "indexed": false,
                    "internalType": "uint256",
                    "name": "coinBalance",
                    "type": "uint256"
                }
            ],
            "name": "TransferExtraSurplus",
            "type": "event"
        },
        {
            "anonymous": false,
            "inputs": [
                {
                    "indexed": false,
                    "internalType": "address",
                    "name": "postSettlementSurplusDrain",
                    "type": "address"
                },
                {
                    "indexed": false,
                    "internalType": "uint256",
                    "name": "coinBalance",
                    "type": "uint256"
                },
                {
                    "indexed": false,
                    "internalType": "uint256",
                    "name": "debtBalance",
                    "type": "uint256"
                }
            ],
            "name": "TransferPostSettlementSurplus",
            "type": "event"
        },
        {
            "inputs": [
                {
                    "internalType": "address",
                    "name": "account",
                    "type": "address"
                }
            ],
            "name": "addAuthorization",
            "outputs": [],
            "stateMutability": "nonpayable",
            "type": "function"
        },
        {
            "inputs": [],
            "name": "auctionDebt",
            "outputs": [
                {
                    "internalType": "uint256",
                    "name": "id",
                    "type": "uint256"
                }
            ],
            "stateMutability": "nonpayable",
            "type": "function"
        },
        {
            "inputs": [],
            "name": "auctionSurplus",
            "outputs": [
                {
                    "internalType": "uint256",
                    "name": "id",
                    "type": "uint256"
                }
            ],
            "stateMutability": "nonpayable",
            "type": "function"
        },
        {
            "inputs": [
                {
                    "internalType": "address",
                    "name": "",
                    "type": "address"
                }
            ],
            "name": "authorizedAccounts",
            "outputs": [
                {
                    "internalType": "uint256",
                    "name": "",
                    "type": "uint256"
                }
            ],
            "stateMutability": "view",
            "type": "function"
        },
        {
            "inputs": [],
            "name": "canPrintProtocolTokens",
            "outputs": [
                {
                    "internalType": "bool",
                    "name": "",
                    "type": "bool"
                }
            ],
            "stateMutability": "view",
            "type": "function"
        },
        {
            "inputs": [
                {
                    "internalType": "uint256",
                    "name": "rad",
                    "type": "uint256"
                }
            ],
            "name": "cancelAuctionedDebtWithSurplus",
            "outputs": [],
            "stateMutability": "nonpayable",
            "type": "function"
        },
        {
            "inputs": [],
            "name": "contractEnabled",
            "outputs": [
                {
                    "internalType": "uint256",
                    "name": "",
                    "type": "uint256"
                }
            ],
            "stateMutability": "view",
            "type": "function"
        },
        {
            "inputs": [],
            "name": "debtAuctionBidSize",
            "outputs": [
                {
                    "internalType": "uint256",
                    "name": "",
                    "type": "uint256"
                }
            ],
            "stateMutability": "view",
            "type": "function"
        },
        {
            "inputs": [],
            "name": "debtAuctionHouse",
            "outputs": [
                {
                    "internalType": "contract DebtAuctionHouseLike",
                    "name": "",
                    "type": "address"
                }
            ],
            "stateMutability": "view",
            "type": "function"
        },
        {
            "inputs": [
                {
                    "internalType": "uint256",
                    "name": "",
                    "type": "uint256"
                }
            ],
            "name": "debtPoppers",
            "outputs": [
                {
                    "internalType": "address",
                    "name": "",
                    "type": "address"
                }
            ],
            "stateMutability": "view",
            "type": "function"
        },
        {
            "inputs": [
                {
                    "internalType": "uint256",
                    "name": "",
                    "type": "uint256"
                }
            ],
            "name": "debtQueue",
            "outputs": [
                {
                    "internalType": "uint256",
                    "name": "",
                    "type": "uint256"
                }
            ],
            "stateMutability": "view",
            "type": "function"
        },
        {
            "inputs": [],
            "name": "disableContract",
            "outputs": [],
            "stateMutability": "nonpayable",
            "type": "function"
        },
        {
            "inputs": [],
            "name": "disableCooldown",
            "outputs": [
                {
                    "internalType": "uint256",
                    "name": "",
                    "type": "uint256"
                }
            ],
            "stateMutability": "view",
            "type": "function"
        },
        {
            "inputs": [],
            "name": "disableTimestamp",
            "outputs": [
                {
                    "internalType": "uint256",
                    "name": "",
                    "type": "uint256"
                }
            ],
            "stateMutability": "view",
            "type": "function"
        },
        {
            "inputs": [],
            "name": "extraSurplusIsTransferred",
            "outputs": [
                {
                    "internalType": "uint256",
                    "name": "",
                    "type": "uint256"
                }
            ],
            "stateMutability": "view",
            "type": "function"
        },
        {
            "inputs": [],
            "name": "extraSurplusReceiver",
            "outputs": [
                {
                    "internalType": "address",
                    "name": "",
                    "type": "address"
                }
            ],
            "stateMutability": "view",
            "type": "function"
        },
        {
            "inputs": [],
            "name": "initialDebtAuctionMintedTokens",
            "outputs": [
                {
                    "internalType": "uint256",
                    "name": "",
                    "type": "uint256"
                }
            ],
            "stateMutability": "view",
            "type": "function"
        },
        {
            "inputs": [],
            "name": "lastSurplusAuctionTime",
            "outputs": [
                {
                    "internalType": "uint256",
                    "name": "",
                    "type": "uint256"
                }
            ],
            "stateMutability": "view",
            "type": "function"
        },
        {
            "inputs": [],
            "name": "lastSurplusTransferTime",
            "outputs": [
                {
                    "internalType": "uint256",
                    "name": "",
                    "type": "uint256"
                }
            ],
            "stateMutability": "view",
            "type": "function"
        },
        {
            "inputs": [
                {
                    "internalType": "bytes32",
                    "name": "parameter",
                    "type": "bytes32"
                },
                {
                    "internalType": "address",
                    "name": "data",
                    "type": "address"
                }
            ],
            "name": "modifyParameters",
            "outputs": [],
            "stateMutability": "nonpayable",
            "type": "function"
        },
        {
            "inputs": [
                {
                    "internalType": "bytes32",
                    "name": "parameter",
                    "type": "bytes32"
                },
                {
                    "internalType": "uint256",
                    "name": "data",
                    "type": "uint256"
                }
            ],
            "name": "modifyParameters",
            "outputs": [],
            "stateMutability": "nonpayable",
            "type": "function"
        },
        {
            "inputs": [],
            "name": "popDebtDelay",
            "outputs": [
                {
                    "internalType": "uint256",
                    "name": "",
                    "type": "uint256"
                }
            ],
            "stateMutability": "view",
            "type": "function"
        },
        {
            "inputs": [
                {
                    "internalType": "uint256",
                    "name": "debtBlockTimestamp",
                    "type": "uint256"
                }
            ],
            "name": "popDebtFromQueue",
            "outputs": [],
            "stateMutability": "nonpayable",
            "type": "function"
        },
        {
            "inputs": [],
            "name": "postSettlementSurplusDrain",
            "outputs": [
                {
                    "internalType": "address",
                    "name": "",
                    "type": "address"
                }
            ],
            "stateMutability": "view",
            "type": "function"
        },
        {
            "inputs": [],
            "name": "protocolTokenAuthority",
            "outputs": [
                {
                    "internalType": "contract ProtocolTokenAuthorityLike",
                    "name": "",
                    "type": "address"
                }
            ],
            "stateMutability": "view",
            "type": "function"
        },
        {
            "inputs": [
                {
                    "internalType": "uint256",
                    "name": "debtBlock",
                    "type": "uint256"
                }
            ],
            "name": "pushDebtToQueue",
            "outputs": [],
            "stateMutability": "nonpayable",
            "type": "function"
        },
        {
            "inputs": [
                {
                    "internalType": "address",
                    "name": "account",
                    "type": "address"
                }
            ],
            "name": "removeAuthorization",
            "outputs": [],
            "stateMutability": "nonpayable",
            "type": "function"
        },
        {
            "inputs": [],
            "name": "safeEngine",
            "outputs": [
                {
                    "internalType": "contract SAFEEngineLike",
                    "name": "",
                    "type": "address"
                }
            ],
            "stateMutability": "view",
            "type": "function"
        },
        {
            "inputs": [
                {
                    "internalType": "uint256",
                    "name": "rad",
                    "type": "uint256"
                }
            ],
            "name": "settleDebt",
            "outputs": [],
            "stateMutability": "nonpayable",
            "type": "function"
        },
        {
            "inputs": [],
            "name": "surplusAuctionAmountToSell",
            "outputs": [
                {
                    "internalType": "uint256",
                    "name": "",
                    "type": "uint256"
                }
            ],
            "stateMutability": "view",
            "type": "function"
        },
        {
            "inputs": [],
            "name": "surplusAuctionDelay",
            "outputs": [
                {
                    "internalType": "uint256",
                    "name": "",
                    "type": "uint256"
                }
            ],
            "stateMutability": "view",
            "type": "function"
        },
        {
            "inputs": [],
            "name": "surplusAuctionHouse",
            "outputs": [
                {
                    "internalType": "contract SurplusAuctionHouseLike",
                    "name": "",
                    "type": "address"
                }
            ],
            "stateMutability": "view",
            "type": "function"
        },
        {
            "inputs": [],
            "name": "surplusBuffer",
            "outputs": [
                {
                    "internalType": "uint256",
                    "name": "",
                    "type": "uint256"
                }
            ],
            "stateMutability": "view",
            "type": "function"
        },
        {
            "inputs": [],
            "name": "surplusTransferAmount",
            "outputs": [
                {
                    "internalType": "uint256",
                    "name": "",
                    "type": "uint256"
                }
            ],
            "stateMutability": "view",
            "type": "function"
        },
        {
            "inputs": [],
            "name": "surplusTransferDelay",
            "outputs": [
                {
                    "internalType": "uint256",
                    "name": "",
                    "type": "uint256"
                }
            ],
            "stateMutability": "view",
            "type": "function"
        },
        {
            "inputs": [],
            "name": "systemStakingPool",
            "outputs": [
                {
                    "internalType": "contract SystemStakingPoolLike",
                    "name": "",
                    "type": "address"
                }
            ],
            "stateMutability": "view",
            "type": "function"
        },
        {
            "inputs": [],
            "name": "totalOnAuctionDebt",
            "outputs": [
                {
                    "internalType": "uint256",
                    "name": "",
                    "type": "uint256"
                }
            ],
            "stateMutability": "view",
            "type": "function"
        },
        {
            "inputs": [],
            "name": "totalQueuedDebt",
            "outputs": [
                {
                    "internalType": "uint256",
                    "name": "",
                    "type": "uint256"
                }
            ],
            "stateMutability": "view",
            "type": "function"
        },
        {
            "inputs": [],
            "name": "transferExtraSurplus",
            "outputs": [],
            "stateMutability": "nonpayable",
            "type": "function"
        },
        {
            "inputs": [],
            "name": "transferPostSettlementSurplus",
            "outputs": [],
            "stateMutability": "nonpayable",
            "type": "function"
        },
        {
            "inputs": [],
            "name": "unqueuedUnauctionedDebt",
            "outputs": [
                {
                    "internalType": "uint256",
                    "name": "",
                    "type": "uint256"
                }
            ],
            "stateMutability": "view",
            "type": "function"
        }
    ],
    "bytecode": {
        "object": "0x608060405234801561001057600080fd5b50604051620030c6380380620030c68339818101604052606081101561003557600080fd5b5080516020808301516040938401513360009081529283905284832060019081905580546001600160a01b038087166001600160a01b03199283161792839055600280548287169084168117909155600380548387169416939093179092558751631b29a84160e31b815260048101929092529651959693959294919093169263d94d4208926024808301939282900301818387803b1580156100d757600080fd5b505af11580156100eb573d6000803e3d6000fd5b505042600c819055600d55505060016019556040805133815290517f599a298163e1678bb1c676052a8930bf0b8a1261ed6e01b8a2391e55f70001029181900360200190a1505050612f8380620001436000396000f3fe608060405234801561001057600080fd5b50600436106102535760003560e01c8063793d914911610146578063cc54f5e8116100c3578063d8872aeb11610087578063d8872aeb146104b0578063f27c3562146104b8578063fa8838af146104c0578063fc7966de146104c8578063fe4f5890146104d0578063ff713a9f146104f357610253565b8063cc54f5e814610474578063cdacaaca1461047c578063d405665514610484578063d6881367146104a0578063d72f0e43146104a857610253565b8063a4ea79441161010a578063a4ea794414610422578063a71036871461042a578063a8b30a9f14610447578063b39f841c14610464578063c41f55a01461046c57610253565b8063793d9149146103c7578063894ba833146103cf5780638b24dc3e146103d757806394f3f81d146103f4578063a34231de1461041a57610253565b80633dc4ab1d116101d45780635221e882116101985780635221e8821461037b5780635dabda40146103835780635fb9340c1461038b5780636614f0101461039357806367aea313146103bf57610253565b80633dc4ab1d1461032257806341b3a0d91461033f57806344e330c414610347578063492f9b3a1461034f5780634e6afb9e1461035757610253565b80632d09f11d1161021b5780632d09f11d146102c757806335b28153146102cf57806337b7eca1146102f55780633977a319146102fd5780633d2fa89b1461031a57610253565b80630502cddc146102585780630f44d6bd1461027257806324ba58841461027a57806327a0bb33146102a05780632a608d5b146102bf575b600080fd5b6102606104fb565b60408051918252519081900360200190f35b610260610501565b6102606004803603602081101561029057600080fd5b50356001600160a01b0316610507565b6102bd600480360360208110156102b657600080fd5b5035610519565b005b6102606107ab565b6102606107b1565b6102bd600480360360208110156102e557600080fd5b50356001600160a01b03166107b7565b610260610898565b6102606004803603602081101561031357600080fd5b503561089e565b6102606108b0565b6102bd6004803603602081101561033857600080fd5b5035610d37565b610260610fde565b6102bd610fe4565b6102606113e7565b61035f6113ed565b604080516001600160a01b039092168252519081900360200190f35b6102606113fc565b610260611402565b610260611408565b6102bd600480360360408110156103a957600080fd5b50803590602001356001600160a01b031661140e565b61035f61178a565b610260611799565b6102bd61179f565b6102bd600480360360208110156103ed57600080fd5b5035611b8f565b6102bd6004803603602081101561040a57600080fd5b50356001600160a01b0316611ccd565b61035f611d6c565b610260611d7b565b61035f6004803603602081101561044057600080fd5b5035611d81565b6102bd6004803603602081101561045d57600080fd5b5035611d9c565b61035f611e78565b610260611e87565b61035f611e8d565b61035f611e9c565b61048c611eab565b604080519115158252519081900360200190f35b61035f611f7d565b610260611f8c565b610260611f92565b610260612024565b6102bd61202a565b6102606123a6565b6102bd600480360360408110156104e657600080fd5b50803590602001356123ac565b6102606126a8565b60125481565b600b5481565b60006020819052908152604090205481565b60015460408051633eaf7a0360e21b815230600482015290516001600160a01b039092169163fabde80c91602480820192602092909190829003018186803b15801561056457600080fd5b505afa158015610578573d6000803e3d6000fd5b505050506040513d602081101561058e57600080fd5b50518111156105ce5760405162461bcd60e51b8152600401808060200182810382526025815260200180612c606025913960400191505060405180910390fd5b6105d6611f92565b8111156106145760405162461bcd60e51b8152600401808060200182810382526022815260200180612d4e6022913960400191505060405180910390fd5b600154604080516327a0bb3360e01b81526004810184905290516001600160a01b03909216916327a0bb339160248082019260009290919082900301818387803b15801561066157600080fd5b505af1158015610675573d6000803e3d6000fd5b505060015460408051633eaf7a0360e21b815230600482015290517faa3cda6ae2bb6ad9e5234a74ba9fede531dec740965eafd0b7ac9d3b90443f8694508593506001600160a01b039092169163fabde80c91602480820192602092909190829003018186803b1580156106e857600080fd5b505afa1580156106fc573d6000803e3d6000fd5b505050506040513d602081101561071257600080fd5b5051600154604080516311005b0760e01b815230600482015290516001600160a01b03909216916311005b0791602480820192602092909190829003018186803b15801561075f57600080fd5b505afa158015610773573d6000803e3d6000fd5b505050506040513d602081101561078957600080fd5b505160408051938452602084019290925282820152519081900360600190a150565b60165481565b600a5481565b336000908152602081905260409020546001146108055760405162461bcd60e51b8152600401808060200182810382526027815260200180612cff6027913960400191505060405180910390fd5b6019546001146108465760405162461bcd60e51b8152600401808060200182810382526025815260200180612dfc6025913960400191505060405180910390fd5b6001600160a01b0381166000818152602081815260409182902060019055815192835290517f599a298163e1678bb1c676052a8930bf0b8a1261ed6e01b8a2391e55f70001029281900390910190a150565b600f5481565b60086020526000908152604090205481565b60006108ba611f92565b60125411156108fa5760405162461bcd60e51b8152600401808060200182810382526022815260200180612d4e6022913960400191505060405180910390fd5b60015460408051633eaf7a0360e21b81523060048201529051610977926001600160a01b03169163fabde80c916024808301926020929190829003018186803b15801561094657600080fd5b505afa15801561095a573d6000803e3d6000fd5b505050506040513d602081101561097057600080fd5b5051610519565b60015460408051633eaf7a0360e21b815230600482015290516001600160a01b039092169163fabde80c91602480820192602092909190829003018186803b1580156109c257600080fd5b505afa1580156109d6573d6000803e3d6000fd5b505050506040513d60208110156109ec57600080fd5b505115610a2a5760405162461bcd60e51b8152600401808060200182810382526021815260200180612cb46021913960400191505060405180910390fd5b60035460408051631a465fe160e01b815290516000926001600160a01b031691631a465fe1916004808301926020929190829003018186803b158015610a6f57600080fd5b505afa158015610a83573d6000803e3d6000fd5b505050506040513d6020811015610a9957600080fd5b50516001600160a01b03161415610ae15760405162461bcd60e51b815260040180806020018281038252602d815260200180612d70602d913960400191505060405180910390fd5b600480546003546040805163092e962160e21b81526001600160a01b0392831694810194909452519116916324ba5884916024808301926020929190829003018186803b158015610b3157600080fd5b505afa158015610b45573d6000803e3d6000fd5b505050506040513d6020811015610b5b57600080fd5b5051600114610b9b5760405162461bcd60e51b8152600401808060200182810382526035815260200180612f196035913960400191505060405180910390fd5b610ba3611eab565b610bde5760405162461bcd60e51b815260040180806020018281038252602d815260200180612dcf602d913960400191505060405180910390fd5b610bec600b54601254612ad3565b600b55600354601154601254604080516356dd475560e01b815230600482015260248101939093526044830191909152516001600160a01b03909216916356dd4755916064808201926020929091908290030181600087803b158015610c5157600080fd5b505af1158015610c65573d6000803e3d6000fd5b505050506040513d6020811015610c7b57600080fd5b5051600b54600154604080516311005b0760e01b8152306004820152905193945084937fa92a5e554d2e8bfa74170e5591680f0c7eb5e56c545c5f53e253500e50d6d52d93926001600160a01b0316916311005b07916024808301926020929190829003018186803b158015610cf057600080fd5b505afa158015610d04573d6000803e3d6000fd5b505050506040513d6020811015610d1a57600080fd5b50516040805192835260208301919091528051918290030190a290565b600b54811115610d785760405162461bcd60e51b8152600401808060200182810382526030815260200180612bd36030913960400191505060405180910390fd5b60015460408051633eaf7a0360e21b815230600482015290516001600160a01b039092169163fabde80c91602480820192602092909190829003018186803b158015610dc357600080fd5b505afa158015610dd7573d6000803e3d6000fd5b505050506040513d6020811015610ded57600080fd5b5051811115610e2d5760405162461bcd60e51b8152600401808060200182810382526025815260200180612c606025913960400191505060405180910390fd5b610e39600b5482612b31565b600b55600154604080516327a0bb3360e01b81526004810184905290516001600160a01b03909216916327a0bb339160248082019260009290919082900301818387803b158015610e8957600080fd5b505af1158015610e9d573d6000803e3d6000fd5b5050600b5460015460408051633eaf7a0360e21b815230600482015290517f5849130fd802a9386171d8d3f31c08fc5cf9b28821d86508afd88cb065a2af6f95508694506001600160a01b039092169163fabde80c91602480820192602092909190829003018186803b158015610f1357600080fd5b505afa158015610f27573d6000803e3d6000fd5b505050506040513d6020811015610f3d57600080fd5b5051600154604080516311005b0760e01b815230600482015290516001600160a01b03909216916311005b0791602480820192602092909190829003018186803b158015610f8a57600080fd5b505afa158015610f9e573d6000803e3d6000fd5b505050506040513d6020811015610fb457600080fd5b5051604080519485526020850193909352838301919091526060830152519081900360800190a150565b60195481565b6013546001146110255760405162461bcd60e51b815260040180806020018281038252602d815260200180612ebc602d913960400191505060405180910390fd5b6007546001600160a01b031661106c5760405162461bcd60e51b8152600401808060200182810382526026815260200180612e216026913960400191505060405180910390fd5b6000601554116110ad5760405162461bcd60e51b8152600401808060200182810382526028815260200180612d266028913960400191505060405180910390fd5b6110bd6110b8611f92565b610519565b6110cb600d54600f54612ad3565b4210156111095760405162461bcd60e51b8152600401808060200182810382526032815260200180612d9d6032913960400191505060405180910390fd5b600154604080516311005b0760e01b8152306004820152905161119892611190926001600160a01b03909116916311005b0791602480820192602092909190829003018186803b15801561115c57600080fd5b505afa158015611170573d6000803e3d6000fd5b505050506040513d602081101561118657600080fd5b5051601554612ad3565b601654612ad3565b60015460408051633eaf7a0360e21b815230600482015290516001600160a01b039092169163fabde80c91602480820192602092909190829003018186803b1580156111e357600080fd5b505afa1580156111f7573d6000803e3d6000fd5b505050506040513d602081101561120d57600080fd5b5051101561124c5760405162461bcd60e51b8152600401808060200182810382526025815260200180612c606025913960400191505060405180910390fd5b611254611f92565b156112a6576040805162461bcd60e51b815260206004820152601e60248201527f4163636f756e74696e67456e67696e652f646562742d6e6f742d7a65726f0000604482015290519081900360640190fd5b42600d819055600c5560015460075460155460408051633beaf2b760e21b81523060048201526001600160a01b039384166024820152604481019290925251919092169163efabcadc91606480830192600092919082900301818387803b15801561131057600080fd5b505af1158015611324573d6000803e3d6000fd5b5050600754600d5460015460408051633eaf7a0360e21b815230600482015290516001600160a01b0394851696507f09744986d27c373d65dbb8bf13661e8b68577739e9c4a77c5cd6f1682c009607955092939091169163fabde80c91602480820192602092909190829003018186803b1580156113a157600080fd5b505afa1580156113b5573d6000803e3d6000fd5b505050506040513d60208110156113cb57600080fd5b50516040805192835260208301919091528051918290030190a2565b60185481565b6007546001600160a01b031681565b60105481565b60135481565b60175481565b3360009081526020819052604090205460011461145c5760405162461bcd60e51b8152600401808060200182810382526027815260200180612cff6027913960400191505060405180910390fd5b8172737572706c757341756374696f6e486f75736560681b1415611563576001546002546040805163d49d786760e01b81526001600160a01b0392831660048201529051919092169163d49d786791602480830192600092919082900301818387803b1580156114cb57600080fd5b505af11580156114df573d6000803e3d6000fd5b5050600280546001600160a01b0319166001600160a01b0385811691821790925560015460408051631b29a84160e31b81526004810193909352519216935063d94d4208925060248082019260009290919082900301818387803b15801561154657600080fd5b505af115801561155a573d6000803e3d6000fd5b50505050611747565b81701cde5cdd195b54dd185ada5b99d41bdbdb607a1b141561160d57600580546001600160a01b0319166001600160a01b0383811691909117918290556040805163d405665560e01b81529051929091169163d405665591600480820192602092909190829003018186803b1580156115db57600080fd5b505afa1580156115ef573d6000803e3d6000fd5b505050506040513d602081101561160557600080fd5b506117479050565b816f6465627441756374696f6e486f75736560801b141561164857600380546001600160a01b0319166001600160a01b038316179055611747565b817f706f7374536574746c656d656e74537572706c7573447261696e000000000000141561169057600680546001600160a01b0319166001600160a01b038316179055611747565b817570726f746f636f6c546f6b656e417574686f7269747960501b14156116d157600480546001600160a01b0319166001600160a01b038316179055611747565b817332bc3a3930a9bab938363ab9a932b1b2b4bb32b960611b141561171057600780546001600160a01b0319166001600160a01b038316179055611747565b60405162461bcd60e51b815260040180806020018281038252602a815260200180612e6e602a913960400191505060405180910390fd5b604080516001600160a01b0383168152905183917fd91f38cf03346b5dc15fb60f9076f866295231ad3c3841a1051f8443f25170d1919081900360200190a25050565b6001546001600160a01b031681565b600e5481565b336000908152602081905260409020546001146117ed5760405162461bcd60e51b8152600401808060200182810382526027815260200180612cff6027913960400191505060405180910390fd5b60195460011461182e5760405162461bcd60e51b8152600401808060200182810382526025815260200180612dfc6025913960400191505060405180910390fd5b60006019819055600a819055600b819055426018556002546040805163894ba83360e01b815290516001600160a01b039092169263894ba8339260048084019382900301818387803b15801561188357600080fd5b505af1158015611897573d6000803e3d6000fd5b50505050600360009054906101000a90046001600160a01b03166001600160a01b031663894ba8336040518163ffffffff1660e01b8152600401600060405180830381600087803b1580156118eb57600080fd5b505af11580156118ff573d6000803e3d6000fd5b505060015460408051633eaf7a0360e21b815230600482015290516001600160a01b0390921693506327a0bb339250611a0191849163fabde80c916024808301926020929190829003018186803b15801561195957600080fd5b505afa15801561196d573d6000803e3d6000fd5b505050506040513d602081101561198357600080fd5b5051600154604080516311005b0760e01b815230600482015290516001600160a01b03909216916311005b0791602480820192602092909190829003018186803b1580156119d057600080fd5b505afa1580156119e4573d6000803e3d6000fd5b505050506040513d60208110156119fa57600080fd5b5051612b89565b6040518263ffffffff1660e01b815260040180828152602001915050600060405180830381600087803b158015611a3757600080fd5b505af1158015611a4b573d6000803e3d6000fd5b505060185460175460015460408051633eaf7a0360e21b815230600482015290517ff444c796746af83b62874bc1bcf111eee758f29e8abd5b66019e455649487b7e965093945091926001600160a01b039091169163fabde80c916024808301926020929190829003018186803b158015611ac557600080fd5b505afa158015611ad9573d6000803e3d6000fd5b505050506040513d6020811015611aef57600080fd5b5051600154604080516311005b0760e01b815230600482015290516001600160a01b03909216916311005b0791602480820192602092909190829003018186803b158015611b3c57600080fd5b505afa158015611b50573d6000803e3d6000fd5b505050506040513d6020811015611b6657600080fd5b5051604080519485526020850193909352838301919091526060830152519081900360800190a1565b42611b9c82601054612ad3565b1115611bd95760405162461bcd60e51b815260040180806020018281038252602a815260200180612cd5602a913960400191505060405180910390fd5b600081815260086020526040902054611c39576040805162461bcd60e51b815260206004820181905260248201527f4163636f756e74696e67456e67696e652f6e756c6c2d646562742d626c6f636b604482015290519081900360640190fd5b600a54600082815260086020526040902054611c559190612b31565b600a908155600082815260096020908152604080832080546001600160a01b031916331790556008825291829020549254825193845290830152805142927f2a88971df34f4b7d590e86d77e5db54859c030b27c51e944a3d9e1d2bc6dbb4192908290030190a2600090815260086020526040812055565b33600090815260208190526040902054600114611d1b5760405162461bcd60e51b8152600401808060200182810382526027815260200180612cff6027913960400191505060405180910390fd5b6001600160a01b03811660008181526020818152604080832092909255815192835290517f8834a87e641e9716be4f34527af5d23e11624f1ddeefede6ad75a9acfc31b9039281900390910190a150565b6005546001600160a01b031681565b60155481565b6009602052600090815260409020546001600160a01b031681565b33600090815260208190526040902054600114611dea5760405162461bcd60e51b8152600401808060200182810382526027815260200180612cff6027913960400191505060405180910390fd5b42600090815260086020526040902054611e049082612ad3565b42600090815260086020526040902055600a54611e219082612ad3565b600a8190554260008181526008602090815260409182902054825190815290810193909352805191927f1833b2803878de6a92dfb6a19b452e31ec63baad0fd2e1e341e0dce55e4ed207929081900390910190a250565b6003546001600160a01b031681565b600d5481565b6004546001600160a01b031681565b6002546001600160a01b031681565b6005546000906001600160a01b0316611ec657506001611f7a565b600560009054906101000a90046001600160a01b03166001600160a01b031663d40566556040518163ffffffff1660e01b815260040160206040518083038186803b158015611f1457600080fd5b505afa925050508015611f3957506040513d6020811015611f3457600080fd5b505160015b611f77573d808015611f67576040519150601f19603f3d011682016040523d82523d6000602084013e611f6c565b606091505b506001915050611f7a565b90505b90565b6006546001600160a01b031681565b600c5481565b600154604080516311005b0760e01b81523060048201529051600092611f779261201c926001600160a01b03909216916311005b0791602480820192602092909190829003018186803b158015611fe857600080fd5b505afa158015611ffc573d6000803e3d6000fd5b505050506040513d602081101561201257600080fd5b5051600a54612b31565b600b54612b31565b60145481565b6019541561207f576040805162461bcd60e51b815260206004820152601e60248201527f4163636f756e74696e67456e67696e652f7374696c6c2d656e61626c65640000604482015290519081900360640190fd5b4261208e601854601754612ad3565b11156120cb5760405162461bcd60e51b8152600401808060200182810382526024815260200180612e986024913960400191505060405180910390fd5b60015460408051633eaf7a0360e21b815230600482015290516001600160a01b03909216916327a0bb339161212191849163fabde80c916024808301926020929190829003018186803b15801561195957600080fd5b6040518263ffffffff1660e01b815260040180828152602001915050600060405180830381600087803b15801561215757600080fd5b505af115801561216b573d6000803e3d6000fd5b505060015460065460408051633eaf7a0360e21b8152306004820181905291516001600160a01b03948516965063efabcadc9550919390921691859163fabde80c91602480820192602092909190829003018186803b1580156121cd57600080fd5b505afa1580156121e1573d6000803e3d6000fd5b505050506040513d60208110156121f757600080fd5b5051604080516001600160e01b031960e087901b1681526001600160a01b03948516600482015292909316602483015260448201529051606480830192600092919082900301818387803b15801561224e57600080fd5b505af1158015612262573d6000803e3d6000fd5b505060065460015460408051633eaf7a0360e21b815230600482015290517f618b53208bc1d7a537afbb52ff1788ab48eaa72099e2cc87ed9a251a4029d17995506001600160a01b039384169450919092169163fabde80c916024808301926020929190829003018186803b1580156122da57600080fd5b505afa1580156122ee573d6000803e3d6000fd5b505050506040513d602081101561230457600080fd5b5051600154604080516311005b0760e01b815230600482015290516001600160a01b03909216916311005b0791602480820192602092909190829003018186803b15801561235157600080fd5b505afa158015612365573d6000803e3d6000fd5b505050506040513d602081101561237b57600080fd5b5051604080516001600160a01b039094168452602084019290925282820152519081900360600190a1565b60115481565b336000908152602081905260409020546001146123fa5760405162461bcd60e51b8152600401808060200182810382526027815260200180612cff6027913960400191505060405180910390fd5b8172737572706c757341756374696f6e44656c617960681b141561242257600e81905561266e565b8173737572706c75735472616e7366657244656c617960601b141561244b57600f81905561266e565b816b706f704465627444656c617960a01b141561246c57601081905561266e565b817f737572706c757341756374696f6e416d6f756e74546f53656c6c000000000000141561249e57601481905561266e565b81741cdd5c9c1b1d5cd51c985b9cd9995c905b5bdd5b9d605a1b14156124c857601581905561266e565b817f6578747261537572706c757349735472616e736665727265640000000000000014156124fa57601381905561266e565b81716465627441756374696f6e42696453697a6560701b141561252157601281905561266e565b817f696e697469616c4465627441756374696f6e4d696e746564546f6b656e730000141561255357601181905561266e565b816c39bab938363ab9a13ab33332b960991b141561257557601681905561266e565b817f6c617374537572706c75735472616e7366657254696d6500000000000000000014156125e5574281116125db5760405162461bcd60e51b8152600401808060200182810382526030815260200180612ba36030913960400191505060405180910390fd5b600d81905561266e565b81756c617374537572706c757341756374696f6e54696d6560501b141561264e574281116126445760405162461bcd60e51b815260040180806020018281038252602f815260200180612c85602f913960400191505060405180910390fd5b600c81905561266e565b816e3234b9b0b13632a1b7b7b63237bbb760891b14156117105760178190555b60408051828152905183917fac7c5c1afaef770ec56ac6268cd3f2fbb1035858ead2601d6553157c33036c3a919081900360200190a25050565b6000601354600114156126ec5760405162461bcd60e51b815260040180806020018281038252602c815260200180612c34602c913960400191505060405180910390fd5b60006014541161272d5760405162461bcd60e51b8152600401808060200182810382526027815260200180612e476027913960400191505060405180910390fd5b6127386110b8611f92565b612746600c54600e54612ad3565b4210156127845760405162461bcd60e51b8152600401808060200182810382526031815260200180612c036031913960400191505060405180910390fd5b600154604080516311005b0760e01b8152306004820152905161280b92611190926001600160a01b03909116916311005b0791602480820192602092909190829003018186803b1580156127d757600080fd5b505afa1580156127eb573d6000803e3d6000fd5b505050506040513d602081101561280157600080fd5b5051601454612ad3565b60015460408051633eaf7a0360e21b815230600482015290516001600160a01b039092169163fabde80c91602480820192602092909190829003018186803b15801561285657600080fd5b505afa15801561286a573d6000803e3d6000fd5b505050506040513d602081101561288057600080fd5b505110156128bf5760405162461bcd60e51b8152600401808060200182810382526025815260200180612c606025913960400191505060405180910390fd5b6128c7611f92565b15612919576040805162461bcd60e51b815260206004820152601e60248201527f4163636f756e74696e67456e67696e652f646562742d6e6f742d7a65726f0000604482015290519081900360640190fd5b60025460408051631a465fe160e01b815290516000926001600160a01b031691631a465fe1916004808301926020929190829003018186803b15801561295e57600080fd5b505afa158015612972573d6000803e3d6000fd5b505050506040513d602081101561298857600080fd5b50516001600160a01b031614156129d05760405162461bcd60e51b8152600401808060200182810382526030815260200180612ee96030913960400191505060405180910390fd5b42600c819055600d55600254601454604080516313fb84ff60e21b8152600481019290925260006024830181905290516001600160a01b0390931692634fee13fc926044808201936020939283900390910190829087803b158015612a3457600080fd5b505af1158015612a48573d6000803e3d6000fd5b505050506040513d6020811015612a5e57600080fd5b5051600c5460015460408051633eaf7a0360e21b8152306004820152905193945084937f7d0821ff1f59d07fef9cd0f28753cd787fc228208807379c23b9eecddccd6b0793926001600160a01b03169163fabde80c916024808301926020929190829003018186803b158015610cf057600080fd5b80820182811015612b2b576040805162461bcd60e51b815260206004820152601d60248201527f4163636f756e74696e67456e67696e652f6164642d6f766572666c6f77000000604482015290519081900360640190fd5b92915050565b80820382811115612b2b576040805162461bcd60e51b815260206004820152601e60248201527f4163636f756e74696e67456e67696e652f7375622d756e646572666c6f770000604482015290519081900360640190fd5b600081831115612b995781612b9b565b825b939250505056fe4163636f756e74696e67456e67696e652f696e76616c69642d6c617374537572706c75735472616e7366657254696d654163636f756e74696e67456e67696e652f6e6f742d656e6f7567682d646562742d6265696e672d61756374696f6e65644163636f756e74696e67456e67696e652f737572706c75732d61756374696f6e2d64656c61792d6e6f742d7061737365644163636f756e74696e67456e67696e652f737572706c75732d7472616e736665722d6e6f2d61756374696f6e4163636f756e74696e67456e67696e652f696e73756666696369656e742d737572706c75734163636f756e74696e67456e67696e652f696e76616c69642d6c617374537572706c757341756374696f6e54696d654163636f756e74696e67456e67696e652f737572706c75732d6e6f742d7a65726f4163636f756e74696e67456e67696e652f706f702d646562742d64656c61792d6e6f742d7061737365644163636f756e74696e67456e67696e652f6163636f756e742d6e6f742d617574686f72697a65644163636f756e74696e67456e67696e652f6e756c6c2d616d6f756e742d746f2d7472616e736665724163636f756e74696e67456e67696e652f696e73756666696369656e742d646562744163636f756e74696e67456e67696e652f646562742d61756374696f6e2d686f7573652d6e756c6c2d70726f744163636f756e74696e67456e67696e652f737572706c75732d7472616e736665722d64656c61792d6e6f742d7061737365644163636f756e74696e67456e67696e652f7374616b696e672d706f6f6c2d64656e6965732d7072696e74696e674163636f756e74696e67456e67696e652f636f6e74726163742d6e6f742d656e61626c65644163636f756e74696e67456e67696e652f6e756c6c2d737572706c75732d72656365697665724163636f756e74696e67456e67696e652f6e756c6c2d616d6f756e742d746f2d61756374696f6e4163636f756e74696e67456e67696e652f6d6f646966792d756e7265636f676e697a65642d706172616d4163636f756e74696e67456e67696e652f636f6f6c646f776e2d6e6f742d7061737365644163636f756e74696e67456e67696e652f737572706c75732d61756374696f6e2d6e6f742d7472616e736665724163636f756e74696e67456e67696e652f737572706c75732d61756374696f6e2d686f7573652d6e756c6c2d70726f744163636f756e74696e67456e67696e652f646562742d61756374696f6e2d686f7573652d63616e6e6f742d7072696e742d70726f74a2646970667358221220b49d87dfc7a272c82346c8cfd2ad3789c8db02782d4607b047b8993b3c5d7a2e64736f6c63430006070033",
        "linkReferences": {}
    },
    "methodIdentifiers": {
        "addAuthorization(address)": "35b28153",
        "auctionDebt()": "3d2fa89b",
        "auctionSurplus()": "ff713a9f",
        "authorizedAccounts(address)": "24ba5884",
        "canPrintProtocolTokens()": "d4056655",
        "cancelAuctionedDebtWithSurplus(uint256)": "3dc4ab1d",
        "contractEnabled()": "41b3a0d9",
        "debtAuctionBidSize()": "0502cddc",
        "debtAuctionHouse()": "b39f841c",
        "debtPoppers(uint256)": "a7103687",
        "debtQueue(uint256)": "3977a319",
        "disableContract()": "894ba833",
        "disableCooldown()": "5fb9340c",
        "disableTimestamp()": "492f9b3a",
        "extraSurplusIsTransferred()": "5dabda40",
        "extraSurplusReceiver()": "4e6afb9e",
        "initialDebtAuctionMintedTokens()": "fc7966de",
        "lastSurplusAuctionTime()": "d72f0e43",
        "lastSurplusTransferTime()": "c41f55a0",
        "modifyParameters(bytes32,address)": "6614f010",
        "modifyParameters(bytes32,uint256)": "fe4f5890",
        "popDebtDelay()": "5221e882",
        "popDebtFromQueue(uint256)": "8b24dc3e",
        "postSettlementSurplusDrain()": "d6881367",
        "protocolTokenAuthority()": "cc54f5e8",
        "pushDebtToQueue(uint256)": "a8b30a9f",
        "removeAuthorization(address)": "94f3f81d",
        "safeEngine()": "67aea313",
        "settleDebt(uint256)": "27a0bb33",
        "surplusAuctionAmountToSell()": "f27c3562",
        "surplusAuctionDelay()": "793d9149",
        "surplusAuctionHouse()": "cdacaaca",
        "surplusBuffer()": "2a608d5b",
        "surplusTransferAmount()": "a4ea7944",
        "surplusTransferDelay()": "37b7eca1",
        "systemStakingPool()": "a34231de",
        "totalOnAuctionDebt()": "0f44d6bd",
        "totalQueuedDebt()": "2d09f11d",
        "transferExtraSurplus()": "44e330c4",
        "transferPostSettlementSurplus()": "fa8838af",
        "unqueuedUnauctionedDebt()": "d8872aeb"
    },
    "id": 39
}