{
    "abi": [
        {
            "inputs": [],
            "name": "accountingEngine",
            "outputs": [
                {
                    "internalType": "contract AccountingEngineLike",
                    "name": "",
                    "type": "address"
                }
            ],
            "stateMutability": "view",
            "type": "function"
        },
        {
            "inputs": [],
            "name": "coinJoin",
            "outputs": [
                {
                    "internalType": "contract CoinJoinLike",
                    "name": "",
                    "type": "address"
                }
            ],
            "stateMutability": "view",
            "type": "function"
        },
        {
            "inputs": [],
            "name": "collateralAuctionHouseEthA",
            "outputs": [
                {
                    "internalType": "contract IncreasingDiscountCollateralAuctionHouseLike",
                    "name": "",
                    "type": "address"
                }
            ],
            "stateMutability": "view",
            "type": "function"
        },
        {
            "inputs": [],
            "name": "debtAuctionHouse",
            "outputs": [
                {
                    "internalType": "contract DebtAuctionHouseLike",
                    "name": "",
                    "type": "address"
                }
            ],
            "stateMutability": "view",
            "type": "function"
        },
        {
            "inputs": [],
            "name": "esm",
            "outputs": [
                {
                    "internalType": "contract ESMLike",
                    "name": "",
                    "type": "address"
                }
            ],
            "stateMutability": "view",
            "type": "function"
        },
        {
            "inputs": [],
            "name": "ethAJoin",
            "outputs": [
                {
                    "internalType": "contract CollateralJoinLike",
                    "name": "",
                    "type": "address"
                }
            ],
            "stateMutability": "view",
            "type": "function"
        },
        {
            "inputs": [],
            "name": "globalSettlement",
            "outputs": [
                {
                    "internalType": "contract GlobalSettlementLike",
                    "name": "",
                    "type": "address"
                }
            ],
            "stateMutability": "view",
            "type": "function"
        },
        {
            "inputs": [
                {
                    "internalType": "address",
                    "name": "deployScript",
                    "type": "address"
                }
            ],
            "name": "initializeContracts",
            "outputs": [],
            "stateMutability": "nonpayable",
            "type": "function"
        },
        {
            "inputs": [],
            "name": "liquidationEngine",
            "outputs": [
                {
                    "internalType": "contract LiquidationEngineLike",
                    "name": "",
                    "type": "address"
                }
            ],
            "stateMutability": "view",
            "type": "function"
        },
        {
            "inputs": [],
            "name": "oracleRelayer",
            "outputs": [
                {
                    "internalType": "contract OracleRelayerLike",
                    "name": "",
                    "type": "address"
                }
            ],
            "stateMutability": "view",
            "type": "function"
        },
        {
            "inputs": [],
            "name": "pause",
            "outputs": [
                {
                    "internalType": "contract DSPauseLike",
                    "name": "",
                    "type": "address"
                }
            ],
            "stateMutability": "view",
            "type": "function"
        },
        {
            "inputs": [],
            "name": "protocolToken",
            "outputs": [
                {
                    "internalType": "contract DSTokenLike",
                    "name": "",
                    "type": "address"
                }
            ],
            "stateMutability": "view",
            "type": "function"
        },
        {
            "inputs": [],
            "name": "proxyRegistry",
            "outputs": [
                {
                    "internalType": "contract ProxyRegistryLike",
                    "name": "",
                    "type": "address"
                }
            ],
            "stateMutability": "view",
            "type": "function"
        },
        {
            "inputs": [],
            "name": "rateCalculator",
            "outputs": [
                {
                    "internalType": "contract PIRawPerSecondCalculatorLike",
                    "name": "",
                    "type": "address"
                }
            ],
            "stateMutability": "view",
            "type": "function"
        },
        {
            "inputs": [],
            "name": "rateSetter",
            "outputs": [
                {
                    "internalType": "contract RateSetterLike",
                    "name": "",
                    "type": "address"
                }
            ],
            "stateMutability": "view",
            "type": "function"
        },
        {
            "inputs": [],
            "name": "rateSetterRelayer",
            "outputs": [
                {
                    "internalType": "contract RateSetterRelayerLike",
                    "name": "",
                    "type": "address"
                }
            ],
            "stateMutability": "view",
            "type": "function"
        },
        {
            "inputs": [],
            "name": "safeEngine",
            "outputs": [
                {
                    "internalType": "contract SAFEEngineLike",
                    "name": "",
                    "type": "address"
                }
            ],
            "stateMutability": "view",
            "type": "function"
        },
        {
            "inputs": [],
            "name": "safeManager",
            "outputs": [
                {
                    "internalType": "contract GebSafeManagerLike",
                    "name": "",
                    "type": "address"
                }
            ],
            "stateMutability": "view",
            "type": "function"
        },
        {
            "inputs": [],
            "name": "surplusAuctionHouse",
            "outputs": [
                {
                    "internalType": "contract SurplusAuctionHouseLike",
                    "name": "",
                    "type": "address"
                }
            ],
            "stateMutability": "view",
            "type": "function"
        },
        {
            "inputs": [],
            "name": "systemCoin",
            "outputs": [
                {
                    "internalType": "contract SystemCoinLike",
                    "name": "",
                    "type": "address"
                }
            ],
            "stateMutability": "view",
            "type": "function"
        },
        {
            "inputs": [],
            "name": "taxCollector",
            "outputs": [
                {
                    "internalType": "contract TaxCollectorLike",
                    "name": "",
                    "type": "address"
                }
            ],
            "stateMutability": "view",
            "type": "function"
        },
        {
            "inputs": [],
            "name": "treasury",
            "outputs": [
                {
                    "internalType": "contract StabilityFeeTreasuryLike",
                    "name": "",
                    "type": "address"
                }
            ],
            "stateMutability": "view",
            "type": "function"
        },
        {
            "inputs": [],
            "name": "weth",
            "outputs": [
                {
                    "internalType": "contract TokenLike",
                    "name": "",
                    "type": "address"
                }
            ],
            "stateMutability": "view",
            "type": "function"
        }
    ],
    "bytecode": {
        "object": "0x608060405234801561001057600080fd5b50610c02806100206000396000f3fe608060405234801561001057600080fd5b506004361061014d5760003560e01c80638456cb59116100c3578063b39f841c1161007c578063b39f841c14610216578063b50cbd9f1461021e578063bea1dcf814610226578063bfd027201461022e578063cdacaaca14610236578063f265d3511461023e5761014d565b80638456cb59146101e657806395a540e6146101ee578063961d45c4146101f6578063a7e94455146101fe578063ad28f6c614610206578063af41b2481461020e5761014d565b80633fc8cef3116101155780633fc8cef3146101b657806344bf3c72146101be5780634faf61ab146101c657806357c90441146101ce57806361d027b3146101d657806367aea313146101de5761014d565b8063037b7d79146101525780630df8dfac1461017657806312bb06041461017e5780631a465fe1146101a657806330413a2a146101ae575b600080fd5b61015a610246565b604080516001600160a01b039092168252519081900360200190f35b61015a610255565b6101a46004803603602081101561019457600080fd5b50356001600160a01b0316610264565b005b61015a610a7e565b61015a610a8d565b61015a610a9c565b61015a610aab565b61015a610aba565b61015a610ac9565b61015a610ad8565b61015a610ae7565b61015a610af6565b61015a610b05565b61015a610b14565b61015a610b23565b61015a610b32565b61015a610b41565b61015a610b50565b61015a610b5f565b61015a610b6e565b61015a610b7d565b61015a610b8c565b61015a610b9b565b6004546001600160a01b031681565b6012546001600160a01b031681565b60008190506000816001600160a01b031663d63044386040518163ffffffff1660e01b815260040160206040518083038186803b1580156102a457600080fd5b505afa1580156102b8573d6000803e3d6000fd5b505050506040513d60208110156102ce57600080fd5b5051905060005b8181101561056c576060836001600160a01b031663b810fb43836040518263ffffffff1660e01b81526004018082815260200191505060006040518083038186803b15801561032357600080fd5b505afa158015610337573d6000803e3d6000fd5b505050506040513d6000823e601f3d908101601f19168201604052602081101561036057600080fd5b810190808051604051939291908464010000000082111561038057600080fd5b90830190602082018581111561039557600080fd5b82516401000000008111828201881017156103af57600080fd5b82525081516020918201929091019080838360005b838110156103dc5781810151838201526020016103c4565b50505050905090810190601f1680156104095780820380516001836020036101000a031916815260200191505b50604081905263511b1df960e01b81526020600482018181528651602484015286519697506001600160a01b038b169663511b1df9965088955090935083926044019185019080838360005b8381101561046d578181015183820152602001610455565b50505050905090810190601f16801561049a5780820380516001836020036101000a031916815260200191505b509250505060206040518083038186803b1580156104b757600080fd5b505afa1580156104cb573d6000803e3d6000fd5b505050506040513d60208110156104e157600080fd5b505160405182516016918491819060208401908083835b602083106105175780518252601f1990920191602091820191016104f8565b51815160209384036101000a6000190180199092169116179052920194855250604051938490030190922080546001600160a01b0319166001600160a01b0394909416939093179092555050506001016102d5565b5060408051684745425f504155534560b81b815260166009808301829052835192839003602901832054600080546001600160a01b03199081166001600160a01b03938416179091556e4745425f534146455f454e47494e4560881b8552600f8501849052855194859003602f01852054600180548316918416919091179055744745425f4143434f554e54494e475f454e47494e4560581b8552601580860185905286519586900360359081018720546002805485169186169190911790556d50524f58595f524547495354525960901b8752600e808801879052885197889003602e9081018920546003805487169188169190911781557411d15097d1d313d0905317d4d15515131153515395605a1b8a529389018890528951988990039092018820546004805486169187169190911790556723a2a12fa1a7a4a760c11b8852600880890188905289519889900360289081018a20546005805488169189169190911790556b29a0a322afa6a0a720a3a2a960a11b8a52600c808b018a90528b519a8b9003602c018b2054600680548916918a169190911790557023a2a12faa20ac2fa1a7a62622a1aa27a960791b8b5260118b018a90528b519a8b90036031018b2054600780548916918a169190911790556c23a2a12fa1a7a4a72fa527a4a760991b8b52600d808c018b90528c519b8c9003602d018c205484548916908a161784556d4745425f4a4f494e5f4554485f4160901b8c52938b018a90528b519a8b90039094018a205488548716908816179097556208aa8960eb1b8952928801879052885197889003602301882054600a80548616918716919091179055754745425f4c49515549444154494f4e5f454e47494e4560501b8852878701879052885197889003603601882054600b805486169187169190911790556711d15097d41493d560c21b885291870186905287519687900390940186205484548316908416179093557f4745425f53544142494c4954595f4645455f54524541535552590000000000008552601a8501849052945193849003603a018420548254909516941693909317909255806022610bab82396022810192909252506040805191829003604201822054600e80546001600160a01b03199081166001600160a01b03938416179091557123a2a12fa7a920a1a622afa922a620aca2a960711b80855260166012808701829052855196879003603290810188205460108054871691881691909117808255754745425f444542545f41554354494f4e5f484f55534560501b8a528985018590528851998a90036036018a2054600f80548916918a16919091178155958a528984018590528851998a90039092018920549186169187169190911790557f4745425f535552504c55535f41554354494f4e5f484f555345000000000000008752601987018290528551968790036039018720546011805486169187169190911790557223a2a12fa9292326afa1a0a621aaa620aa27a960691b8752601380880183905286519788900360330188205482548616908716179091556e23a2a12fa9292326afa9a2aa2a22a960891b8752918601819052845195869003602f0186205482548416908516179091557f4745425f5252464d5f5345545445525f52454c41594552000000000000000000855260178501819052835194859003603701852054601480548416918516919091179055664745425f45534d60c81b8552600785015291519283900360270190922054601580549092169216919091179055505050565b600c546001600160a01b031681565b6008546001600160a01b031681565b600a546001600160a01b031681565b600b546001600160a01b031681565b6010546001600160a01b031681565b6006546001600160a01b031681565b600d546001600160a01b031681565b6001546001600160a01b031681565b6000546001600160a01b031681565b6009546001600160a01b031681565b6002546001600160a01b031681565b6005546001600160a01b031681565b6014546001600160a01b031681565b6015546001600160a01b031681565b600f546001600160a01b031681565b6003546001600160a01b031681565b6007546001600160a01b031681565b600e546001600160a01b031681565b6011546001600160a01b031681565b6013546001600160a01b03168156fe4745425f434f4c4c41544552414c5f41554354494f4e5f484f5553455f4554485f41a2646970667358221220b8970eb725ef142a90bf8756e92dd60d8257b8928f61a302af10847ba2fc80da64736f6c63430006070033",
        "linkReferences": {}
    },
    "methodIdentifiers": {
        "accountingEngine()": "961d45c4",
        "coinJoin()": "30413a2a",
        "collateralAuctionHouseEthA()": "bfd02720",
        "debtAuctionHouse()": "b39f841c",
        "esm()": "af41b248",
        "ethAJoin()": "95a540e6",
        "globalSettlement()": "037b7d79",
        "initializeContracts(address)": "12bb0604",
        "liquidationEngine()": "44bf3c72",
        "oracleRelayer()": "4faf61ab",
        "pause()": "8456cb59",
        "protocolToken()": "1a465fe1",
        "proxyRegistry()": "b50cbd9f",
        "rateCalculator()": "0df8dfac",
        "rateSetter()": "f265d351",
        "rateSetterRelayer()": "ad28f6c6",
        "safeEngine()": "67aea313",
        "safeManager()": "57c90441",
        "surplusAuctionHouse()": "cdacaaca",
        "systemCoin()": "a7e94455",
        "taxCollector()": "bea1dcf8",
        "treasury()": "61d027b3",
        "weth()": "3fc8cef3"
    },
    "id": 60
}