{
    "abi": [
        {
            "inputs": [
                {
                    "internalType": "address",
                    "name": "safeEngine_",
                    "type": "address"
                },
                {
                    "internalType": "address",
                    "name": "protocolToken_",
                    "type": "address"
                }
            ],
            "stateMutability": "nonpayable",
            "type": "constructor"
        },
        {
            "anonymous": false,
            "inputs": [
                {
                    "indexed": false,
                    "internalType": "address",
                    "name": "account",
                    "type": "address"
                }
            ],
            "name": "AddAuthorization",
            "type": "event"
        },
        {
            "anonymous": false,
            "inputs": [
                {
                    "indexed": true,
                    "internalType": "uint256",
                    "name": "id",
                    "type": "uint256"
                },
                {
                    "indexed": false,
                    "internalType": "address",
                    "name": "highBidder",
                    "type": "address"
                },
                {
                    "indexed": false,
                    "internalType": "uint256",
                    "name": "amountToBuy",
                    "type": "uint256"
                },
                {
                    "indexed": false,
                    "internalType": "uint256",
                    "name": "bid",
                    "type": "uint256"
                },
                {
                    "indexed": false,
                    "internalType": "uint256",
                    "name": "bidExpiry",
                    "type": "uint256"
                }
            ],
            "name": "DecreaseSoldAmount",
            "type": "event"
        },
        {
            "anonymous": false,
            "inputs": [
                {
                    "indexed": false,
                    "internalType": "address",
                    "name": "sender",
                    "type": "address"
                }
            ],
            "name": "DisableContract",
            "type": "event"
        },
        {
            "anonymous": false,
            "inputs": [
                {
                    "indexed": false,
                    "internalType": "bytes32",
                    "name": "parameter",
                    "type": "bytes32"
                },
                {
                    "indexed": false,
                    "internalType": "uint256",
                    "name": "data",
                    "type": "uint256"
                }
            ],
            "name": "ModifyParameters",
            "type": "event"
        },
        {
            "anonymous": false,
            "inputs": [
                {
                    "indexed": false,
                    "internalType": "bytes32",
                    "name": "parameter",
                    "type": "bytes32"
                },
                {
                    "indexed": false,
                    "internalType": "address",
                    "name": "data",
                    "type": "address"
                }
            ],
            "name": "ModifyParameters",
            "type": "event"
        },
        {
            "anonymous": false,
            "inputs": [
                {
                    "indexed": false,
                    "internalType": "address",
                    "name": "account",
                    "type": "address"
                }
            ],
            "name": "RemoveAuthorization",
            "type": "event"
        },
        {
            "anonymous": false,
            "inputs": [
                {
                    "indexed": true,
                    "internalType": "uint256",
                    "name": "id",
                    "type": "uint256"
                },
                {
                    "indexed": false,
                    "internalType": "uint256",
                    "name": "auctionDeadline",
                    "type": "uint256"
                }
            ],
            "name": "RestartAuction",
            "type": "event"
        },
        {
            "anonymous": false,
            "inputs": [
                {
                    "indexed": true,
                    "internalType": "uint256",
                    "name": "id",
                    "type": "uint256"
                },
                {
                    "indexed": false,
                    "internalType": "uint256",
                    "name": "activeDebtAuctions",
                    "type": "uint256"
                }
            ],
            "name": "SettleAuction",
            "type": "event"
        },
        {
            "anonymous": false,
            "inputs": [
                {
                    "indexed": true,
                    "internalType": "uint256",
                    "name": "id",
                    "type": "uint256"
                },
                {
                    "indexed": false,
                    "internalType": "uint256",
                    "name": "auctionsStarted",
                    "type": "uint256"
                },
                {
                    "indexed": false,
                    "internalType": "uint256",
                    "name": "amountToSell",
                    "type": "uint256"
                },
                {
                    "indexed": false,
                    "internalType": "uint256",
                    "name": "initialBid",
                    "type": "uint256"
                },
                {
                    "indexed": true,
                    "internalType": "address",
                    "name": "incomeReceiver",
                    "type": "address"
                },
                {
                    "indexed": true,
                    "internalType": "uint256",
                    "name": "auctionDeadline",
                    "type": "uint256"
                },
                {
                    "indexed": false,
                    "internalType": "uint256",
                    "name": "activeDebtAuctions",
                    "type": "uint256"
                }
            ],
            "name": "StartAuction",
            "type": "event"
        },
        {
            "anonymous": false,
            "inputs": [
                {
                    "indexed": true,
                    "internalType": "uint256",
                    "name": "id",
                    "type": "uint256"
                },
                {
                    "indexed": false,
                    "internalType": "address",
                    "name": "sender",
                    "type": "address"
                },
                {
                    "indexed": false,
                    "internalType": "address",
                    "name": "highBidder",
                    "type": "address"
                },
                {
                    "indexed": false,
                    "internalType": "uint256",
                    "name": "bidAmount",
                    "type": "uint256"
                },
                {
                    "indexed": false,
                    "internalType": "uint256",
                    "name": "activeDebtAuctions",
                    "type": "uint256"
                }
            ],
            "name": "TerminateAuctionPrematurely",
            "type": "event"
        },
        {
            "inputs": [],
            "name": "AUCTION_HOUSE_TYPE",
            "outputs": [
                {
                    "internalType": "bytes32",
                    "name": "",
                    "type": "bytes32"
                }
            ],
            "stateMutability": "view",
            "type": "function"
        },
        {
            "inputs": [],
            "name": "accountingEngine",
            "outputs": [
                {
                    "internalType": "address",
                    "name": "",
                    "type": "address"
                }
            ],
            "stateMutability": "view",
            "type": "function"
        },
        {
            "inputs": [],
            "name": "activeDebtAuctions",
            "outputs": [
                {
                    "internalType": "uint256",
                    "name": "",
                    "type": "uint256"
                }
            ],
            "stateMutability": "view",
            "type": "function"
        },
        {
            "inputs": [
                {
                    "internalType": "address",
                    "name": "account",
                    "type": "address"
                }
            ],
            "name": "addAuthorization",
            "outputs": [],
            "stateMutability": "nonpayable",
            "type": "function"
        },
        {
            "inputs": [],
            "name": "amountSoldIncrease",
            "outputs": [
                {
                    "internalType": "uint256",
                    "name": "",
                    "type": "uint256"
                }
            ],
            "stateMutability": "view",
            "type": "function"
        },
        {
            "inputs": [],
            "name": "auctionsStarted",
            "outputs": [
                {
                    "internalType": "uint256",
                    "name": "",
                    "type": "uint256"
                }
            ],
            "stateMutability": "view",
            "type": "function"
        },
        {
            "inputs": [
                {
                    "internalType": "address",
                    "name": "",
                    "type": "address"
                }
            ],
            "name": "authorizedAccounts",
            "outputs": [
                {
                    "internalType": "uint256",
                    "name": "",
                    "type": "uint256"
                }
            ],
            "stateMutability": "view",
            "type": "function"
        },
        {
            "inputs": [],
            "name": "bidDecrease",
            "outputs": [
                {
                    "internalType": "uint256",
                    "name": "",
                    "type": "uint256"
                }
            ],
            "stateMutability": "view",
            "type": "function"
        },
        {
            "inputs": [],
            "name": "bidDuration",
            "outputs": [
                {
                    "internalType": "uint48",
                    "name": "",
                    "type": "uint48"
                }
            ],
            "stateMutability": "view",
            "type": "function"
        },
        {
            "inputs": [
                {
                    "internalType": "uint256",
                    "name": "",
                    "type": "uint256"
                }
            ],
            "name": "bids",
            "outputs": [
                {
                    "internalType": "uint256",
                    "name": "bidAmount",
                    "type": "uint256"
                },
                {
                    "internalType": "uint256",
                    "name": "amountToSell",
                    "type": "uint256"
                },
                {
                    "internalType": "address",
                    "name": "highBidder",
                    "type": "address"
                },
                {
                    "internalType": "uint48",
                    "name": "bidExpiry",
                    "type": "uint48"
                },
                {
                    "internalType": "uint48",
                    "name": "auctionDeadline",
                    "type": "uint48"
                }
            ],
            "stateMutability": "view",
            "type": "function"
        },
        {
            "inputs": [],
            "name": "contractEnabled",
            "outputs": [
                {
                    "internalType": "uint256",
                    "name": "",
                    "type": "uint256"
                }
            ],
            "stateMutability": "view",
            "type": "function"
        },
        {
            "inputs": [
                {
                    "internalType": "uint256",
                    "name": "id",
                    "type": "uint256"
                },
                {
                    "internalType": "uint256",
                    "name": "amountToBuy",
                    "type": "uint256"
                },
                {
                    "internalType": "uint256",
                    "name": "bid",
                    "type": "uint256"
                }
            ],
            "name": "decreaseSoldAmount",
            "outputs": [],
            "stateMutability": "nonpayable",
            "type": "function"
        },
        {
            "inputs": [],
            "name": "disableContract",
            "outputs": [],
            "stateMutability": "nonpayable",
            "type": "function"
        },
        {
            "inputs": [
                {
                    "internalType": "bytes32",
                    "name": "parameter",
                    "type": "bytes32"
                },
                {
                    "internalType": "address",
                    "name": "addr",
                    "type": "address"
                }
            ],
            "name": "modifyParameters",
            "outputs": [],
            "stateMutability": "nonpayable",
            "type": "function"
        },
        {
            "inputs": [
                {
                    "internalType": "bytes32",
                    "name": "parameter",
                    "type": "bytes32"
                },
                {
                    "internalType": "uint256",
                    "name": "data",
                    "type": "uint256"
                }
            ],
            "name": "modifyParameters",
            "outputs": [],
            "stateMutability": "nonpayable",
            "type": "function"
        },
        {
            "inputs": [],
            "name": "protocolToken",
            "outputs": [
                {
                    "internalType": "contract TokenLike",
                    "name": "",
                    "type": "address"
                }
            ],
            "stateMutability": "view",
            "type": "function"
        },
        {
            "inputs": [
                {
                    "internalType": "address",
                    "name": "account",
                    "type": "address"
                }
            ],
            "name": "removeAuthorization",
            "outputs": [],
            "stateMutability": "nonpayable",
            "type": "function"
        },
        {
            "inputs": [
                {
                    "internalType": "uint256",
                    "name": "id",
                    "type": "uint256"
                }
            ],
            "name": "restartAuction",
            "outputs": [],
            "stateMutability": "nonpayable",
            "type": "function"
        },
        {
            "inputs": [],
            "name": "safeEngine",
            "outputs": [
                {
                    "internalType": "contract SAFEEngineLike",
                    "name": "",
                    "type": "address"
                }
            ],
            "stateMutability": "view",
            "type": "function"
        },
        {
            "inputs": [
                {
                    "internalType": "uint256",
                    "name": "id",
                    "type": "uint256"
                }
            ],
            "name": "settleAuction",
            "outputs": [],
            "stateMutability": "nonpayable",
            "type": "function"
        },
        {
            "inputs": [
                {
                    "internalType": "address",
                    "name": "incomeReceiver",
                    "type": "address"
                },
                {
                    "internalType": "uint256",
                    "name": "amountToSell",
                    "type": "uint256"
                },
                {
                    "internalType": "uint256",
                    "name": "initialBid",
                    "type": "uint256"
                }
            ],
            "name": "startAuction",
            "outputs": [
                {
                    "internalType": "uint256",
                    "name": "id",
                    "type": "uint256"
                }
            ],
            "stateMutability": "nonpayable",
            "type": "function"
        },
        {
            "inputs": [
                {
                    "internalType": "uint256",
                    "name": "id",
                    "type": "uint256"
                }
            ],
            "name": "terminateAuctionPrematurely",
            "outputs": [],
            "stateMutability": "nonpayable",
            "type": "function"
        },
        {
            "inputs": [],
            "name": "totalAuctionLength",
            "outputs": [
                {
                    "internalType": "uint48",
                    "name": "",
                    "type": "uint48"
                }
            ],
            "stateMutability": "view",
            "type": "function"
        }
    ],
    "bytecode": {
        "object": "0x6080604052670e92596fd62900006005556714d1120d7b16000060065560078054612a3065ffffffffffff199091161765ffffffffffff60301b19166802a300000000000000179055600060085534801561005957600080fd5b50604051611abc380380611abc8339818101604052604081101561007c57600080fd5b508051602091820151336000818152808552604090819020600190819055600280546001600160a01b038088166001600160a01b0319928316179092556003805492871692909116919091179055600a55805191825251929391927f599a298163e1678bb1c676052a8930bf0b8a1261ed6e01b8a2391e55f7000102929181900390910190a150506119a9806101136000396000f3fe608060405234801561001057600080fd5b506004361061014d5760003560e01c806373c0a367116100c3578063961d45c41161007c578063961d45c41461034a578063d25ccf5314610352578063f6b45eb71461036f578063f8a2685e14610377578063fe4f58901461037f578063ff6b7b1c146103a25761014d565b806373c0a367146102cc5780637fa9ecb8146102ef5780638115ba74146102f7578063894ba833146102ff578063933f76081461030757806394f3f81d146103245761014d565b806341b3a0d91161011557806341b3a0d9146101fb5780634423c5f114610203578063551cb3b11461025e57806356dd4755146102665780636614f0101461029857806367aea313146102c45761014d565b80631266fb94146101525780631a465fe11461016c57806324ba5884146101905780632e993611146101b657806335b28153146101d5575b600080fd5b61015a6103cb565b60408051918252519081900360200190f35b6101746103d6565b604080516001600160a01b039092168252519081900360200190f35b61015a600480360360208110156101a657600080fd5b50356001600160a01b03166103e5565b6101d3600480360360208110156101cc57600080fd5b50356103f7565b005b6101d3600480360360208110156101eb57600080fd5b50356001600160a01b0316610606565b61015a6106a6565b6102206004803603602081101561021957600080fd5b50356106ac565b6040805195865260208601949094526001600160a01b039092168484015265ffffffffffff9081166060850152166080830152519081900360a00190f35b61015a6106f0565b61015a6004803603606081101561027c57600080fd5b506001600160a01b0381351690602081013590604001356106f6565b6101d3600480360360408110156102ae57600080fd5b50803590602001356001600160a01b0316610909565b610174610a89565b6102d4610a98565b6040805165ffffffffffff9092168252519081900360200190f35b61015a610aad565b61015a610ab3565b6101d3610ab9565b6101d36004803603602081101561031d57600080fd5b5035610b5d565b6101d36004803603602081101561033a57600080fd5b50356001600160a01b0316610d06565b610174610da5565b6101d36004803603602081101561036857600080fd5b5035610db4565b6102d4610fa0565b61015a610fae565b6101d36004803603604081101561039557600080fd5b5080359060200135610fb4565b6101d3600480360360608110156103b857600080fd5b50803590602081013590604001356110ff565b631111509560e21b81565b6003546001600160a01b031681565b60006020819052908152604090205481565b600a5460011461044e576040805162461bcd60e51b815260206004820152601960248201527f4465627441756374696f6e486f7573652f6e6f742d6c69766500000000000000604482015290519081900360640190fd5b600081815260016020526040902060020154600160a01b900465ffffffffffff16158015906104c7575060008181526001602052604090206002015442600160a01b90910465ffffffffffff1610806104c7575060008181526001602052604090206002015442600160d01b90910465ffffffffffff16105b610518576040805162461bcd60e51b815260206004820152601d60248201527f4465627441756374696f6e486f7573652f6e6f742d66696e6973686564000000604482015290519081900360640190fd5b6003546000828152600160208190526040808320600281015492015481516340c10f1960e01b81526001600160a01b0393841660048201526024810191909152905191909316926340c10f1992604480830193919282900301818387803b15801561058257600080fd5b505af1158015610596573d6000803e3d6000fd5b505050506105a760095460016115f4565b6009908155600082815260016020818152604080842084815592830184905560029092019290925591548251908152915183927fef063949eb6ef5abef19139d9c75a558424ffa759302cfe445f8d2d327376fe492908290030190a250565b336000908152602081905260409020546001146106545760405162461bcd60e51b81526004018080602001828103825260278152602001806118496027913960400191505060405180910390fd5b6001600160a01b0381166000818152602081815260409182902060019055815192835290517f599a298163e1678bb1c676052a8930bf0b8a1261ed6e01b8a2391e55f70001029281900390910190a150565b600a5481565b60016020819052600091825260409091208054918101546002909101546001600160a01b0381169065ffffffffffff600160a01b8204811691600160d01b90041685565b60085481565b336000908152602081905260408120546001146107445760405162461bcd60e51b81526004018080602001828103825260278152602001806118496027913960400191505060405180910390fd5b600a546001146107855760405162461bcd60e51b81526004018080602001828103825260258152602001806119076025913960400191505060405180910390fd5b600019600854106107dd576040805162461bcd60e51b815260206004820152601960248201527f4465627441756374696f6e486f7573652f6f766572666c6f7700000000000000604482015290519081900360640190fd5b5060088054600190810191829055600082815260208290526040902083815590810184905560020180546001600160a01b0319166001600160a01b03861617905560075461083b904290600160301b900465ffffffffffff16611652565b60016000838152602001908152602001600020600201601a6101000a81548165ffffffffffff021916908365ffffffffffff160217905550610880600954600161169f565b600981905560008281526001602090815260409182902060020154600854835190815291820187905281830186905260608201939093529051600160d01b90920465ffffffffffff16916001600160a01b0387169184917f9102bd0b66dcb83f469f1122a583dc797657b114141460c59230fc1b41f48229916080908290030190a49392505050565b336000908152602081905260409020546001146109575760405162461bcd60e51b81526004018080602001828103825260278152602001806118496027913960400191505060405180910390fd5b600a546001146109985760405162461bcd60e51b81526004018080602001828103825260258152602001806119076025913960400191505060405180910390fd5b816c383937ba37b1b7b62a37b5b2b760991b14156109d057600380546001600160a01b0319166001600160a01b038316179055610a42565b816f6163636f756e74696e67456e67696e6560801b1415610a0b57600480546001600160a01b0319166001600160a01b038316179055610a42565b60405162461bcd60e51b815260040180806020018281038252602a8152602001806117d5602a913960400191505060405180910390fd5b604080518381526001600160a01b038316602082015281517fd91f38cf03346b5dc15fb60f9076f866295231ad3c3841a1051f8443f25170d1929181900390910190a15050565b6002546001600160a01b031681565b600754600160301b900465ffffffffffff1681565b60065481565b60095481565b33600090815260208190526040902054600114610b075760405162461bcd60e51b81526004018080602001828103825260278152602001806118496027913960400191505060405180910390fd5b6000600a819055600480546001600160a01b0319163390811790915560099190915560408051918252517f8232b6f6b40c9c98ad4c93e3a92cd021a28ddf6b027b80717ab32eced1469a1d9181900360200190a1565b600a5415610b9c5760405162461bcd60e51b81526004018080602001828103825260278152602001806118706027913960400191505060405180910390fd5b6000818152600160205260409020600201546001600160a01b0316610bf25760405162461bcd60e51b81526004018080602001828103825260248152602001806119506024913960400191505060405180910390fd5b6002805460048054600085815260016020526040808220958601549554815162d8a14160e51b81526001600160a01b0394851695810195909552958316602485015260448401959095529351921692631b1428209260648084019382900301818387803b158015610c6257600080fd5b505af1158015610c76573d6000803e3d6000fd5b5050506000828152600160209081526040918290206002810154905460095484513381526001600160a01b039093169383019390935281840152606081019190915290518392507fb44e0a3b14eb47d78f0e8862fef549e98212558fd69c690d2fe3a7780bcd6f199181900360800190a26000908152600160208190526040822082815590810182905560020155565b33600090815260208190526040902054600114610d545760405162461bcd60e51b81526004018080602001828103825260278152602001806118496027913960400191505060405180910390fd5b6001600160a01b03811660008181526020818152604080832092909255815192835290517f8834a87e641e9716be4f34527af5d23e11624f1ddeefede6ad75a9acfc31b9039281900390910190a150565b6004546001600160a01b031681565b600854811115610df55760405162461bcd60e51b81526004018080602001828103825260268152602001806117af6026913960400191505060405180910390fd5b60008181526001602052604090206002015442600160d01b90910465ffffffffffff1610610e6a576040805162461bcd60e51b815260206004820152601d60248201527f4465627441756374696f6e486f7573652f6e6f742d66696e6973686564000000604482015290519081900360640190fd5b600081815260016020526040902060020154600160a01b900465ffffffffffff1615610ec75760405162461bcd60e51b81526004018080602001828103825260238152602001806118976023913960400191505060405180910390fd5b670de0b6b3a7640000610ef260065460016000858152602001908152602001600020600101546116e1565b81610ef957fe5b600083815260016020819052604090912092909104910155600754610f2e904290600160301b900465ffffffffffff16611652565b60008281526001602090815260409182902060020180546001600160d01b0316600160d01b65ffffffffffff95861681029190911791829055835191049093168352905183927f10a109258779eb298071adf16637b95f8d7cf00e49595711da10eeb90e6e8e9492908290030190a250565b60075465ffffffffffff1681565b60055481565b336000908152602081905260409020546001146110025760405162461bcd60e51b81526004018080602001828103825260278152602001806118496027913960400191505060405180910390fd5b816a626964446563726561736560a81b14156110225760058190556110c0565b8171616d6f756e74536f6c64496e63726561736560701b14156110495760068190556110c0565b816a3134b2223ab930ba34b7b760a91b141561107d576007805465ffffffffffff191665ffffffffffff83161790556110c0565b81710e8dee8c2d882eac6e8d2dedc98cadccee8d60731b1415610a0b57600780546bffffffffffff0000000000001916600160301b65ffffffffffff8416021790555b604080518381526020810183905281517fac7c5c1afaef770ec56ac6268cd3f2fbb1035858ead2601d6553157c33036c3a929181900390910190a15050565b600a546001146111405760405162461bcd60e51b81526004018080602001828103825260258152602001806119076025913960400191505060405180910390fd5b6000838152600160205260409020600201546001600160a01b03166111965760405162461bcd60e51b81526004018080602001828103825260248152602001806119506024913960400191505060405180910390fd5b60008381526001602052604090206002015442600160a01b90910465ffffffffffff1611806111e35750600083815260016020526040902060020154600160a01b900465ffffffffffff16155b61121e5760405162461bcd60e51b815260040180806020018281038252602481526020018061192c6024913960400191505060405180910390fd5b60008381526001602052604090206002015442600160d01b90910465ffffffffffff161161127d5760405162461bcd60e51b81526004018080602001828103825260288152602001806117666028913960400191505060405180910390fd5b60008381526001602052604090205481146112c95760405162461bcd60e51b815260040180806020018281038252602181526020018061178e6021913960400191505060405180910390fd5b6000838152600160208190526040909120015482106113195760405162461bcd60e51b81526004018080602001828103825260288152602001806118ba6028913960400191505060405180910390fd5b6000838152600160208190526040909120015461133e90670de0b6b3a76400006116e1565b61134a600554846116e1565b11156113875760405162461bcd60e51b81526004018080602001828103825260268152602001806117ff6026913960400191505060405180910390fd5b60028054600085815260016020526040808220909301548351633beaf2b760e21b81523360048201526001600160a01b03918216602482015260448101869052935192169263efabcadc926064808301939282900301818387803b1580156113ee57600080fd5b505af1158015611402573d6000803e3d6000fd5b505050600084815260016020526040902060020154600160a01b900465ffffffffffff1615159050611528576000838152600160209081526040808320600201548151630f44d6bd60e01b815291516001600160a01b0390911692630f44d6bd926004808201939182900301818787803b15801561147f57600080fd5b505af1158015611493573d6000803e3d6000fd5b505050506040513d60208110156114a957600080fd5b50516000858152600160205260409020600201549091506001600160a01b0316633dc4ab1d6114d8848461174d565b6040518263ffffffff1660e01b815260040180828152602001915050600060405180830381600087803b15801561150e57600080fd5b505af1158015611522573d6000803e3d6000fd5b50505050505b60008381526001602081905260409091206002810180546001600160a01b031916331790550182905560075461156790429065ffffffffffff16611652565b600084815260016020908152604091829020600201805465ffffffffffff948516600160a01b90810265ffffffffffff60a01b1990921691909117918290558351338152928301879052828401869052900490921660608301525184917f8c63feacc784a7f735e454365ba433f17d17293b02c57d98dad113977dbf0f13919081900360800190a2505050565b8082038281111561164c576040805162461bcd60e51b815260206004820152601e60248201527f4465627441756374696f6e486f7573652f7375622d756e646572666c6f770000604482015290519081900360640190fd5b92915050565b80820165ffffffffffff808416908216101561164c5760405162461bcd60e51b81526004018080602001828103825260248152602001806118256024913960400191505060405180910390fd5b8082018281101561164c5760405162461bcd60e51b81526004018080602001828103825260258152602001806118e26025913960400191505060405180910390fd5b60008115806116fc575050808202828282816116f957fe5b04145b61164c576040805162461bcd60e51b815260206004820152601d60248201527f4465627441756374696f6e486f7573652f6d756c2d6f766572666c6f77000000604482015290519081900360640190fd5b60008183111561175e57508061164c565b509091905056fe4465627441756374696f6e486f7573652f61756374696f6e2d616c72656164792d657870697265644465627441756374696f6e486f7573652f6e6f742d6d61746368696e672d6269644465627441756374696f6e486f7573652f61756374696f6e2d6e657665722d737461727465644465627441756374696f6e486f7573652f6d6f646966792d756e7265636f676e697a65642d706172616d4465627441756374696f6e486f7573652f696e73756666696369656e742d64656372656173654465627441756374696f6e486f7573652f6164642d75696e7434382d6f766572666c6f774465627441756374696f6e486f7573652f6163636f756e742d6e6f742d617574686f72697a65644465627441756374696f6e486f7573652f636f6e74726163742d7374696c6c2d656e61626c65644465627441756374696f6e486f7573652f6269642d616c72656164792d706c616365644465627441756374696f6e486f7573652f616d6f756e742d626f756768742d6e6f742d6c6f7765724465627441756374696f6e486f7573652f6164642d75696e743235362d6f766572666c6f774465627441756374696f6e486f7573652f636f6e74726163742d6e6f742d656e61626c65644465627441756374696f6e486f7573652f6269642d616c72656164792d657870697265644465627441756374696f6e486f7573652f686967682d6269646465722d6e6f742d736574a2646970667358221220e1108556353eeceac6a6161dc89f558cbc5522522976e1082fa5a716258f25f664736f6c63430006070033",
        "linkReferences": {}
    },
    "methodIdentifiers": {
        "AUCTION_HOUSE_TYPE()": "1266fb94",
        "accountingEngine()": "961d45c4",
        "activeDebtAuctions()": "8115ba74",
        "addAuthorization(address)": "35b28153",
        "amountSoldIncrease()": "7fa9ecb8",
        "auctionsStarted()": "551cb3b1",
        "authorizedAccounts(address)": "24ba5884",
        "bidDecrease()": "f8a2685e",
        "bidDuration()": "f6b45eb7",
        "bids(uint256)": "4423c5f1",
        "contractEnabled()": "41b3a0d9",
        "decreaseSoldAmount(uint256,uint256,uint256)": "ff6b7b1c",
        "disableContract()": "894ba833",
        "modifyParameters(bytes32,address)": "6614f010",
        "modifyParameters(bytes32,uint256)": "fe4f5890",
        "protocolToken()": "1a465fe1",
        "removeAuthorization(address)": "94f3f81d",
        "restartAuction(uint256)": "d25ccf53",
        "safeEngine()": "67aea313",
        "settleAuction(uint256)": "2e993611",
        "startAuction(address,uint256,uint256)": "56dd4755",
        "terminateAuctionPrematurely(uint256)": "933f7608",
        "totalAuctionLength()": "73c0a367"
    },
    "id": 42
}