{
    "abi": [
        {
            "inputs": [
                {
                    "internalType": "address",
                    "name": "factory_",
                    "type": "address"
                }
            ],
            "stateMutability": "nonpayable",
            "type": "constructor"
        },
        {
            "anonymous": false,
            "inputs": [
                {
                    "indexed": false,
                    "internalType": "address",
                    "name": "usr",
                    "type": "address"
                },
                {
                    "indexed": false,
                    "internalType": "address",
                    "name": "proxy",
                    "type": "address"
                }
            ],
            "name": "Build",
            "type": "event"
        },
        {
            "inputs": [],
            "name": "build",
            "outputs": [
                {
                    "internalType": "address payable",
                    "name": "proxy",
                    "type": "address"
                }
            ],
            "stateMutability": "nonpayable",
            "type": "function"
        },
        {
            "inputs": [
                {
                    "internalType": "address",
                    "name": "owner",
                    "type": "address"
                }
            ],
            "name": "build",
            "outputs": [
                {
                    "internalType": "address payable",
                    "name": "proxy",
                    "type": "address"
                }
            ],
            "stateMutability": "nonpayable",
            "type": "function"
        },
        {
            "inputs": [
                {
                    "internalType": "address",
                    "name": "",
                    "type": "address"
                }
            ],
            "name": "proxies",
            "outputs": [
                {
                    "internalType": "contract DSProxy",
                    "name": "",
                    "type": "address"
                }
            ],
            "stateMutability": "view",
            "type": "function"
        }
    ],
    "bytecode": {
        "object": "0x608060405234801561001057600080fd5b5060405161035d38038061035d8339818101604052602081101561003357600080fd5b5051600180546001600160a01b0319166001600160a01b039092169190911790556102fa806100636000396000f3fe608060405234801561001057600080fd5b50600436106100415760003560e01c80638e1a55fc14610046578063c45527911461006a578063f3701da214610090575b600080fd5b61004e6100b6565b604080516001600160a01b039092168252519081900360200190f35b61004e6004803603602081101561008057600080fd5b50356001600160a01b031661010a565b61004e600480360360208110156100a657600080fd5b50356001600160a01b0316610125565b60006100c133610125565b604080513381526001600160a01b038316602082015281519293507f7dc7288b571724fc253653469146b103ac7feda79b8525a533f3c008a94ba963929081900390910190a190565b6000602081905290815260409020546001600160a01b031681565b6001600160a01b0381811660009081526020819052604081205490911615806101d157506001600160a01b0380831660008181526020818152604091829020548251638da5cb5b60e01b8152925193941692638da5cb5b926004808201939291829003018186803b15801561019957600080fd5b505afa1580156101ad573d6000803e3d6000fd5b505050506040513d60208110156101c357600080fd5b50516001600160a01b031614155b6101da57600080fd5b600154604080516379b80ed160e11b81526001600160a01b0385811660048301529151919092169163f3701da29160248083019260209291908290030181600087803b15801561022957600080fd5b505af115801561023d573d6000803e3d6000fd5b505050506040513d602081101561025357600080fd5b50516001600160a01b038381166000818152602081815260409182902080546001600160a01b0319169486169485179055815192835282019290925281519293507f7dc7288b571724fc253653469146b103ac7feda79b8525a533f3c008a94ba963929081900390910190a191905056fea26469706673582212206f91132802eef83e28a13177e91f939f0ac539923e967f33ce60d7771e4456cc64736f6c63430006070033",
        "linkReferences": {}
    },
    "methodIdentifiers": {
        "build()": "8e1a55fc",
        "build(address)": "f3701da2",
        "proxies(address)": "c4552791"
    },
    "id": 28
}