{
    "abi": [
        {
            "inputs": [
                {
                    "internalType": "address",
                    "name": "safeEngine_",
                    "type": "address"
                }
            ],
            "stateMutability": "nonpayable",
            "type": "constructor"
        },
        {
            "anonymous": false,
            "inputs": [
                {
                    "indexed": false,
                    "internalType": "address",
                    "name": "sender",
                    "type": "address"
                },
                {
                    "indexed": false,
                    "internalType": "address",
                    "name": "usr",
                    "type": "address"
                },
                {
                    "indexed": false,
                    "internalType": "uint256",
                    "name": "ok",
                    "type": "uint256"
                }
            ],
            "name": "AllowHandler",
            "type": "event"
        },
        {
            "anonymous": false,
            "inputs": [
                {
                    "indexed": false,
                    "internalType": "address",
                    "name": "sender",
                    "type": "address"
                },
                {
                    "indexed": false,
                    "internalType": "uint256",
                    "name": "safe",
                    "type": "uint256"
                },
                {
                    "indexed": false,
                    "internalType": "address",
                    "name": "usr",
                    "type": "address"
                },
                {
                    "indexed": false,
                    "internalType": "uint256",
                    "name": "ok",
                    "type": "uint256"
                }
            ],
            "name": "AllowSAFE",
            "type": "event"
        },
        {
            "anonymous": false,
            "inputs": [
                {
                    "indexed": false,
                    "internalType": "address",
                    "name": "sender",
                    "type": "address"
                },
                {
                    "indexed": false,
                    "internalType": "address",
                    "name": "src",
                    "type": "address"
                },
                {
                    "indexed": false,
                    "internalType": "uint256",
                    "name": "safe",
                    "type": "uint256"
                }
            ],
            "name": "EnterSystem",
            "type": "event"
        },
        {
            "anonymous": false,
            "inputs": [
                {
                    "indexed": false,
                    "internalType": "address",
                    "name": "sender",
                    "type": "address"
                },
                {
                    "indexed": false,
                    "internalType": "uint256",
                    "name": "safe",
                    "type": "uint256"
                },
                {
                    "indexed": false,
                    "internalType": "int256",
                    "name": "deltaCollateral",
                    "type": "int256"
                },
                {
                    "indexed": false,
                    "internalType": "int256",
                    "name": "deltaDebt",
                    "type": "int256"
                }
            ],
            "name": "ModifySAFECollateralization",
            "type": "event"
        },
        {
            "anonymous": false,
            "inputs": [
                {
                    "indexed": false,
                    "internalType": "address",
                    "name": "sender",
                    "type": "address"
                },
                {
                    "indexed": false,
                    "internalType": "uint256",
                    "name": "safeSrc",
                    "type": "uint256"
                },
                {
                    "indexed": false,
                    "internalType": "uint256",
                    "name": "safeDst",
                    "type": "uint256"
                }
            ],
            "name": "MoveSAFE",
            "type": "event"
        },
        {
            "anonymous": false,
            "inputs": [
                {
                    "indexed": true,
                    "internalType": "address",
                    "name": "sender",
                    "type": "address"
                },
                {
                    "indexed": true,
                    "internalType": "address",
                    "name": "own",
                    "type": "address"
                },
                {
                    "indexed": true,
                    "internalType": "uint256",
                    "name": "safe",
                    "type": "uint256"
                }
            ],
            "name": "OpenSAFE",
            "type": "event"
        },
        {
            "anonymous": false,
            "inputs": [
                {
                    "indexed": false,
                    "internalType": "address",
                    "name": "sender",
                    "type": "address"
                },
                {
                    "indexed": false,
                    "internalType": "uint256",
                    "name": "safe",
                    "type": "uint256"
                },
                {
                    "indexed": false,
                    "internalType": "address",
                    "name": "liquidationEngine",
                    "type": "address"
                },
                {
                    "indexed": false,
                    "internalType": "address",
                    "name": "saviour",
                    "type": "address"
                }
            ],
            "name": "ProtectSAFE",
            "type": "event"
        },
        {
            "anonymous": false,
            "inputs": [
                {
                    "indexed": false,
                    "internalType": "address",
                    "name": "sender",
                    "type": "address"
                },
                {
                    "indexed": false,
                    "internalType": "uint256",
                    "name": "safe",
                    "type": "uint256"
                },
                {
                    "indexed": false,
                    "internalType": "address",
                    "name": "dst",
                    "type": "address"
                }
            ],
            "name": "QuitSystem",
            "type": "event"
        },
        {
            "anonymous": false,
            "inputs": [
                {
                    "indexed": false,
                    "internalType": "address",
                    "name": "sender",
                    "type": "address"
                },
                {
                    "indexed": false,
                    "internalType": "uint256",
                    "name": "safe",
                    "type": "uint256"
                },
                {
                    "indexed": false,
                    "internalType": "address",
                    "name": "dst",
                    "type": "address"
                },
                {
                    "indexed": false,
                    "internalType": "uint256",
                    "name": "wad",
                    "type": "uint256"
                }
            ],
            "name": "TransferCollateral",
            "type": "event"
        },
        {
            "anonymous": false,
            "inputs": [
                {
                    "indexed": false,
                    "internalType": "address",
                    "name": "sender",
                    "type": "address"
                },
                {
                    "indexed": false,
                    "internalType": "bytes32",
                    "name": "collateralType",
                    "type": "bytes32"
                },
                {
                    "indexed": false,
                    "internalType": "uint256",
                    "name": "safe",
                    "type": "uint256"
                },
                {
                    "indexed": false,
                    "internalType": "address",
                    "name": "dst",
                    "type": "address"
                },
                {
                    "indexed": false,
                    "internalType": "uint256",
                    "name": "wad",
                    "type": "uint256"
                }
            ],
            "name": "TransferCollateral",
            "type": "event"
        },
        {
            "anonymous": false,
            "inputs": [
                {
                    "indexed": false,
                    "internalType": "address",
                    "name": "sender",
                    "type": "address"
                },
                {
                    "indexed": false,
                    "internalType": "uint256",
                    "name": "safe",
                    "type": "uint256"
                },
                {
                    "indexed": false,
                    "internalType": "address",
                    "name": "dst",
                    "type": "address"
                },
                {
                    "indexed": false,
                    "internalType": "uint256",
                    "name": "rad",
                    "type": "uint256"
                }
            ],
            "name": "TransferInternalCoins",
            "type": "event"
        },
        {
            "anonymous": false,
            "inputs": [
                {
                    "indexed": false,
                    "internalType": "address",
                    "name": "sender",
                    "type": "address"
                },
                {
                    "indexed": false,
                    "internalType": "uint256",
                    "name": "safe",
                    "type": "uint256"
                },
                {
                    "indexed": false,
                    "internalType": "address",
                    "name": "dst",
                    "type": "address"
                }
            ],
            "name": "TransferSAFEOwnership",
            "type": "event"
        },
        {
            "inputs": [
                {
                    "internalType": "address",
                    "name": "usr",
                    "type": "address"
                },
                {
                    "internalType": "uint256",
                    "name": "ok",
                    "type": "uint256"
                }
            ],
            "name": "allowHandler",
            "outputs": [],
            "stateMutability": "nonpayable",
            "type": "function"
        },
        {
            "inputs": [
                {
                    "internalType": "uint256",
                    "name": "safe",
                    "type": "uint256"
                },
                {
                    "internalType": "address",
                    "name": "usr",
                    "type": "address"
                },
                {
                    "internalType": "uint256",
                    "name": "ok",
                    "type": "uint256"
                }
            ],
            "name": "allowSAFE",
            "outputs": [],
            "stateMutability": "nonpayable",
            "type": "function"
        },
        {
            "inputs": [
                {
                    "internalType": "uint256",
                    "name": "",
                    "type": "uint256"
                }
            ],
            "name": "collateralTypes",
            "outputs": [
                {
                    "internalType": "bytes32",
                    "name": "",
                    "type": "bytes32"
                }
            ],
            "stateMutability": "view",
            "type": "function"
        },
        {
            "inputs": [
                {
                    "internalType": "address",
                    "name": "src",
                    "type": "address"
                },
                {
                    "internalType": "uint256",
                    "name": "safe",
                    "type": "uint256"
                }
            ],
            "name": "enterSystem",
            "outputs": [],
            "stateMutability": "nonpayable",
            "type": "function"
        },
        {
            "inputs": [
                {
                    "internalType": "address",
                    "name": "",
                    "type": "address"
                }
            ],
            "name": "firstSAFEID",
            "outputs": [
                {
                    "internalType": "uint256",
                    "name": "",
                    "type": "uint256"
                }
            ],
            "stateMutability": "view",
            "type": "function"
        },
        {
            "inputs": [
                {
                    "internalType": "address",
                    "name": "",
                    "type": "address"
                },
                {
                    "internalType": "address",
                    "name": "",
                    "type": "address"
                }
            ],
            "name": "handlerCan",
            "outputs": [
                {
                    "internalType": "uint256",
                    "name": "",
                    "type": "uint256"
                }
            ],
            "stateMutability": "view",
            "type": "function"
        },
        {
            "inputs": [
                {
                    "internalType": "address",
                    "name": "",
                    "type": "address"
                }
            ],
            "name": "lastSAFEID",
            "outputs": [
                {
                    "internalType": "uint256",
                    "name": "",
                    "type": "uint256"
                }
            ],
            "stateMutability": "view",
            "type": "function"
        },
        {
            "inputs": [
                {
                    "internalType": "uint256",
                    "name": "safe",
                    "type": "uint256"
                },
                {
                    "internalType": "int256",
                    "name": "deltaCollateral",
                    "type": "int256"
                },
                {
                    "internalType": "int256",
                    "name": "deltaDebt",
                    "type": "int256"
                }
            ],
            "name": "modifySAFECollateralization",
            "outputs": [],
            "stateMutability": "nonpayable",
            "type": "function"
        },
        {
            "inputs": [
                {
                    "internalType": "uint256",
                    "name": "safeSrc",
                    "type": "uint256"
                },
                {
                    "internalType": "uint256",
                    "name": "safeDst",
                    "type": "uint256"
                }
            ],
            "name": "moveSAFE",
            "outputs": [],
            "stateMutability": "nonpayable",
            "type": "function"
        },
        {
            "inputs": [
                {
                    "internalType": "bytes32",
                    "name": "collateralType",
                    "type": "bytes32"
                },
                {
                    "internalType": "address",
                    "name": "usr",
                    "type": "address"
                }
            ],
            "name": "openSAFE",
            "outputs": [
                {
                    "internalType": "uint256",
                    "name": "",
                    "type": "uint256"
                }
            ],
            "stateMutability": "nonpayable",
            "type": "function"
        },
        {
            "inputs": [
                {
                    "internalType": "uint256",
                    "name": "",
                    "type": "uint256"
                }
            ],
            "name": "ownsSAFE",
            "outputs": [
                {
                    "internalType": "address",
                    "name": "",
                    "type": "address"
                }
            ],
            "stateMutability": "view",
            "type": "function"
        },
        {
            "inputs": [
                {
                    "internalType": "uint256",
                    "name": "safe",
                    "type": "uint256"
                },
                {
                    "internalType": "address",
                    "name": "liquidationEngine",
                    "type": "address"
                },
                {
                    "internalType": "address",
                    "name": "saviour",
                    "type": "address"
                }
            ],
            "name": "protectSAFE",
            "outputs": [],
            "stateMutability": "nonpayable",
            "type": "function"
        },
        {
            "inputs": [
                {
                    "internalType": "uint256",
                    "name": "safe",
                    "type": "uint256"
                },
                {
                    "internalType": "address",
                    "name": "dst",
                    "type": "address"
                }
            ],
            "name": "quitSystem",
            "outputs": [],
            "stateMutability": "nonpayable",
            "type": "function"
        },
        {
            "inputs": [
                {
                    "internalType": "address",
                    "name": "",
                    "type": "address"
                },
                {
                    "internalType": "uint256",
                    "name": "",
                    "type": "uint256"
                },
                {
                    "internalType": "address",
                    "name": "",
                    "type": "address"
                }
            ],
            "name": "safeCan",
            "outputs": [
                {
                    "internalType": "uint256",
                    "name": "",
                    "type": "uint256"
                }
            ],
            "stateMutability": "view",
            "type": "function"
        },
        {
            "inputs": [
                {
                    "internalType": "address",
                    "name": "",
                    "type": "address"
                }
            ],
            "name": "safeCount",
            "outputs": [
                {
                    "internalType": "uint256",
                    "name": "",
                    "type": "uint256"
                }
            ],
            "stateMutability": "view",
            "type": "function"
        },
        {
            "inputs": [],
            "name": "safeEngine",
            "outputs": [
                {
                    "internalType": "address",
                    "name": "",
                    "type": "address"
                }
            ],
            "stateMutability": "view",
            "type": "function"
        },
        {
            "inputs": [
                {
                    "internalType": "uint256",
                    "name": "",
                    "type": "uint256"
                }
            ],
            "name": "safeList",
            "outputs": [
                {
                    "internalType": "uint256",
                    "name": "prev",
                    "type": "uint256"
                },
                {
                    "internalType": "uint256",
                    "name": "next",
                    "type": "uint256"
                }
            ],
            "stateMutability": "view",
            "type": "function"
        },
        {
            "inputs": [],
            "name": "safei",
            "outputs": [
                {
                    "internalType": "uint256",
                    "name": "",
                    "type": "uint256"
                }
            ],
            "stateMutability": "view",
            "type": "function"
        },
        {
            "inputs": [
                {
                    "internalType": "uint256",
                    "name": "",
                    "type": "uint256"
                }
            ],
            "name": "safes",
            "outputs": [
                {
                    "internalType": "address",
                    "name": "",
                    "type": "address"
                }
            ],
            "stateMutability": "view",
            "type": "function"
        },
        {
            "inputs": [
                {
                    "internalType": "uint256",
                    "name": "safe",
                    "type": "uint256"
                },
                {
                    "internalType": "address",
                    "name": "dst",
                    "type": "address"
                },
                {
                    "internalType": "uint256",
                    "name": "wad",
                    "type": "uint256"
                }
            ],
            "name": "transferCollateral",
            "outputs": [],
            "stateMutability": "nonpayable",
            "type": "function"
        },
        {
            "inputs": [
                {
                    "internalType": "bytes32",
                    "name": "collateralType",
                    "type": "bytes32"
                },
                {
                    "internalType": "uint256",
                    "name": "safe",
                    "type": "uint256"
                },
                {
                    "internalType": "address",
                    "name": "dst",
                    "type": "address"
                },
                {
                    "internalType": "uint256",
                    "name": "wad",
                    "type": "uint256"
                }
            ],
            "name": "transferCollateral",
            "outputs": [],
            "stateMutability": "nonpayable",
            "type": "function"
        },
        {
            "inputs": [
                {
                    "internalType": "uint256",
                    "name": "safe",
                    "type": "uint256"
                },
                {
                    "internalType": "address",
                    "name": "dst",
                    "type": "address"
                },
                {
                    "internalType": "uint256",
                    "name": "rad",
                    "type": "uint256"
                }
            ],
            "name": "transferInternalCoins",
            "outputs": [],
            "stateMutability": "nonpayable",
            "type": "function"
        },
        {
            "inputs": [
                {
                    "internalType": "uint256",
                    "name": "safe",
                    "type": "uint256"
                },
                {
                    "internalType": "address",
                    "name": "dst",
                    "type": "address"
                }
            ],
            "name": "transferSAFEOwnership",
            "outputs": [],
            "stateMutability": "nonpayable",
            "type": "function"
        }
    ],
    "bytecode": {
        "object": "0x608060405234801561001057600080fd5b50604051611f96380380611f968339818101604052602081101561003357600080fd5b5051600080546001600160a01b039092166001600160a01b0319909216919091179055611f31806100656000396000f3fe608060405234801561001057600080fd5b506004361061014d5760003560e01c80636ffdabbf116100c3578063a2a4d76e1161007c578063a2a4d76e14610415578063aa1d8d8114610432578063c78101f81461046a578063ce05264d14610493578063d983ff95146104c1578063e0decbcd146104ed5761014d565b80636ffdabbf1461030c57806380bdb6b214610338578063871581a214610364578063918b7cfe146103965780639898ac79146103b3578063a26292db146103e95761014d565b8063434efcbd11610115578063434efcbd146102095780634fa053b114610242578063511c743d14610278578063660e16071461029e57806367aea313146102d05780636f0942a4146102d85761014d565b8063018477a51461015257806304e461ef146101775780630ae43e4e146101af57806318c254b8146101d5578063391735c1146101dd575b600080fd5b6101756004803603604081101561016857600080fd5b508035906020013561051f565b005b61019d6004803603602081101561018d57600080fd5b50356001600160a01b0316610863565b60408051918252519081900360200190f35b61019d600480360360208110156101c557600080fd5b50356001600160a01b0316610875565b61019d610887565b610175600480360360408110156101f357600080fd5b506001600160a01b03813516906020013561088d565b6102266004803603602081101561021f57600080fd5b50356108f7565b604080516001600160a01b039092168252519081900360200190f35b61019d6004803603606081101561025857600080fd5b506001600160a01b03813581169160208101359160409091013516610912565b61019d6004803603602081101561028e57600080fd5b50356001600160a01b0316610935565b610175600480360360608110156102b457600080fd5b508035906001600160a01b036020820135169060400135610947565b610226610ab7565b610175600480360360608110156102ee57600080fd5b508035906001600160a01b0360208201358116916040013516610ac6565b6101756004803603604081101561032257600080fd5b506001600160a01b038135169060200135610c43565b6101756004803603604081101561034e57600080fd5b50803590602001356001600160a01b0316610f0d565b6101756004803603606081101561037a57600080fd5b508035906001600160a01b0360208201351690604001356112eb565b61019d600480360360208110156103ac57600080fd5b503561146e565b6103d0600480360360208110156103c957600080fd5b5035611480565b6040805192835260208301919091528051918290030190f35b610175600480360360408110156103ff57600080fd5b50803590602001356001600160a01b0316611499565b6102266004803603602081101561042b57600080fd5b503561176f565b6101756004803603608081101561044857600080fd5b508035906020810135906001600160a01b03604082013516906060013561178a565b6101756004803603606081101561048057600080fd5b5080359060208101359060400135611909565b61019d600480360360408110156104a957600080fd5b506001600160a01b0381358116916020013516611a98565b61019d600480360360408110156104d757600080fd5b50803590602001356001600160a01b0316611ab5565b6101756004803603606081101561050357600080fd5b508035906001600160a01b036020820135169060400135611cb8565b60008281526004602052604090205482906001600160a01b031633148061057a57506000818152600460209081526040808320546001600160a01b031683526009825280832084845282528083203384529091529020546001145b6105be576040805162461bcd60e51b815260206004820152601060248201526f1cd859994b5b9bdd0b585b1b1bddd95960821b604482015290519081900360640190fd5b60008281526004602052604090205482906001600160a01b031633148061061957506000818152600460209081526040808320546001600160a01b031683526009825280832084845282528083203384529091529020546001145b61065d576040805162461bcd60e51b815260206004820152601060248201526f1cd859994b5b9bdd0b585b1b1bddd95960821b604482015290519081900360640190fd5b60008381526005602052604080822054868352912054146106ba576040805162461bcd60e51b81526020600482015260126024820152716e6f6e2d6d61746368696e672d736166657360701b604482015290519081900360640190fd5b60008054858252600560209081526040808420546002909252808420548151630f50894160e21b815260048101939093526001600160a01b039081166024840152815185949190911692633d422504926044808301939192829003018186803b15801561072657600080fd5b505afa15801561073a573d6000803e3d6000fd5b505050506040513d604081101561075057600080fd5b5080516020909101519092509050600061076983611de0565b9050600061077683611de0565b600080548a8252600560209081526040808420546002909252808420548c855281852054825163476bb6ef60e01b815260048101949094526001600160a01b03918216602485015281166044840152606483018890526084830186905290519495509091169263476bb6ef9260a48084019391929182900301818387803b15801561080057600080fd5b505af1158015610814573d6000803e3d6000fd5b505060408051338152602081018c90528082018b905290517fa97fba7e365c0128f8b08a83e0818826957948356accc061289463915f4aef699350908190036060019150a15050505050505050565b60066020526000908152604090205481565b60086020526000908152604090205481565b60015481565b336000818152600a602090815260408083206001600160a01b03871680855290835292819020859055805193845290830191909152818101839052517faa78deb20213efe10f6ff8128a962635826ed67c51a5f7bf318dd1c37ceabbd09181900360600190a15050565b6002602052600090815260409020546001600160a01b031681565b600960209081526000938452604080852082529284528284209052825290205481565b60076020526000908152604090205481565b60008381526004602052604090205483906001600160a01b03163314806109a257506000818152600460209081526040808320546001600160a01b031683526009825280832084845282528083203384529091529020546001145b6109e6576040805162461bcd60e51b815260206004820152601060248201526f1cd859994b5b9bdd0b585b1b1bddd95960821b604482015290519081900360640190fd5b6000805485825260026020526040808320548151633beaf2b760e21b81526001600160a01b039182166004820152878216602482015260448101879052915192169263efabcadc9260648084019382900301818387803b158015610a4957600080fd5b505af1158015610a5d573d6000803e3d6000fd5b505060408051338152602081018890526001600160a01b038716818301526060810186905290517f4bcf3a338d8f80224ef2faba6a44cf6740cc4ba448c950d7c99bbe02da4b710b9350908190036080019150a150505050565b6000546001600160a01b031681565b60008381526004602052604090205483906001600160a01b0316331480610b2157506000818152600460209081526040808320546001600160a01b031683526009825280832084845282528083203384529091529020546001145b610b65576040805162461bcd60e51b815260206004820152601060248201526f1cd859994b5b9bdd0b585b1b1bddd95960821b604482015290519081900360640190fd5b6000848152600560209081526040808320546002909252808320548151630e25a8e160e21b815260048101939093526001600160a01b0390811660248401528581166044840152905190861692633896a384926064808201939182900301818387803b158015610bd457600080fd5b505af1158015610be8573d6000803e3d6000fd5b505060408051338152602081018890526001600160a01b03808816828401528616606082015290517f2dd35b03a7c5d91157bc84411fbe9950d393a57972a764a09c74fdc2316ad29d9350908190036080019150a150505050565b81336001600160a01b0382161480610c7e57506001600160a01b0381166000908152600a602090815260408083203384529091529020546001145b610ccf576040805162461bcd60e51b815260206004820181905260248201527f696e7465726e616c2d73797374656d2d736166652d6e6f742d616c6c6f776564604482015290519081900360640190fd5b60008281526004602052604090205482906001600160a01b0316331480610d2a57506000818152600460209081526040808320546001600160a01b031683526009825280832084845282528083203384529091529020546001145b610d6e576040805162461bcd60e51b815260206004820152601060248201526f1cd859994b5b9bdd0b585b1b1bddd95960821b604482015290519081900360640190fd5b6000805484825260056020526040808320548151630f50894160e21b815260048101919091526001600160a01b038881166024830152825185949190911692633d4225049260448082019391829003018186803b158015610dce57600080fd5b505afa158015610de2573d6000803e3d6000fd5b505050506040513d6040811015610df857600080fd5b50805160209091015190925090506000610e1183611de0565b90506000610e1e83611de0565b6000805489825260056020908152604080842054600290925280842054815163476bb6ef60e01b815260048101939093526001600160a01b038e811660248501529081166044840152606483018890526084830186905290519495509091169263476bb6ef9260a48084019391929182900301818387803b158015610ea257600080fd5b505af1158015610eb6573d6000803e3d6000fd5b5050604080513381526001600160a01b038c1660208201528082018b905290517f218e81d047133e990e0c3fef0ae3fdbc9b1de4b9775baac9b011b45f585cd64a9350908190036060019150a15050505050505050565b60008281526004602052604090205482906001600160a01b0316331480610f6857506000818152600460209081526040808320546001600160a01b031683526009825280832084845282528083203384529091529020546001145b610fac576040805162461bcd60e51b815260206004820152601060248201526f1cd859994b5b9bdd0b585b1b1bddd95960821b604482015290519081900360640190fd5b6001600160a01b038216610ff7576040805162461bcd60e51b815260206004820152600d60248201526c06473742d616464726573732d3609c1b604482015290519081900360640190fd5b6000838152600460205260409020546001600160a01b038381169116141561105a576040805162461bcd60e51b81526020600482015260116024820152703239ba16b0b63932b0b23c96b7bbb732b960791b604482015290519081900360640190fd5b6000838152600360205260409020541561108e57600083815260036020526040808220600180820154915484529190922001555b600083815260036020526040902060010154156110c657600083815260036020526040808220805460019091015483529120556110f5565b60008381526003602090815260408083205460048352818420546001600160a01b031684526007909252909120555b6000838152600460209081526040808320546001600160a01b0316835260069091529020548314156111535760008381526003602090815260408083206001015460048352818420546001600160a01b031684526006909252909120555b6000838152600460209081526040808320546001600160a01b031683526008909152902054611183906001611df4565b600084815260046020908152604080832080546001600160a01b039081168552600884528285209590955580546001600160a01b031916948716948517905583835260078083528184208054898652600385529285209283556001929092018490559390925291909152541561121f576001600160a01b0382166000908152600760209081526040808320548352600390915290206001018390555b6001600160a01b038216600090815260066020526040902054611258576001600160a01b03821660009081526006602052604090208390555b6001600160a01b03821660009081526007602090815260408083208690556008909152902054611289906001611e04565b6001600160a01b03831660008181526008602090815260409182902093909355805133815292830186905282810191909152517f53a4da6d15fe50375abfb512358024b4a99422da4c26736d2ed0f9540ddb27969181900360600190a1505050565b60008381526004602052604090205483906001600160a01b031633148061134657506000818152600460209081526040808320546001600160a01b031683526009825280832084845282528083203384529091529020546001145b61138a576040805162461bcd60e51b815260206004820152601060248201526f1cd859994b5b9bdd0b585b1b1bddd95960821b604482015290519081900360640190fd5b6000805485825260056020908152604080842054600290925280842054815163272888d360e11b815260048101939093526001600160a01b0390811660248401528781166044840152606483018790529051921692634e5111a69260848084019382900301818387803b15801561140057600080fd5b505af1158015611414573d6000803e3d6000fd5b505060408051338152602081018890526001600160a01b038716818301526060810186905290517fc0db7defff3210677ded74d20a6b47a7e48901c4ca7a5978dbed3826f4870d309350908190036080019150a150505050565b60056020526000908152604090205481565b6003602052600090815260409020805460019091015482565b60008281526004602052604090205482906001600160a01b03163314806114f457506000818152600460209081526040808320546001600160a01b031683526009825280832084845282528083203384529091529020546001145b611538576040805162461bcd60e51b815260206004820152601060248201526f1cd859994b5b9bdd0b585b1b1bddd95960821b604482015290519081900360640190fd5b81336001600160a01b038216148061157357506001600160a01b0381166000908152600a602090815260408083203384529091529020546001145b6115c4576040805162461bcd60e51b815260206004820181905260248201527f696e7465726e616c2d73797374656d2d736166652d6e6f742d616c6c6f776564604482015290519081900360640190fd5b60008054858252600560209081526040808420546002909252808420548151630f50894160e21b815260048101939093526001600160a01b039081166024840152815185949190911692633d422504926044808301939192829003018186803b15801561163057600080fd5b505afa158015611644573d6000803e3d6000fd5b505050506040513d604081101561165a57600080fd5b5080516020909101519092509050600061167383611de0565b9050600061168083611de0565b600080548a825260056020908152604080842054600290925280842054815163476bb6ef60e01b815260048101939093526001600160a01b0390811660248401528c81166044840152606483018890526084830186905290519495509091169263476bb6ef9260a48084019391929182900301818387803b15801561170457600080fd5b505af1158015611718573d6000803e3d6000fd5b505060408051338152602081018c90526001600160a01b038b168183015290517fc819508e420d88636175642d4552e0689efcf0f97db14737c1f4224ed66323cd9350908190036060019150a15050505050505050565b6004602052600090815260409020546001600160a01b031681565b60008381526004602052604090205483906001600160a01b03163314806117e557506000818152600460209081526040808320546001600160a01b031683526009825280832084845282528083203384529091529020546001145b611829576040805162461bcd60e51b815260206004820152601060248201526f1cd859994b5b9bdd0b585b1b1bddd95960821b604482015290519081900360640190fd5b600080548582526002602052604080832054815163272888d360e11b8152600481018a90526001600160a01b0391821660248201528782166044820152606481018790529151921692634e5111a69260848084019382900301818387803b15801561189357600080fd5b505af11580156118a7573d6000803e3d6000fd5b505060408051338152602081018990528082018890526001600160a01b03871660608201526080810186905290517f0be149ca022ee027e452e448a55a6b15da9081ab45afecbc8715ca1626c9cdf393509081900360a0019150a15050505050565b60008381526004602052604090205483906001600160a01b031633148061196457506000818152600460209081526040808320546001600160a01b031683526009825280832084845282528083203384529091529020546001145b6119a8576040805162461bcd60e51b815260206004820152601060248201526f1cd859994b5b9bdd0b585b1b1bddd95960821b604482015290519081900360640190fd5b600084815260026020908152604080832054835460059093528184205482516399bec31560e01b815260048101919091526001600160a01b039182166024820181905260448201819052606482018190526084820189905260a482018890529251929493909116926399bec3159260c48084019382900301818387803b158015611a3157600080fd5b505af1158015611a45573d6000803e3d6000fd5b505060408051338152602081018990528082018890526060810187905290517f4a1d86235388d42bee8b26817295ba354feb351780a0005e14a02303ac302df89350908190036080019150a15050505050565b600a60209081526000928352604080842090915290825290205481565b60006001600160a01b038216611b02576040805162461bcd60e51b815260206004820152600d60248201526c07573722d616464726573732d3609c1b604482015290519081900360640190fd5b611b0f6001546001611e04565b6001556000546040516001600160a01b0390911690611b2d90611e14565b6001600160a01b03909116815260405190819003602001906000f080158015611b5a573d6000803e3d6000fd5b5060018054600090815260026020908152604080832080546001600160a01b039687166001600160a01b03199182161790915584548452600483528184208054968916969091168617905592548252600581528282208790559281526006909252902054611bdf576001546001600160a01b0383166000908152600660205260409020555b6001600160a01b03821660009081526007602052604090205415611c34576001600160a01b03821660009081526007602090815260408083205460018054855260039093528184208190558254908452922001555b600180546001600160a01b038416600090815260076020908152604080832093909355600890522054611c6691611e04565b6001600160a01b03831660008181526008602052604080822093909355600154925133917fec2d798cbd6c16b0081feb29a63dd41e115efa1047e86d08fff4b1739865bcf791a4506001545b92915050565b60008381526004602052604090205483906001600160a01b0316331480611d1357506000818152600460209081526040808320546001600160a01b031683526009825280832084845282528083203384529091529020546001145b611d57576040805162461bcd60e51b815260206004820152601060248201526f1cd859994b5b9bdd0b585b1b1bddd95960821b604482015290519081900360640190fd5b6000848152600460209081526040808320546001600160a01b039081168452600983528184208885528352818420908716808552908352928190208590558051338152918201879052818101929092526060810184905290517f3795e85c6a36b093c1600285f715dc4692d9f81b9b39778a16dacb483eed249a9181900360800190a150505050565b806000811215611def57600080fd5b919050565b80820382811115611cb257600080fd5b80820182811015611cb257600080fd5b60db80611e218339019056fe6080604052348015600f57600080fd5b5060405160db38038060db83398181016040526020811015602f57600080fd5b505160408051631b29a84160e31b815233600482015290516001600160a01b0383169163d94d420891602480830192600092919082900301818387803b158015607757600080fd5b505af1158015608a573d6000803e3d6000fd5b5050505050603f80609c6000396000f3fe6080604052600080fdfea26469706673582212200fe839c77dcb225cdbd358c123f3ea3aad02499710a5292143ad6f0442ecd39364736f6c63430006070033a2646970667358221220a6e7b74fadd55dbaa708c93b0e57af8fa18902f589c101fefd7aa754f67a2b2e64736f6c63430006070033",
        "linkReferences": {}
    },
    "methodIdentifiers": {
        "allowHandler(address,uint256)": "391735c1",
        "allowSAFE(uint256,address,uint256)": "e0decbcd",
        "collateralTypes(uint256)": "918b7cfe",
        "enterSystem(address,uint256)": "6ffdabbf",
        "firstSAFEID(address)": "04e461ef",
        "handlerCan(address,address)": "ce05264d",
        "lastSAFEID(address)": "511c743d",
        "modifySAFECollateralization(uint256,int256,int256)": "c78101f8",
        "moveSAFE(uint256,uint256)": "018477a5",
        "openSAFE(bytes32,address)": "d983ff95",
        "ownsSAFE(uint256)": "a2a4d76e",
        "protectSAFE(uint256,address,address)": "6f0942a4",
        "quitSystem(uint256,address)": "a26292db",
        "safeCan(address,uint256,address)": "4fa053b1",
        "safeCount(address)": "0ae43e4e",
        "safeEngine()": "67aea313",
        "safeList(uint256)": "9898ac79",
        "safei()": "18c254b8",
        "safes(uint256)": "434efcbd",
        "transferCollateral(bytes32,uint256,address,uint256)": "aa1d8d81",
        "transferCollateral(uint256,address,uint256)": "871581a2",
        "transferInternalCoins(uint256,address,uint256)": "660e1607",
        "transferSAFEOwnership(uint256,address)": "80bdb6b2"
    },
    "id": 35
}