{
    "abi": [
        {
            "inputs": [
                {
                    "internalType": "address",
                    "name": "safeEngine_",
                    "type": "address"
                },
                {
                    "internalType": "address",
                    "name": "protocolToken_",
                    "type": "address"
                }
            ],
            "stateMutability": "nonpayable",
            "type": "constructor"
        },
        {
            "anonymous": false,
            "inputs": [
                {
                    "indexed": false,
                    "internalType": "address",
                    "name": "account",
                    "type": "address"
                }
            ],
            "name": "AddAuthorization",
            "type": "event"
        },
        {
            "anonymous": false,
            "inputs": [],
            "name": "DisableContract",
            "type": "event"
        },
        {
            "anonymous": false,
            "inputs": [
                {
                    "indexed": false,
                    "internalType": "uint256",
                    "name": "id",
                    "type": "uint256"
                },
                {
                    "indexed": false,
                    "internalType": "address",
                    "name": "highBidder",
                    "type": "address"
                },
                {
                    "indexed": false,
                    "internalType": "uint256",
                    "name": "amountToBuy",
                    "type": "uint256"
                },
                {
                    "indexed": false,
                    "internalType": "uint256",
                    "name": "bid",
                    "type": "uint256"
                },
                {
                    "indexed": false,
                    "internalType": "uint256",
                    "name": "bidExpiry",
                    "type": "uint256"
                }
            ],
            "name": "IncreaseBidSize",
            "type": "event"
        },
        {
            "anonymous": false,
            "inputs": [
                {
                    "indexed": false,
                    "internalType": "bytes32",
                    "name": "parameter",
                    "type": "bytes32"
                },
                {
                    "indexed": false,
                    "internalType": "uint256",
                    "name": "data",
                    "type": "uint256"
                }
            ],
            "name": "ModifyParameters",
            "type": "event"
        },
        {
            "anonymous": false,
            "inputs": [
                {
                    "indexed": false,
                    "internalType": "bytes32",
                    "name": "parameter",
                    "type": "bytes32"
                },
                {
                    "indexed": false,
                    "internalType": "address",
                    "name": "addr",
                    "type": "address"
                }
            ],
            "name": "ModifyParameters",
            "type": "event"
        },
        {
            "anonymous": false,
            "inputs": [
                {
                    "indexed": false,
                    "internalType": "address",
                    "name": "account",
                    "type": "address"
                }
            ],
            "name": "RemoveAuthorization",
            "type": "event"
        },
        {
            "anonymous": false,
            "inputs": [
                {
                    "indexed": false,
                    "internalType": "uint256",
                    "name": "id",
                    "type": "uint256"
                },
                {
                    "indexed": false,
                    "internalType": "uint256",
                    "name": "auctionDeadline",
                    "type": "uint256"
                }
            ],
            "name": "RestartAuction",
            "type": "event"
        },
        {
            "anonymous": false,
            "inputs": [
                {
                    "indexed": true,
                    "internalType": "uint256",
                    "name": "id",
                    "type": "uint256"
                }
            ],
            "name": "SettleAuction",
            "type": "event"
        },
        {
            "anonymous": false,
            "inputs": [
                {
                    "indexed": true,
                    "internalType": "uint256",
                    "name": "id",
                    "type": "uint256"
                },
                {
                    "indexed": false,
                    "internalType": "uint256",
                    "name": "auctionsStarted",
                    "type": "uint256"
                },
                {
                    "indexed": false,
                    "internalType": "uint256",
                    "name": "amountToSell",
                    "type": "uint256"
                },
                {
                    "indexed": false,
                    "internalType": "uint256",
                    "name": "initialBid",
                    "type": "uint256"
                },
                {
                    "indexed": false,
                    "internalType": "uint256",
                    "name": "auctionDeadline",
                    "type": "uint256"
                }
            ],
            "name": "StartAuction",
            "type": "event"
        },
        {
            "anonymous": false,
            "inputs": [
                {
                    "indexed": true,
                    "internalType": "uint256",
                    "name": "id",
                    "type": "uint256"
                },
                {
                    "indexed": false,
                    "internalType": "address",
                    "name": "sender",
                    "type": "address"
                },
                {
                    "indexed": false,
                    "internalType": "address",
                    "name": "highBidder",
                    "type": "address"
                },
                {
                    "indexed": false,
                    "internalType": "uint256",
                    "name": "bidAmount",
                    "type": "uint256"
                }
            ],
            "name": "TerminateAuctionPrematurely",
            "type": "event"
        },
        {
            "inputs": [],
            "name": "AUCTION_HOUSE_TYPE",
            "outputs": [
                {
                    "internalType": "bytes32",
                    "name": "",
                    "type": "bytes32"
                }
            ],
            "stateMutability": "view",
            "type": "function"
        },
        {
            "inputs": [],
            "name": "FIFTY",
            "outputs": [
                {
                    "internalType": "uint256",
                    "name": "",
                    "type": "uint256"
                }
            ],
            "stateMutability": "view",
            "type": "function"
        },
        {
            "inputs": [],
            "name": "HUNDRED",
            "outputs": [
                {
                    "internalType": "uint256",
                    "name": "",
                    "type": "uint256"
                }
            ],
            "stateMutability": "view",
            "type": "function"
        },
        {
            "inputs": [],
            "name": "SURPLUS_AUCTION_TYPE",
            "outputs": [
                {
                    "internalType": "bytes32",
                    "name": "",
                    "type": "bytes32"
                }
            ],
            "stateMutability": "view",
            "type": "function"
        },
        {
            "inputs": [
                {
                    "internalType": "address",
                    "name": "account",
                    "type": "address"
                }
            ],
            "name": "addAuthorization",
            "outputs": [],
            "stateMutability": "nonpayable",
            "type": "function"
        },
        {
            "inputs": [],
            "name": "auctionsStarted",
            "outputs": [
                {
                    "internalType": "uint256",
                    "name": "",
                    "type": "uint256"
                }
            ],
            "stateMutability": "view",
            "type": "function"
        },
        {
            "inputs": [
                {
                    "internalType": "address",
                    "name": "",
                    "type": "address"
                }
            ],
            "name": "authorizedAccounts",
            "outputs": [
                {
                    "internalType": "uint256",
                    "name": "",
                    "type": "uint256"
                }
            ],
            "stateMutability": "view",
            "type": "function"
        },
        {
            "inputs": [],
            "name": "bidDuration",
            "outputs": [
                {
                    "internalType": "uint48",
                    "name": "",
                    "type": "uint48"
                }
            ],
            "stateMutability": "view",
            "type": "function"
        },
        {
            "inputs": [],
            "name": "bidIncrease",
            "outputs": [
                {
                    "internalType": "uint256",
                    "name": "",
                    "type": "uint256"
                }
            ],
            "stateMutability": "view",
            "type": "function"
        },
        {
            "inputs": [
                {
                    "internalType": "uint256",
                    "name": "",
                    "type": "uint256"
                }
            ],
            "name": "bids",
            "outputs": [
                {
                    "internalType": "uint256",
                    "name": "bidAmount",
                    "type": "uint256"
                },
                {
                    "internalType": "uint256",
                    "name": "amountToSell",
                    "type": "uint256"
                },
                {
                    "internalType": "address",
                    "name": "highBidder",
                    "type": "address"
                },
                {
                    "internalType": "uint48",
                    "name": "bidExpiry",
                    "type": "uint48"
                },
                {
                    "internalType": "uint48",
                    "name": "auctionDeadline",
                    "type": "uint48"
                }
            ],
            "stateMutability": "view",
            "type": "function"
        },
        {
            "inputs": [],
            "name": "contractEnabled",
            "outputs": [
                {
                    "internalType": "uint256",
                    "name": "",
                    "type": "uint256"
                }
            ],
            "stateMutability": "view",
            "type": "function"
        },
        {
            "inputs": [],
            "name": "disableContract",
            "outputs": [],
            "stateMutability": "nonpayable",
            "type": "function"
        },
        {
            "inputs": [
                {
                    "internalType": "uint256",
                    "name": "id",
                    "type": "uint256"
                },
                {
                    "internalType": "uint256",
                    "name": "amountToBuy",
                    "type": "uint256"
                },
                {
                    "internalType": "uint256",
                    "name": "bid",
                    "type": "uint256"
                }
            ],
            "name": "increaseBidSize",
            "outputs": [],
            "stateMutability": "nonpayable",
            "type": "function"
        },
        {
            "inputs": [
                {
                    "internalType": "bytes32",
                    "name": "parameter",
                    "type": "bytes32"
                },
                {
                    "internalType": "address",
                    "name": "addr",
                    "type": "address"
                }
            ],
            "name": "modifyParameters",
            "outputs": [],
            "stateMutability": "nonpayable",
            "type": "function"
        },
        {
            "inputs": [
                {
                    "internalType": "bytes32",
                    "name": "parameter",
                    "type": "bytes32"
                },
                {
                    "internalType": "uint256",
                    "name": "data",
                    "type": "uint256"
                }
            ],
            "name": "modifyParameters",
            "outputs": [],
            "stateMutability": "nonpayable",
            "type": "function"
        },
        {
            "inputs": [],
            "name": "protocolToken",
            "outputs": [
                {
                    "internalType": "contract TokenLike",
                    "name": "",
                    "type": "address"
                }
            ],
            "stateMutability": "view",
            "type": "function"
        },
        {
            "inputs": [],
            "name": "protocolTokenBidReceiver",
            "outputs": [
                {
                    "internalType": "address",
                    "name": "",
                    "type": "address"
                }
            ],
            "stateMutability": "view",
            "type": "function"
        },
        {
            "inputs": [
                {
                    "internalType": "address",
                    "name": "account",
                    "type": "address"
                }
            ],
            "name": "removeAuthorization",
            "outputs": [],
            "stateMutability": "nonpayable",
            "type": "function"
        },
        {
            "inputs": [
                {
                    "internalType": "uint256",
                    "name": "id",
                    "type": "uint256"
                }
            ],
            "name": "restartAuction",
            "outputs": [],
            "stateMutability": "nonpayable",
            "type": "function"
        },
        {
            "inputs": [],
            "name": "safeEngine",
            "outputs": [
                {
                    "internalType": "contract SAFEEngineLike",
                    "name": "",
                    "type": "address"
                }
            ],
            "stateMutability": "view",
            "type": "function"
        },
        {
            "inputs": [
                {
                    "internalType": "uint256",
                    "name": "id",
                    "type": "uint256"
                }
            ],
            "name": "settleAuction",
            "outputs": [],
            "stateMutability": "nonpayable",
            "type": "function"
        },
        {
            "inputs": [
                {
                    "internalType": "uint256",
                    "name": "amountToSell",
                    "type": "uint256"
                },
                {
                    "internalType": "uint256",
                    "name": "initialBid",
                    "type": "uint256"
                }
            ],
            "name": "startAuction",
            "outputs": [
                {
                    "internalType": "uint256",
                    "name": "id",
                    "type": "uint256"
                }
            ],
            "stateMutability": "nonpayable",
            "type": "function"
        },
        {
            "inputs": [
                {
                    "internalType": "uint256",
                    "name": "id",
                    "type": "uint256"
                }
            ],
            "name": "terminateAuctionPrematurely",
            "outputs": [],
            "stateMutability": "nonpayable",
            "type": "function"
        },
        {
            "inputs": [],
            "name": "totalAuctionLength",
            "outputs": [
                {
                    "internalType": "uint48",
                    "name": "",
                    "type": "uint48"
                }
            ],
            "stateMutability": "view",
            "type": "function"
        }
    ],
    "bytecode": {
        "object": "0x6080604052670e92596fd629000060055560068054612a3065ffffffffffff199091161765ffffffffffff60301b19166802a300000000000000179055600060075534801561004d57600080fd5b50604051611c56380380611c568339818101604052604081101561007057600080fd5b508051602091820151336000818152808552604090819020600190819055600280546001600160a01b038088166001600160a01b0319928316179092556003805492871692909116919091179055600855805191825251929391927f599a298163e1678bb1c676052a8930bf0b8a1261ed6e01b8a2391e55f7000102929181900390910190a15050611b4f806101076000396000f3fe608060405234801561001057600080fd5b50600436106101585760003560e01c80636614f010116100c3578063ad57f9f11161007c578063ad57f9f11461036f578063d25ccf5314610377578063f0ed4db014610394578063f6b45eb71461039c578063f85fc0ab146103a4578063fe4f5890146103ac57610158565b80636614f010146102cd57806367aea313146102f957806373c0a36714610301578063894ba83314610324578063933f76081461032c57806394f3f81d1461034957610158565b806341b3a0d91161011557806341b3a0d91461020e5780634423c5f1146102165780634fee13fc14610271578063551cb3b1146102945780635a93f0311461029c578063619ed1f8146102c557610158565b80630ac239e51461015d5780631266fb94146101775780631a465fe11461017f57806324ba5884146101a35780632e993611146101c957806335b28153146101e8575b600080fd5b6101656103cf565b60408051918252519081900360200190f35b6101656103d5565b6101876103e3565b604080516001600160a01b039092168252519081900360200190f35b610165600480360360208110156101b957600080fd5b50356001600160a01b03166103f2565b6101e6600480360360208110156101df57600080fd5b5035610404565b005b6101e6600480360360208110156101fe57600080fd5b50356001600160a01b0316610704565b6101656107a4565b6102336004803603602081101561022c57600080fd5b50356107aa565b6040805195865260208601949094526001600160a01b039092168484015265ffffffffffff9081166060850152166080830152519081900360a00190f35b6101656004803603604081101561028757600080fd5b50803590602001356107ee565b610165610a72565b6101e6600480360360608110156102b257600080fd5b5080359060208101359060400135610a78565b610165610ef9565b6101e6600480360360408110156102e357600080fd5b50803590602001356001600160a01b0316610f0b565b610187611064565b610309611073565b6040805165ffffffffffff9092168252519081900360200190f35b6101e6611088565b6101e66004803603602081101561034257600080fd5b50356111f6565b6101e66004803603602081101561035f57600080fd5b50356001600160a01b0316611393565b610165611432565b6101e66004803603602081101561038d57600080fd5b5035611437565b610187611586565b610309611595565b6101656115a3565b6101e6600480360360408110156103c257600080fd5b50803590602001356115a8565b60055481565b66535552504c555360c81b81565b6003546001600160a01b031681565b60006020819052908152604090205481565b6008546001146104455760405162461bcd60e51b81526004018080602001828103825260328152602001806119eb6032913960400191505060405180910390fd5b600081815260016020526040902060020154600160a01b900465ffffffffffff16158015906104be575060008181526001602052604090206002015442600160a01b90910465ffffffffffff1610806104be575060008181526001602052604090206002015442600160d01b90910465ffffffffffff16105b6104f95760405162461bcd60e51b815260040180806020018281038252602a8152602001806119c1602a913960400191505060405180910390fd5b6002805460008381526001602081905260408083209485015494909101548151633beaf2b760e21b81523060048201526001600160a01b03958616602482015260448101919091529051939092169263efabcadc92606480820193929182900301818387803b15801561056b57600080fd5b505af115801561057f573d6000803e3d6000fd5b5050506000828152600160205260408120549091506064906105a29060326116cc565b816105a957fe5b049050801561062a57600354600480546040805163bb35783b60e01b815230938101939093526001600160a01b039182166024840152604483018590525192169163bb35783b9160648082019260009290919082900301818387803b15801561061157600080fd5b505af1158015610625573d6000803e3d6000fd5b505050505b6000828152600160205260408120546106439083611728565b905080156106b75760035460408051632770a7eb60e21b81523060048201526024810184905290516001600160a01b0390921691639dc29fac9160448082019260009290919082900301818387803b15801561069e57600080fd5b505af11580156106b2573d6000803e3d6000fd5b505050505b600083815260016020819052604080832083815591820183905560029091018290555184917f03af424b0e12d91ea31fe7f2c199fc02c9ede38f9aa1bdc019a8087b41445f7a91a2505050565b336000908152602081905260409020546001146107525760405162461bcd60e51b81526004018080602001828103825260348152602001806118666034913960400191505060405180910390fd5b6001600160a01b0381166000818152602081815260409182902060019055815192835290517f599a298163e1678bb1c676052a8930bf0b8a1261ed6e01b8a2391e55f70001029281900390910190a150565b60085481565b60016020819052600091825260409091208054918101546002909101546001600160a01b0381169065ffffffffffff600160a01b8204811691600160d01b90041685565b3360009081526020819052604081205460011461083c5760405162461bcd60e51b81526004018080602001828103825260348152602001806118666034913960400191505060405180910390fd5b60085460011461087d5760405162461bcd60e51b81526004018080602001828103825260328152602001806119eb6032913960400191505060405180910390fd5b600019600754106108bf5760405162461bcd60e51b81526004018080602001828103825260268152602001806117e96026913960400191505060405180910390fd5b6004546001600160a01b03166109065760405162461bcd60e51b8152600401808060200182810382526036815260200180611a7d6036913960400191505060405180910390fd5b5060078054600190810191829055600082815260208290526040902083815590810184905560020180546001600160a01b0319163317905560065461095c90429065ffffffffffff600160301b9091041661176a565b6000828152600160205260408082206002908101805465ffffffffffff95909516600160d01b026001600160d01b039095169490941790935591548251633beaf2b760e21b81523360048201523060248201526044810187905292516001600160a01b039091169263efabcadc92606480830193919282900301818387803b1580156109e757600080fd5b505af11580156109fb573d6000803e3d6000fd5b505060075460008481526001602090815260409182902060020154825193845290830188905282820187905265ffffffffffff600160d01b909104166060830152518493507fa4863af70e77aecfe2769e0569806782ba7c6f86fc9a307290a3816fb8a563e592509081900360800190a292915050565b60075481565b600854600114610ab95760405162461bcd60e51b81526004018080602001828103825260328152602001806119eb6032913960400191505060405180910390fd5b6000838152600160205260409020600201546001600160a01b0316610b0f5760405162461bcd60e51b81526004018080602001828103825260318152602001806119296031913960400191505060405180910390fd5b60008381526001602052604090206002015442600160a01b90910465ffffffffffff161180610b5c5750600083815260016020526040902060020154600160a01b900465ffffffffffff16155b610b975760405162461bcd60e51b81526004018080602001828103825260318152602001806117b86031913960400191505060405180910390fd5b60008381526001602052604090206002015442600160d01b90910465ffffffffffff1611610bf65760405162461bcd60e51b815260040180806020018281038252603581526020018061198c6035913960400191505060405180910390fd5b600083815260016020819052604090912001548214610c465760405162461bcd60e51b815260040180806020018281038252603281526020018061195a6032913960400191505060405180910390fd5b6000838152600160205260409020548111610c925760405162461bcd60e51b815260040180806020018281038252602c81526020018061183a602c913960400191505060405180910390fd5b600554600084815260016020526040902054610cae91906116cc565b610cc082670de0b6b3a76400006116cc565b1015610cfd5760405162461bcd60e51b8152600401808060200182810382526033815260200180611a1d6033913960400191505060405180910390fd5b6000838152600160205260409020600201546001600160a01b03163314610dc45760035460008481526001602052604080822060028101549054825163bb35783b60e01b81523360048201526001600160a01b0392831660248201526044810191909152915193169263bb35783b9260648084019391929182900301818387803b158015610d8a57600080fd5b505af1158015610d9e573d6000803e3d6000fd5b505050600084815260016020526040902060020180546001600160a01b03191633179055505b60035460008481526001602052604080822054815163bb35783b60e01b8152336004820152306024820152908503604482015290516001600160a01b039093169263bb35783b9260648084019391929182900301818387803b158015610e2957600080fd5b505af1158015610e3d573d6000803e3d6000fd5b505050600084815260016020526040902082905550600654610e6890429065ffffffffffff1661176a565b600084815260016020908152604091829020600201805465ffffffffffff60a01b1916600160a01b65ffffffffffff95861681029190911791829055835188815233938101939093528284018790526060830186905290049092166080830152517fd87c815d5a67c2e130ad04b714d87a6fb69d5a6df0dbb0f1639cd9fe292201f99160a0908290030190a1505050565b6a13525611510b54d514905560aa1b81565b33600090815260208190526040902054600114610f595760405162461bcd60e51b81526004018080602001828103825260348152602001806118666034913960400191505060405180910390fd5b6001600160a01b038116610f9e5760405162461bcd60e51b815260040180806020018281038252602d815260200180611a50602d913960400191505060405180910390fd5b817f70726f746f636f6c546f6b656e426964526563656976657200000000000000001415610fe657600480546001600160a01b0319166001600160a01b03831617905561101d565b60405162461bcd60e51b8152600401808060200182810382526037815260200180611ae36037913960400191505060405180910390fd5b604080518381526001600160a01b038316602082015281517fd91f38cf03346b5dc15fb60f9076f866295231ad3c3841a1051f8443f25170d1929181900390910190a15050565b6002546001600160a01b031681565b600654600160301b900465ffffffffffff1681565b336000908152602081905260409020546001146110d65760405162461bcd60e51b81526004018080602001828103825260348152602001806118666034913960400191505060405180910390fd5b600060085560025460408051633eaf7a0360e21b8152306004820181905291516001600160a01b039093169263efabcadc92913391859163fabde80c916024808301926020929190829003018186803b15801561113257600080fd5b505afa158015611146573d6000803e3d6000fd5b505050506040513d602081101561115c57600080fd5b5051604080516001600160e01b031960e087901b1681526001600160a01b03948516600482015292909316602483015260448201529051606480830192600092919082900301818387803b1580156111b357600080fd5b505af11580156111c7573d6000803e3d6000fd5b50506040517f2d4b4ecff7bd7503135271925520a2f6c0d98c9473ffc1a1e72c92502f51b25e925060009150a1565b600854156112355760405162461bcd60e51b815260040180806020018281038252603481526020018061189a6034913960400191505060405180910390fd5b6000818152600160205260409020600201546001600160a01b031661128b5760405162461bcd60e51b81526004018080602001828103825260318152602001806119296031913960400191505060405180910390fd5b60035460008281526001602052604080822060028101549054825163bb35783b60e01b81523060048201526001600160a01b0392831660248201526044810191909152915193169263bb35783b9260648084019391929182900301818387803b1580156112f757600080fd5b505af115801561130b573d6000803e3d6000fd5b5050506000828152600160209081526040918290206002810154905483513381526001600160a01b03909216928201929092528083019190915290518392507f723f56b5ac5fb3399765203804e790344f427477918842dbef525d795af4bcca9181900360600190a26000908152600160208190526040822082815590810182905560020155565b336000908152602081905260409020546001146113e15760405162461bcd60e51b81526004018080602001828103825260348152602001806118666034913960400191505060405180910390fd5b6001600160a01b03811660008181526020818152604080832092909255815192835290517f8834a87e641e9716be4f34527af5d23e11624f1ddeefede6ad75a9acfc31b9039281900390910190a150565b603281565b60008181526001602052604090206002015442600160d01b90910465ffffffffffff16106114965760405162461bcd60e51b815260040180806020018281038252602a8152602001806119c1602a913960400191505060405180910390fd5b600081815260016020526040902060020154600160a01b900465ffffffffffff16156114f35760405162461bcd60e51b8152600401808060200182810382526030815260200180611ab36030913960400191505060405180910390fd5b600654611510904290600160301b900465ffffffffffff1661176a565b60008281526001602090815260409182902060020180546001600160d01b0316600160d01b65ffffffffffff95861681029190911791829055835186815291049093169083015280517f10a109258779eb298071adf16637b95f8d7cf00e49595711da10eeb90e6e8e949281900390910190a150565b6004546001600160a01b031681565b60065465ffffffffffff1681565b606481565b336000908152602081905260409020546001146115f65760405162461bcd60e51b81526004018080602001828103825260348152602001806118666034913960400191505060405180910390fd5b816a626964496e63726561736560a81b141561161657600581905561168d565b816a3134b2223ab930ba34b7b760a91b141561164a576006805465ffffffffffff191665ffffffffffff831617905561168d565b81710e8dee8c2d882eac6e8d2dedc98cadccee8d60731b1415610fe657600680546bffffffffffff0000000000001916600160301b65ffffffffffff8416021790555b604080518381526020810183905281517fac7c5c1afaef770ec56ac6268cd3f2fbb1035858ead2601d6553157c33036c3a929181900390910190a15050565b60008115806116e7575050808202828282816116e457fe5b04145b6117225760405162461bcd60e51b815260040180806020018281038252602a8152602001806118ff602a913960400191505060405180910390fd5b92915050565b808203828111156117225760405162461bcd60e51b815260040180806020018281038252602b81526020018061180f602b913960400191505060405180910390fd5b80820165ffffffffffff80841690821610156117225760405162461bcd60e51b81526004018080602001828103825260318152602001806118ce6031913960400191505060405180910390fdfe4d697865645374726174537572706c757341756374696f6e486f7573652f6269642d616c72656164792d657870697265644d697865645374726174537572706c757341756374696f6e486f7573652f6f766572666c6f774d697865645374726174537572706c757341756374696f6e486f7573652f7375622d756e646572666c6f774d697865645374726174537572706c757341756374696f6e486f7573652f6269642d6e6f742d6869676865724d697865645374726174537572706c757341756374696f6e486f7573652f6163636f756e742d6e6f742d617574686f72697a65644d697865645374726174537572706c757341756374696f6e486f7573652f636f6e74726163742d7374696c6c2d656e61626c65644d697865645374726174537572706c757341756374696f6e486f7573652f6164642d75696e7434382d6f766572666c6f774d697865645374726174537572706c757341756374696f6e486f7573652f6d756c2d6f766572666c6f774d697865645374726174537572706c757341756374696f6e486f7573652f686967682d6269646465722d6e6f742d7365744d697865645374726174537572706c757341756374696f6e486f7573652f616d6f756e74732d6e6f742d6d61746368696e674d697865645374726174537572706c757341756374696f6e486f7573652f61756374696f6e2d616c72656164792d657870697265644d697865645374726174537572706c757341756374696f6e486f7573652f6e6f742d66696e69736865644d697865645374726174537572706c757341756374696f6e486f7573652f636f6e74726163742d6e6f742d656e61626c65644d697865645374726174537572706c757341756374696f6e486f7573652f696e73756666696369656e742d696e6372656173654d697865645374726174537572706c757341756374696f6e486f7573652f696e76616c69642d616464726573734d697865645374726174537572706c757341756374696f6e486f7573652f6e756c6c2d70726f742d746f6b656e2d72656365697665724d697865645374726174537572706c757341756374696f6e486f7573652f6269642d616c72656164792d706c616365644d697865645374726174537572706c757341756374696f6e486f7573652f6d6f646966792d756e7265636f676e697a65642d706172616da2646970667358221220933cb34c235d199a96fff71684ba3d6753288c67ac95b244ff27559128ea667964736f6c63430006070033",
        "linkReferences": {}
    },
    "methodIdentifiers": {
        "AUCTION_HOUSE_TYPE()": "1266fb94",
        "FIFTY()": "ad57f9f1",
        "HUNDRED()": "f85fc0ab",
        "SURPLUS_AUCTION_TYPE()": "619ed1f8",
        "addAuthorization(address)": "35b28153",
        "auctionsStarted()": "551cb3b1",
        "authorizedAccounts(address)": "24ba5884",
        "bidDuration()": "f6b45eb7",
        "bidIncrease()": "0ac239e5",
        "bids(uint256)": "4423c5f1",
        "contractEnabled()": "41b3a0d9",
        "disableContract()": "894ba833",
        "increaseBidSize(uint256,uint256,uint256)": "5a93f031",
        "modifyParameters(bytes32,address)": "6614f010",
        "modifyParameters(bytes32,uint256)": "fe4f5890",
        "protocolToken()": "1a465fe1",
        "protocolTokenBidReceiver()": "f0ed4db0",
        "removeAuthorization(address)": "94f3f81d",
        "restartAuction(uint256)": "d25ccf53",
        "safeEngine()": "67aea313",
        "settleAuction(uint256)": "2e993611",
        "startAuction(uint256,uint256)": "4fee13fc",
        "terminateAuctionPrematurely(uint256)": "933f7608",
        "totalAuctionLength()": "73c0a367"
    },
    "id": 48
}