{
    "abi": [
        {
            "inputs": [
                {
                    "internalType": "address",
                    "name": "safeEngine_",
                    "type": "address"
                },
                {
                    "internalType": "bytes32",
                    "name": "collateralType_",
                    "type": "bytes32"
                },
                {
                    "internalType": "address",
                    "name": "collateral_",
                    "type": "address"
                }
            ],
            "stateMutability": "nonpayable",
            "type": "constructor"
        },
        {
            "anonymous": false,
            "inputs": [
                {
                    "indexed": false,
                    "internalType": "address",
                    "name": "account",
                    "type": "address"
                }
            ],
            "name": "AddAuthorization",
            "type": "event"
        },
        {
            "anonymous": false,
            "inputs": [],
            "name": "DisableContract",
            "type": "event"
        },
        {
            "anonymous": false,
            "inputs": [
                {
                    "indexed": false,
                    "internalType": "address",
                    "name": "sender",
                    "type": "address"
                },
                {
                    "indexed": false,
                    "internalType": "address",
                    "name": "account",
                    "type": "address"
                },
                {
                    "indexed": false,
                    "internalType": "uint256",
                    "name": "wad",
                    "type": "uint256"
                }
            ],
            "name": "Exit",
            "type": "event"
        },
        {
            "anonymous": false,
            "inputs": [
                {
                    "indexed": false,
                    "internalType": "address",
                    "name": "sender",
                    "type": "address"
                },
                {
                    "indexed": false,
                    "internalType": "address",
                    "name": "account",
                    "type": "address"
                },
                {
                    "indexed": false,
                    "internalType": "uint256",
                    "name": "wad",
                    "type": "uint256"
                }
            ],
            "name": "Join",
            "type": "event"
        },
        {
            "anonymous": false,
            "inputs": [
                {
                    "indexed": false,
                    "internalType": "address",
                    "name": "account",
                    "type": "address"
                }
            ],
            "name": "RemoveAuthorization",
            "type": "event"
        },
        {
            "inputs": [
                {
                    "internalType": "address",
                    "name": "account",
                    "type": "address"
                }
            ],
            "name": "addAuthorization",
            "outputs": [],
            "stateMutability": "nonpayable",
            "type": "function"
        },
        {
            "inputs": [
                {
                    "internalType": "address",
                    "name": "",
                    "type": "address"
                }
            ],
            "name": "authorizedAccounts",
            "outputs": [
                {
                    "internalType": "uint256",
                    "name": "",
                    "type": "uint256"
                }
            ],
            "stateMutability": "view",
            "type": "function"
        },
        {
            "inputs": [],
            "name": "collateral",
            "outputs": [
                {
                    "internalType": "contract CollateralLike",
                    "name": "",
                    "type": "address"
                }
            ],
            "stateMutability": "view",
            "type": "function"
        },
        {
            "inputs": [],
            "name": "collateralType",
            "outputs": [
                {
                    "internalType": "bytes32",
                    "name": "",
                    "type": "bytes32"
                }
            ],
            "stateMutability": "view",
            "type": "function"
        },
        {
            "inputs": [],
            "name": "contractEnabled",
            "outputs": [
                {
                    "internalType": "uint256",
                    "name": "",
                    "type": "uint256"
                }
            ],
            "stateMutability": "view",
            "type": "function"
        },
        {
            "inputs": [],
            "name": "decimals",
            "outputs": [
                {
                    "internalType": "uint256",
                    "name": "",
                    "type": "uint256"
                }
            ],
            "stateMutability": "view",
            "type": "function"
        },
        {
            "inputs": [],
            "name": "disableContract",
            "outputs": [],
            "stateMutability": "nonpayable",
            "type": "function"
        },
        {
            "inputs": [
                {
                    "internalType": "address",
                    "name": "account",
                    "type": "address"
                },
                {
                    "internalType": "uint256",
                    "name": "wad",
                    "type": "uint256"
                }
            ],
            "name": "exit",
            "outputs": [],
            "stateMutability": "nonpayable",
            "type": "function"
        },
        {
            "inputs": [
                {
                    "internalType": "address",
                    "name": "account",
                    "type": "address"
                },
                {
                    "internalType": "uint256",
                    "name": "wad",
                    "type": "uint256"
                }
            ],
            "name": "join",
            "outputs": [],
            "stateMutability": "nonpayable",
            "type": "function"
        },
        {
            "inputs": [
                {
                    "internalType": "address",
                    "name": "account",
                    "type": "address"
                }
            ],
            "name": "removeAuthorization",
            "outputs": [],
            "stateMutability": "nonpayable",
            "type": "function"
        },
        {
            "inputs": [],
            "name": "safeEngine",
            "outputs": [
                {
                    "internalType": "contract MultiSAFEEngineLike",
                    "name": "",
                    "type": "address"
                }
            ],
            "stateMutability": "view",
            "type": "function"
        }
    ],
    "bytecode": {
        "object": "0x608060405234801561001057600080fd5b50604051610a26380380610a268339818101604052606081101561003357600080fd5b508051602080830151604093840151336000908152808452859020600190819055600581905580546001600160a01b038087166001600160a01b03199283161790925560028490556003805483851692169190911790819055865163313ce56760e01b8152965195969395929491169263313ce5679260048281019392829003018186803b1580156100c457600080fd5b505afa1580156100d8573d6000803e3d6000fd5b505050506040513d60208110156100ee57600080fd5b505160048190556012146101335760405162461bcd60e51b81526004018080602001828103825260288152602001806109fe6028913960400191505060405180910390fd5b6040805133815290517f599a298163e1678bb1c676052a8930bf0b8a1261ed6e01b8a2391e55f70001029181900360200190a1505050610886806101786000396000f3fe608060405234801561001057600080fd5b50600436106100a95760003560e01c806367aea3131161007157806367aea3131461014a578063894ba8331461016e57806394f3f81d14610176578063d8dfeb451461019c578063e824600f146101a4578063ef693bed146101ac576100a9565b806324ba5884146100ae578063313ce567146100e657806335b28153146100ee5780633b4da69f1461011657806341b3a0d914610142575b600080fd5b6100d4600480360360208110156100c457600080fd5b50356001600160a01b03166101d8565b60408051918252519081900360200190f35b6100d46101ea565b6101146004803603602081101561010457600080fd5b50356001600160a01b03166101f0565b005b6101146004803603604081101561012c57600080fd5b506001600160a01b038135169060200135610290565b6100d461049c565b6101526104a2565b604080516001600160a01b039092168252519081900360200190f35b6101146104b1565b6101146004803603602081101561018c57600080fd5b50356001600160a01b031661052f565b6101526105ce565b6100d46105dd565b610114600480360360408110156101c257600080fd5b506001600160a01b0381351690602001356105e3565b60006020819052908152604090205481565b60045481565b3360009081526020819052604090205460011461023e5760405162461bcd60e51b815260040180806020018281038252602f8152602001806107d4602f913960400191505060405180910390fd5b6001600160a01b0381166000818152602081815260409182902060019055815192835290517f599a298163e1678bb1c676052a8930bf0b8a1261ed6e01b8a2391e55f70001029281900390910190a150565b6005546001146102d15760405162461bcd60e51b815260040180806020018281038252602d815260200180610803602d913960400191505060405180910390fd5b60008112156103115760405162461bcd60e51b81526004018080602001828103825260218152602001806108306021913960400191505060405180910390fd5b600154600254604080516365fafc4360e01b81526004810183905260248101929092526001600160a01b0385811660448401526064830185905290519216916365fafc439160848082019260009290919082900301818387803b15801561037757600080fd5b505af115801561038b573d6000803e3d6000fd5b5050600354604080516323b872dd60e01b81523360048201523060248201526044810186905290516001600160a01b0390921693506323b872dd92506064808201926020929091908290030181600087803b1580156103e957600080fd5b505af11580156103fd573d6000803e3d6000fd5b505050506040513d602081101561041357600080fd5b50516104505760405162461bcd60e51b81526004018080602001828103825260288152602001806107ac6028913960400191505060405180910390fd5b604080513381526001600160a01b038416602082015280820183905290517f0e64978d073561c3dfd4d4e3e4dce066cde2ab246a44f990fabb0a21a4a3bd959181900360600190a15050565b60055481565b6001546001600160a01b031681565b336000908152602081905260409020546001146104ff5760405162461bcd60e51b815260040180806020018281038252602f8152602001806107d4602f913960400191505060405180910390fd5b600060058190556040517f2d4b4ecff7bd7503135271925520a2f6c0d98c9473ffc1a1e72c92502f51b25e9190a1565b3360009081526020819052604090205460011461057d5760405162461bcd60e51b815260040180806020018281038252602f8152602001806107d4602f913960400191505060405180910390fd5b6001600160a01b03811660008181526020818152604080832092909255815192835290517f8834a87e641e9716be4f34527af5d23e11624f1ddeefede6ad75a9acfc31b9039281900390910190a150565b6003546001600160a01b031681565b60025481565b600160ff1b8111156106265760405162461bcd60e51b81526004018080602001828103825260218152602001806108306021913960400191505060405180910390fd5b600154600254604080516365fafc4360e01b81526004810183905260248101929092523360448301526000848103606484015290516001600160a01b03909316926365fafc4392608480820193929182900301818387803b15801561068a57600080fd5b505af115801561069e573d6000803e3d6000fd5b50506003546040805163a9059cbb60e01b81526001600160a01b03878116600483015260248201879052915191909216935063a9059cbb925060448083019260209291908290030181600087803b1580156106f857600080fd5b505af115801561070c573d6000803e3d6000fd5b505050506040513d602081101561072257600080fd5b505161075f5760405162461bcd60e51b81526004018080602001828103825260288152602001806107ac6028913960400191505060405180910390fd5b604080513381526001600160a01b038416602082015280820183905290517fbc2a67d422c268da6fe45f3e7d194e1d98906d221f1cfad62a5c80f2cd209f4c9181900360600190a1505056fe4d756c74694261736963436f6c6c61746572616c4a6f696e2f6661696c65642d7472616e736665724d756c74694261736963436f6c6c61746572616c4a6f696e2f6163636f756e742d6e6f742d617574686f72697a65644d756c74694261736963436f6c6c61746572616c4a6f696e2f636f6e74726163742d6e6f742d656e61626c65644d756c74694261736963436f6c6c61746572616c4a6f696e2f6f766572666c6f77a2646970667358221220904fab59ff48c551c3c95ba273d54caa60399c46237cfe63efefa45fa684665564736f6c634300060700334d756c74694261736963436f6c6c61746572616c4a6f696e2f6e6f6e2d31382d646563696d616c73",
        "linkReferences": {}
    },
    "methodIdentifiers": {
        "addAuthorization(address)": "35b28153",
        "authorizedAccounts(address)": "24ba5884",
        "collateral()": "d8dfeb45",
        "collateralType()": "e824600f",
        "contractEnabled()": "41b3a0d9",
        "decimals()": "313ce567",
        "disableContract()": "894ba833",
        "exit(address,uint256)": "ef693bed",
        "join(address,uint256)": "3b4da69f",
        "removeAuthorization(address)": "94f3f81d",
        "safeEngine()": "67aea313"
    },
    "id": 36
}