{
    "abi": [
        {
            "inputs": [
                {
                    "internalType": "address",
                    "name": "priceSource_",
                    "type": "address"
                }
            ],
            "stateMutability": "nonpayable",
            "type": "constructor"
        },
        {
            "anonymous": false,
            "inputs": [
                {
                    "indexed": false,
                    "internalType": "address",
                    "name": "account",
                    "type": "address"
                }
            ],
            "name": "AddAuthorization",
            "type": "event"
        },
        {
            "anonymous": false,
            "inputs": [
                {
                    "indexed": false,
                    "internalType": "uint16",
                    "name": "delay",
                    "type": "uint16"
                }
            ],
            "name": "ChangeDelay",
            "type": "event"
        },
        {
            "anonymous": false,
            "inputs": [
                {
                    "indexed": false,
                    "internalType": "address",
                    "name": "priceSource",
                    "type": "address"
                }
            ],
            "name": "ChangePriceSource",
            "type": "event"
        },
        {
            "anonymous": false,
            "inputs": [
                {
                    "indexed": false,
                    "internalType": "bytes32",
                    "name": "parameter",
                    "type": "bytes32"
                },
                {
                    "indexed": false,
                    "internalType": "uint256",
                    "name": "val",
                    "type": "uint256"
                }
            ],
            "name": "ModifyParameters",
            "type": "event"
        },
        {
            "anonymous": false,
            "inputs": [
                {
                    "indexed": false,
                    "internalType": "bytes32",
                    "name": "parameter",
                    "type": "bytes32"
                },
                {
                    "indexed": false,
                    "internalType": "address",
                    "name": "val",
                    "type": "address"
                }
            ],
            "name": "ModifyParameters",
            "type": "event"
        },
        {
            "anonymous": false,
            "inputs": [
                {
                    "indexed": false,
                    "internalType": "address",
                    "name": "account",
                    "type": "address"
                }
            ],
            "name": "RemoveAuthorization",
            "type": "event"
        },
        {
            "anonymous": false,
            "inputs": [],
            "name": "RestartValue",
            "type": "event"
        },
        {
            "anonymous": false,
            "inputs": [],
            "name": "Start",
            "type": "event"
        },
        {
            "anonymous": false,
            "inputs": [],
            "name": "Stop",
            "type": "event"
        },
        {
            "anonymous": false,
            "inputs": [
                {
                    "indexed": false,
                    "internalType": "uint256",
                    "name": "newMedian",
                    "type": "uint256"
                },
                {
                    "indexed": false,
                    "internalType": "uint256",
                    "name": "lastUpdateTime",
                    "type": "uint256"
                }
            ],
            "name": "UpdateResult",
            "type": "event"
        },
        {
            "inputs": [
                {
                    "internalType": "address",
                    "name": "account",
                    "type": "address"
                }
            ],
            "name": "addAuthorization",
            "outputs": [],
            "stateMutability": "nonpayable",
            "type": "function"
        },
        {
            "inputs": [
                {
                    "internalType": "address",
                    "name": "",
                    "type": "address"
                }
            ],
            "name": "authorizedAccounts",
            "outputs": [
                {
                    "internalType": "uint256",
                    "name": "",
                    "type": "uint256"
                }
            ],
            "stateMutability": "view",
            "type": "function"
        },
        {
            "inputs": [
                {
                    "internalType": "uint16",
                    "name": "delay",
                    "type": "uint16"
                }
            ],
            "name": "changeDelay",
            "outputs": [],
            "stateMutability": "nonpayable",
            "type": "function"
        },
        {
            "inputs": [
                {
                    "internalType": "address",
                    "name": "priceSource_",
                    "type": "address"
                }
            ],
            "name": "changePriceSource",
            "outputs": [],
            "stateMutability": "nonpayable",
            "type": "function"
        },
        {
            "inputs": [],
            "name": "getNextResultWithValidity",
            "outputs": [
                {
                    "internalType": "uint256",
                    "name": "",
                    "type": "uint256"
                },
                {
                    "internalType": "bool",
                    "name": "",
                    "type": "bool"
                }
            ],
            "stateMutability": "view",
            "type": "function"
        },
        {
            "inputs": [],
            "name": "getResultWithValidity",
            "outputs": [
                {
                    "internalType": "uint256",
                    "name": "",
                    "type": "uint256"
                },
                {
                    "internalType": "bool",
                    "name": "",
                    "type": "bool"
                }
            ],
            "stateMutability": "view",
            "type": "function"
        },
        {
            "inputs": [],
            "name": "lastUpdateTime",
            "outputs": [
                {
                    "internalType": "uint64",
                    "name": "",
                    "type": "uint64"
                }
            ],
            "stateMutability": "view",
            "type": "function"
        },
        {
            "inputs": [],
            "name": "passedDelay",
            "outputs": [
                {
                    "internalType": "bool",
                    "name": "ok",
                    "type": "bool"
                }
            ],
            "stateMutability": "view",
            "type": "function"
        },
        {
            "inputs": [],
            "name": "priceSource",
            "outputs": [
                {
                    "internalType": "address",
                    "name": "",
                    "type": "address"
                }
            ],
            "stateMutability": "view",
            "type": "function"
        },
        {
            "inputs": [],
            "name": "read",
            "outputs": [
                {
                    "internalType": "uint256",
                    "name": "",
                    "type": "uint256"
                }
            ],
            "stateMutability": "view",
            "type": "function"
        },
        {
            "inputs": [
                {
                    "internalType": "address",
                    "name": "account",
                    "type": "address"
                }
            ],
            "name": "removeAuthorization",
            "outputs": [],
            "stateMutability": "nonpayable",
            "type": "function"
        },
        {
            "inputs": [],
            "name": "restartValue",
            "outputs": [],
            "stateMutability": "nonpayable",
            "type": "function"
        },
        {
            "inputs": [],
            "name": "start",
            "outputs": [],
            "stateMutability": "nonpayable",
            "type": "function"
        },
        {
            "inputs": [],
            "name": "stop",
            "outputs": [],
            "stateMutability": "nonpayable",
            "type": "function"
        },
        {
            "inputs": [],
            "name": "stopped",
            "outputs": [
                {
                    "internalType": "uint256",
                    "name": "",
                    "type": "uint256"
                }
            ],
            "stateMutability": "view",
            "type": "function"
        },
        {
            "inputs": [],
            "name": "updateDelay",
            "outputs": [
                {
                    "internalType": "uint16",
                    "name": "",
                    "type": "uint16"
                }
            ],
            "stateMutability": "view",
            "type": "function"
        },
        {
            "inputs": [],
            "name": "updateResult",
            "outputs": [],
            "stateMutability": "nonpayable",
            "type": "function"
        }
    ],
    "bytecode": {
        "object": "0x60806040526002805461ffff60a01b191660e160a41b17905534801561002457600080fd5b5060405162000f4838038062000f488339818101604052602081101561004957600080fd5b505133600090815260208190526040902060019055600280546001600160a01b0319166001600160a01b03808416919091179182905516156101a2576000806100996001600160e01b0361021a16565b91509150801561019f57604080518082019091526001600160801b038084168083526001602090930192909252600480546001600160801b03199081169093178216600160801b9081179182905560038054828404851690920291909416918316919091179091161790556101266101186001600160e01b036102d716565b6001600160e01b036102db16565b60028054600160b01b600160f01b031916600160b01b6001600160401b0393841681029190911791829055600354604080516001600160801b03909216825291909204909216602082015281517ff85e44c6c3597d176b8d59bfbf500dfdb2badfc8cf91e6d960b16583a5807e48929181900390910190a15b50505b6040805133815290517f599a298163e1678bb1c676052a8930bf0b8a1261ed6e01b8a2391e55f70001029181900360200190a1600254604080516001600160a01b039092168252517fe64aaa084ff9fb9651f314c5d25888701090b34db4f4809b517e863c62bd85089181900360200190a15061035c565b600254604080516309fa15b560e31b8152815160009384936001600160a01b0390911692634fd0ada89260048083019392829003018186803b15801561025f57600080fd5b505afa92505050801561028b57506040513d604081101561027f57600080fd5b50805160209091015160015b6102cd573d8080156102b9576040519150601f19603f3d011682016040523d82523d6000602084013e6102be565b606091505b50600092508291506102d39050565b90925090505b9091565b4290565b600254600090600160a01b900461ffff1661033d576040805162461bcd60e51b815260206004820152601860248201527f4f534d2f7570646174652d64656c61792d69732d7a65726f0000000000000000604482015290519081900360640190fd5b600254600160a01b900461ffff16828161035357fe5b06909103919050565b610bdc806200036c6000396000f3fe608060405234801561001057600080fd5b506004361061010b5760003560e01c8063554f94db116100a257806380ebb08e1161007157806380ebb08e1461025757806394f3f81d1461025f578063be9a655514610285578063c8f33c911461028d578063ceedd63d146102b25761010b565b8063554f94db1461020c57806357de26a41461022b57806363bfa88b1461023357806375f12b211461024f5761010b565b806335b28153116100de57806335b28153146101975780633fcdfe26146101bd5780634f0a32de146101e35780634fd0ada8146102045761010b565b806307da68f51461011057806320531bc91461011a57806324ba58841461013e5780632b9c7ee314610176575b600080fd5b6101186102ba565b005b61012261033b565b604080516001600160a01b039092168252519081900360200190f35b6101646004803603602081101561015457600080fd5b50356001600160a01b031661034a565b60408051918252519081900360200190f35b6101186004803603602081101561018c57600080fd5b503561ffff1661035c565b610118600480360360208110156101ad57600080fd5b50356001600160a01b0316610459565b610118600480360360208110156101d357600080fd5b50356001600160a01b03166104fd565b6101eb6105a9565b6040805192835290151560208301528051918290030190f35b6101eb6105c8565b6102146105e6565b6040805161ffff9092168252519081900360200190f35b6101646105f7565b61023b610668565b604080519115158252519081900360200190f35b6101646106ad565b6101186106b3565b6101186004803603602081101561027557600080fd5b50356001600160a01b0316610847565b6101186108ea565b61029561096c565b6040805167ffffffffffffffff9092168252519081900360200190f35b610118610983565b3360009081526020819052604090205460011461030c576040805162461bcd60e51b815260206004820152601a6024820152600080516020610b87833981519152604482015290519081900360640190fd5b600180556040517fbedf0f4abfe86d4ffad593d9607fe70e83ea706033d44d24b3b6283cf3fc4f6b90600090a1565b6002546001600160a01b031681565b60006020819052908152604090205481565b336000908152602081905260409020546001146103ae576040805162461bcd60e51b815260206004820152601a6024820152600080516020610b87833981519152604482015290519081900360640190fd5b60008161ffff16116103fb576040805162461bcd60e51b81526020600482015260116024820152704f534d2f64656c61792d69732d7a65726f60781b604482015290519081900360640190fd5b6002805461ffff808416600160a01b90810261ffff60a01b199093169290921792839055604080519290930416815290517fe5e55d7a00a8da3c2d2be2af849b5680612dc299cf26e12a879220d5f42ea2319181900360200190a150565b336000908152602081905260409020546001146104ab576040805162461bcd60e51b815260206004820152601a6024820152600080516020610b87833981519152604482015290519081900360640190fd5b6001600160a01b0381166000818152602081815260409182902060019055815192835290517f599a298163e1678bb1c676052a8930bf0b8a1261ed6e01b8a2391e55f70001029281900390910190a150565b3360009081526020819052604090205460011461054f576040805162461bcd60e51b815260206004820152601a6024820152600080516020610b87833981519152604482015290519081900360640190fd5b600280546001600160a01b0319166001600160a01b03838116919091179182905560408051929091168252517fe64aaa084ff9fb9651f314c5d25888701090b34db4f4809b517e863c62bd8508916020908290030190a150565b6004546001600160801b0380821691600160801b9004166001145b9091565b6003546001600160801b0380821691600160801b9004166001149091565b600254600160a01b900461ffff1681565b600354600090600160801b90046001600160801b0316600114610658576040805162461bcd60e51b81526020600482015260146024820152734f534d2f6e6f2d63757272656e742d76616c756560601b604482015290519081900360640190fd5b506003546001600160801b031690565b60025460009061069490600160b01b810467ffffffffffffffff1690600160a01b900461ffff16610a21565b67ffffffffffffffff166106a6610a44565b1015905090565b60015481565b600154156106f9576040805162461bcd60e51b815260206004820152600e60248201526d13d4d34bda5ccb5cdd1bdc1c195960921b604482015290519081900360640190fd5b610701610668565b610743576040805162461bcd60e51b815260206004820152600e60248201526d13d4d34bdb9bdd0b5c185cdcd95960921b604482015290519081900360640190fd5b60008061074e610a48565b915091508015610843576004805460038054600160801b8084046001600160801b0390811682026fffffffffffffffffffffffffffffffff19938416828716178216179093556040805180820190915287841680825260016020909201919091529190931617161790556107c86107c3610a44565b610b05565b6002805467ffffffffffffffff60b01b1916600160b01b67ffffffffffffffff93841681029190911791829055600354604080516001600160801b03909216825291909204909216602082015281517ff85e44c6c3597d176b8d59bfbf500dfdb2badfc8cf91e6d960b16583a5807e48929181900390910190a15b5050565b33600090815260208190526040902054600114610899576040805162461bcd60e51b815260206004820152601a6024820152600080516020610b87833981519152604482015290519081900360640190fd5b6001600160a01b03811660008181526020818152604080832092909255815192835290517f8834a87e641e9716be4f34527af5d23e11624f1ddeefede6ad75a9acfc31b9039281900390910190a150565b3360009081526020819052604090205460011461093c576040805162461bcd60e51b815260206004820152601a6024820152600080516020610b87833981519152604482015290519081900360640190fd5b600060018190556040517f1b55ba3aa851a46be3b365aee5b5c140edd620d578922f3e8466d2cbd96f954b9190a1565b600254600160b01b900467ffffffffffffffff1681565b336000908152602081905260409020546001146109d5576040805162461bcd60e51b815260206004820152601a6024820152600080516020610b87833981519152604482015290519081900360640190fd5b60408051808201825260008082526020909101819052600481905560038190556001805590517f34cd470f8814066090f532fe3cb8158c5d974d7a01f4ada846dc9869e7e9d59a9190a1565b81810167ffffffffffffffff8084169082161015610a3e57600080fd5b92915050565b4290565b600254604080516309fa15b560e31b8152815160009384936001600160a01b0390911692634fd0ada89260048083019392829003018186803b158015610a8d57600080fd5b505afa925050508015610ab957506040513d6040811015610aad57600080fd5b50805160209091015160015b610afb573d808015610ae7576040519150601f19603f3d011682016040523d82523d6000602084013e610aec565b606091505b50600092508291506105c49050565b90925090506105c4565b600254600090600160a01b900461ffff16610b67576040805162461bcd60e51b815260206004820152601860248201527f4f534d2f7570646174652d64656c61792d69732d7a65726f0000000000000000604482015290519081900360640190fd5b600254600160a01b900461ffff168281610b7d57fe5b0690910391905056fe4f534d2f6163636f756e742d6e6f742d617574686f72697a6564000000000000a2646970667358221220164fe8dfa4dc42d70ca2c0659186a16bd35fb47a480027e2fa0ea4a84c7135cd64736f6c63430006070033",
        "linkReferences": {}
    },
    "methodIdentifiers": {
        "addAuthorization(address)": "35b28153",
        "authorizedAccounts(address)": "24ba5884",
        "changeDelay(uint16)": "2b9c7ee3",
        "changePriceSource(address)": "3fcdfe26",
        "getNextResultWithValidity()": "4f0a32de",
        "getResultWithValidity()": "4fd0ada8",
        "lastUpdateTime()": "c8f33c91",
        "passedDelay()": "63bfa88b",
        "priceSource()": "20531bc9",
        "read()": "57de26a4",
        "removeAuthorization(address)": "94f3f81d",
        "restartValue()": "ceedd63d",
        "start()": "be9a6555",
        "stop()": "07da68f5",
        "stopped()": "75f12b21",
        "updateDelay()": "554f94db",
        "updateResult()": "80ebb08e"
    },
    "id": 24
}