{
    "abi": [
        {
            "inputs": [
                {
                    "internalType": "address",
                    "name": "oracleRelayer_",
                    "type": "address"
                },
                {
                    "internalType": "address",
                    "name": "setterRelayer_",
                    "type": "address"
                },
                {
                    "internalType": "address",
                    "name": "orcl_",
                    "type": "address"
                },
                {
                    "internalType": "address",
                    "name": "pidCalculator_",
                    "type": "address"
                },
                {
                    "internalType": "uint256",
                    "name": "updateRateDelay_",
                    "type": "uint256"
                }
            ],
            "stateMutability": "nonpayable",
            "type": "constructor"
        },
        {
            "anonymous": false,
            "inputs": [
                {
                    "indexed": false,
                    "internalType": "address",
                    "name": "account",
                    "type": "address"
                }
            ],
            "name": "AddAuthorization",
            "type": "event"
        },
        {
            "anonymous": false,
            "inputs": [
                {
                    "indexed": false,
                    "internalType": "uint256",
                    "name": "marketPrice",
                    "type": "uint256"
                },
                {
                    "indexed": false,
                    "internalType": "uint256",
                    "name": "redemptionPrice",
                    "type": "uint256"
                },
                {
                    "indexed": false,
                    "internalType": "uint256",
                    "name": "redemptionRate",
                    "type": "uint256"
                },
                {
                    "indexed": false,
                    "internalType": "bytes",
                    "name": "reason",
                    "type": "bytes"
                }
            ],
            "name": "FailUpdateRedemptionRate",
            "type": "event"
        },
        {
            "anonymous": false,
            "inputs": [
                {
                    "indexed": false,
                    "internalType": "bytes32",
                    "name": "parameter",
                    "type": "bytes32"
                },
                {
                    "indexed": false,
                    "internalType": "address",
                    "name": "addr",
                    "type": "address"
                }
            ],
            "name": "ModifyParameters",
            "type": "event"
        },
        {
            "anonymous": false,
            "inputs": [
                {
                    "indexed": false,
                    "internalType": "bytes32",
                    "name": "parameter",
                    "type": "bytes32"
                },
                {
                    "indexed": false,
                    "internalType": "uint256",
                    "name": "val",
                    "type": "uint256"
                }
            ],
            "name": "ModifyParameters",
            "type": "event"
        },
        {
            "anonymous": false,
            "inputs": [
                {
                    "indexed": false,
                    "internalType": "address",
                    "name": "account",
                    "type": "address"
                }
            ],
            "name": "RemoveAuthorization",
            "type": "event"
        },
        {
            "anonymous": false,
            "inputs": [
                {
                    "indexed": false,
                    "internalType": "uint256",
                    "name": "marketPrice",
                    "type": "uint256"
                },
                {
                    "indexed": false,
                    "internalType": "uint256",
                    "name": "redemptionPrice",
                    "type": "uint256"
                },
                {
                    "indexed": false,
                    "internalType": "uint256",
                    "name": "redemptionRate",
                    "type": "uint256"
                }
            ],
            "name": "UpdateRedemptionRate",
            "type": "event"
        },
        {
            "inputs": [],
            "name": "RAY",
            "outputs": [
                {
                    "internalType": "uint256",
                    "name": "",
                    "type": "uint256"
                }
            ],
            "stateMutability": "view",
            "type": "function"
        },
        {
            "inputs": [],
            "name": "WAD",
            "outputs": [
                {
                    "internalType": "uint256",
                    "name": "",
                    "type": "uint256"
                }
            ],
            "stateMutability": "view",
            "type": "function"
        },
        {
            "inputs": [
                {
                    "internalType": "address",
                    "name": "account",
                    "type": "address"
                }
            ],
            "name": "addAuthorization",
            "outputs": [],
            "stateMutability": "nonpayable",
            "type": "function"
        },
        {
            "inputs": [
                {
                    "internalType": "uint256",
                    "name": "x",
                    "type": "uint256"
                },
                {
                    "internalType": "uint256",
                    "name": "y",
                    "type": "uint256"
                }
            ],
            "name": "addition",
            "outputs": [
                {
                    "internalType": "uint256",
                    "name": "z",
                    "type": "uint256"
                }
            ],
            "stateMutability": "pure",
            "type": "function"
        },
        {
            "inputs": [
                {
                    "internalType": "address",
                    "name": "",
                    "type": "address"
                }
            ],
            "name": "authorizedAccounts",
            "outputs": [
                {
                    "internalType": "uint256",
                    "name": "",
                    "type": "uint256"
                }
            ],
            "stateMutability": "view",
            "type": "function"
        },
        {
            "inputs": [],
            "name": "defaultLeak",
            "outputs": [
                {
                    "internalType": "uint256",
                    "name": "",
                    "type": "uint256"
                }
            ],
            "stateMutability": "view",
            "type": "function"
        },
        {
            "inputs": [],
            "name": "getMarketPrice",
            "outputs": [
                {
                    "internalType": "uint256",
                    "name": "",
                    "type": "uint256"
                }
            ],
            "stateMutability": "view",
            "type": "function"
        },
        {
            "inputs": [],
            "name": "getRedemptionAndMarketPrices",
            "outputs": [
                {
                    "internalType": "uint256",
                    "name": "marketPrice",
                    "type": "uint256"
                },
                {
                    "internalType": "uint256",
                    "name": "redemptionPrice",
                    "type": "uint256"
                }
            ],
            "stateMutability": "nonpayable",
            "type": "function"
        },
        {
            "inputs": [],
            "name": "lastUpdateTime",
            "outputs": [
                {
                    "internalType": "uint256",
                    "name": "",
                    "type": "uint256"
                }
            ],
            "stateMutability": "view",
            "type": "function"
        },
        {
            "inputs": [
                {
                    "internalType": "uint256",
                    "name": "x",
                    "type": "uint256"
                },
                {
                    "internalType": "uint256",
                    "name": "y",
                    "type": "uint256"
                }
            ],
            "name": "minimum",
            "outputs": [
                {
                    "internalType": "uint256",
                    "name": "z",
                    "type": "uint256"
                }
            ],
            "stateMutability": "pure",
            "type": "function"
        },
        {
            "inputs": [
                {
                    "internalType": "bytes32",
                    "name": "parameter",
                    "type": "bytes32"
                },
                {
                    "internalType": "address",
                    "name": "addr",
                    "type": "address"
                }
            ],
            "name": "modifyParameters",
            "outputs": [],
            "stateMutability": "nonpayable",
            "type": "function"
        },
        {
            "inputs": [
                {
                    "internalType": "bytes32",
                    "name": "parameter",
                    "type": "bytes32"
                },
                {
                    "internalType": "uint256",
                    "name": "val",
                    "type": "uint256"
                }
            ],
            "name": "modifyParameters",
            "outputs": [],
            "stateMutability": "nonpayable",
            "type": "function"
        },
        {
            "inputs": [
                {
                    "internalType": "uint256",
                    "name": "x",
                    "type": "uint256"
                },
                {
                    "internalType": "uint256",
                    "name": "y",
                    "type": "uint256"
                }
            ],
            "name": "multiply",
            "outputs": [
                {
                    "internalType": "uint256",
                    "name": "z",
                    "type": "uint256"
                }
            ],
            "stateMutability": "pure",
            "type": "function"
        },
        {
            "inputs": [],
            "name": "oracleRelayer",
            "outputs": [
                {
                    "internalType": "contract OracleRelayerLike",
                    "name": "",
                    "type": "address"
                }
            ],
            "stateMutability": "view",
            "type": "function"
        },
        {
            "inputs": [],
            "name": "orcl",
            "outputs": [
                {
                    "internalType": "contract OracleLike",
                    "name": "",
                    "type": "address"
                }
            ],
            "stateMutability": "view",
            "type": "function"
        },
        {
            "inputs": [],
            "name": "pidCalculator",
            "outputs": [
                {
                    "internalType": "contract PIDCalculator",
                    "name": "",
                    "type": "address"
                }
            ],
            "stateMutability": "view",
            "type": "function"
        },
        {
            "inputs": [
                {
                    "internalType": "uint256",
                    "name": "x",
                    "type": "uint256"
                }
            ],
            "name": "rad",
            "outputs": [
                {
                    "internalType": "uint256",
                    "name": "z",
                    "type": "uint256"
                }
            ],
            "stateMutability": "pure",
            "type": "function"
        },
        {
            "inputs": [
                {
                    "internalType": "uint256",
                    "name": "x",
                    "type": "uint256"
                }
            ],
            "name": "ray",
            "outputs": [
                {
                    "internalType": "uint256",
                    "name": "z",
                    "type": "uint256"
                }
            ],
            "stateMutability": "pure",
            "type": "function"
        },
        {
            "inputs": [
                {
                    "internalType": "uint256",
                    "name": "x",
                    "type": "uint256"
                },
                {
                    "internalType": "uint256",
                    "name": "y",
                    "type": "uint256"
                }
            ],
            "name": "rdivide",
            "outputs": [
                {
                    "internalType": "uint256",
                    "name": "z",
                    "type": "uint256"
                }
            ],
            "stateMutability": "pure",
            "type": "function"
        },
        {
            "inputs": [
                {
                    "internalType": "address",
                    "name": "account",
                    "type": "address"
                }
            ],
            "name": "removeAuthorization",
            "outputs": [],
            "stateMutability": "nonpayable",
            "type": "function"
        },
        {
            "inputs": [
                {
                    "internalType": "uint256",
                    "name": "x",
                    "type": "uint256"
                },
                {
                    "internalType": "uint256",
                    "name": "y",
                    "type": "uint256"
                }
            ],
            "name": "rmultiply",
            "outputs": [
                {
                    "internalType": "uint256",
                    "name": "z",
                    "type": "uint256"
                }
            ],
            "stateMutability": "pure",
            "type": "function"
        },
        {
            "inputs": [
                {
                    "internalType": "uint256",
                    "name": "x",
                    "type": "uint256"
                },
                {
                    "internalType": "uint256",
                    "name": "n",
                    "type": "uint256"
                },
                {
                    "internalType": "uint256",
                    "name": "base",
                    "type": "uint256"
                }
            ],
            "name": "rpower",
            "outputs": [
                {
                    "internalType": "uint256",
                    "name": "z",
                    "type": "uint256"
                }
            ],
            "stateMutability": "pure",
            "type": "function"
        },
        {
            "inputs": [],
            "name": "setterRelayer",
            "outputs": [
                {
                    "internalType": "contract SetterRelayer",
                    "name": "",
                    "type": "address"
                }
            ],
            "stateMutability": "view",
            "type": "function"
        },
        {
            "inputs": [
                {
                    "internalType": "uint256",
                    "name": "x",
                    "type": "uint256"
                },
                {
                    "internalType": "uint256",
                    "name": "y",
                    "type": "uint256"
                }
            ],
            "name": "subtract",
            "outputs": [
                {
                    "internalType": "uint256",
                    "name": "z",
                    "type": "uint256"
                }
            ],
            "stateMutability": "pure",
            "type": "function"
        },
        {
            "inputs": [
                {
                    "internalType": "address",
                    "name": "feeReceiver",
                    "type": "address"
                }
            ],
            "name": "updateRate",
            "outputs": [],
            "stateMutability": "nonpayable",
            "type": "function"
        },
        {
            "inputs": [],
            "name": "updateRateDelay",
            "outputs": [
                {
                    "internalType": "uint256",
                    "name": "",
                    "type": "uint256"
                }
            ],
            "stateMutability": "view",
            "type": "function"
        },
        {
            "inputs": [
                {
                    "internalType": "uint256",
                    "name": "x",
                    "type": "uint256"
                },
                {
                    "internalType": "uint256",
                    "name": "y",
                    "type": "uint256"
                }
            ],
            "name": "wdivide",
            "outputs": [
                {
                    "internalType": "uint256",
                    "name": "z",
                    "type": "uint256"
                }
            ],
            "stateMutability": "pure",
            "type": "function"
        },
        {
            "inputs": [
                {
                    "internalType": "uint256",
                    "name": "x",
                    "type": "uint256"
                },
                {
                    "internalType": "uint256",
                    "name": "y",
                    "type": "uint256"
                }
            ],
            "name": "wmultiply",
            "outputs": [
                {
                    "internalType": "uint256",
                    "name": "z",
                    "type": "uint256"
                }
            ],
            "stateMutability": "pure",
            "type": "function"
        }
    ],
    "bytecode": {
        "object": "0x608060405234801561001057600080fd5b506040516117f13803806117f1833981810160405260a081101561003357600080fd5b508051602082015160408301516060840151608090940151929391929091906001600160a01b0385166100ad576040805162461bcd60e51b815260206004820181905260248201527f5049526174655365747465722f6e756c6c2d6f7261636c652d72656c61796572604482015290519081900360640190fd5b6001600160a01b038416610108576040805162461bcd60e51b815260206004820181905260248201527f5049526174655365747465722f6e756c6c2d7365747465722d72656c61796572604482015290519081900360640190fd5b6001600160a01b038316610163576040805162461bcd60e51b815260206004820152601660248201527f5049526174655365747465722f6e756c6c2d6f72636c00000000000000000000604482015290519081900360640190fd5b6001600160a01b0382166101be576040805162461bcd60e51b815260206004820152601c60248201527f5049526174655365747465722f6e756c6c2d63616c63756c61746f7200000000604482015290519081900360640190fd5b3360008181526020818152604091829020600190819055600355600580546001600160a01b038a81166001600160a01b031992831617909255600680548a84169083161790556004805489841690831617905560078054928816929091169190911790556002849055815192835290517f599a298163e1678bb1c676052a8930bf0b8a1261ed6e01b8a2391e55f70001029281900390910190a160408051631bdc98db60e21b81526001600160a01b038516602082015281516000805160206117d1833981519152929181900390910190a1604080516c37b930b1b632a932b630bcb2b960991b81526001600160a01b038716602082015281516000805160206117d1833981519152929181900390910190a1604080516c39b2ba3a32b92932b630bcb2b960991b81526001600160a01b038616602082015281516000805160206117d1833981519152929181900390910190a1604080516c3834b221b0b631bab630ba37b960991b81526001600160a01b038416602082015281516000805160206117d1833981519152929181900390910190a1604080516e7570646174655261746544656c617960881b81526020810183905281517fac7c5c1afaef770ec56ac6268cd3f2fbb1035858ead2601d6553157c33036c3a929181900390910190a1505050505061141d806103b46000396000f3fe608060405234801561001057600080fd5b50600436106101c45760003560e01c806363c9f725116100f9578063d6e882dc11610097578063f435899f11610071578063f435899f14610458578063f74826bb14610460578063f752fdc314610486578063fe4f5890146104a9576101c4565b8063d6e882dc14610404578063dd2d2a121461042d578063ddf0b81314610450576101c4565b80636a146024116100d35780636a146024146103ab57806394f3f81d146103b3578063a0871637146103d9578063c8f33c91146103fc576101c4565b806363c9f7251461036f578063660e16c3146103775780636614f0101461037f576101c4565b8063448a2638116101665780634faf61ab116101405780634faf61ab1461031b57806354f363a314610323578063552033c41461034657806363ac7ca71461034e576101c4565b8063448a2638146102d257806346f3e81c146102f65780634a8d632c14610313576101c4565b806324ba5884116101a257806324ba58841461023e57806335b28153146102645780633c8bb3e61461028c5780633ef5e445146102af576101c4565b8063056640b7146101c957806310213447146101fe578063165c4a161461021b575b600080fd5b6101ec600480360360408110156101df57600080fd5b50803590602001356104cc565b60408051918252519081900360200190f35b6101ec6004803603602081101561021457600080fd5b50356104f4565b6101ec6004803603604081101561023157600080fd5b508035906020013561050a565b6101ec6004803603602081101561025457600080fd5b50356001600160a01b031661056f565b61028a6004803603602081101561027a57600080fd5b50356001600160a01b0316610581565b005b6101ec600480360360408110156102a257600080fd5b5080359060200135610621565b6101ec600480360360408110156102c557600080fd5b5080359060200135610636565b6102da61068e565b604080516001600160a01b039092168252519081900360200190f35b6101ec6004803603602081101561030c57600080fd5b503561069d565b6102da6106b5565b6102da6106c4565b6101ec6004803603604081101561033957600080fd5b50803590602001356106d3565b6101ec610724565b610356610734565b6040805192835260208301919091528051918290030190f35b6101ec610820565b6101ec610826565b61028a6004803603604081101561039557600080fd5b50803590602001356001600160a01b031661089c565b6101ec610a93565b61028a600480360360208110156103c957600080fd5b50356001600160a01b0316610a9f565b6101ec600480360360408110156103ef57600080fd5b5080359060200135610b3e565b6101ec610b57565b6101ec6004803603606081101561041a57600080fd5b5080359060208101359060400135610b5d565b6101ec6004803603604081101561044357600080fd5b5080359060200135610c1b565b6101ec610c34565b6102da610c3a565b61028a6004803603602081101561047657600080fd5b50356001600160a01b0316610c49565b6101ec6004803603604081101561049c57600080fd5b50803590602001356111e1565b61028a600480360360408110156104bf57600080fd5b50803590602001356111f6565b60006b033b2e3c9fd0803ce80000006104e5848461050a565b816104ec57fe5b049392505050565b600061050482633b9aca0061050a565b92915050565b60008115806105255750508082028282828161052257fe5b04145b610504576040805162461bcd60e51b815260206004820152601660248201527575696e742d75696e742d6d756c2d6f766572666c6f7760501b604482015290519081900360640190fd5b60006020819052908152604090205481565b336000908152602081905260409020546001146105cf5760405162461bcd60e51b815260040180806020018281038252602381526020018061139f6023913960400191505060405180910390fd5b6001600160a01b0381166000818152602081815260409182902060019055815192835290517f599a298163e1678bb1c676052a8930bf0b8a1261ed6e01b8a2391e55f70001029281900390910190a150565b6000670de0b6b3a76400006104e5848461050a565b80820382811115610504576040805162461bcd60e51b815260206004820152601760248201527f75696e742d75696e742d7375622d756e646572666c6f77000000000000000000604482015290519081900360640190fd5b6007546001600160a01b031681565b6000610504826b033b2e3c9fd0803ce800000061050a565b6004546001600160a01b031681565b6005546001600160a01b031681565b81810182811015610504576040805162461bcd60e51b815260206004820152601660248201527575696e742d75696e742d6164642d6f766572666c6f7760501b604482015290519081900360640190fd5b6b033b2e3c9fd0803ce800000081565b60048054604080516309fa15b560e31b8152815160009485946001600160a01b031693634fd0ada89380830193919290829003018186803b15801561077857600080fd5b505afa15801561078c573d6000803e3d6000fd5b505050506040513d60408110156107a257600080fd5b505160055460408051630316dd2360e61b815290519294506001600160a01b039091169163c5b748c0916004808201926020929091908290030181600087803b1580156107ee57600080fd5b505af1158015610802573d6000803e3d6000fd5b505050506040513d602081101561081857600080fd5b505191929050565b60025481565b60048054604080516309fa15b560e31b8152815160009485946001600160a01b031693634fd0ada89380830193919290829003018186803b15801561086a57600080fd5b505afa15801561087e573d6000803e3d6000fd5b505050506040513d604081101561089457600080fd5b505191505090565b336000908152602081905260409020546001146108ea5760405162461bcd60e51b815260040180806020018281038252602381526020018061139f6023913960400191505060405180910390fd5b6001600160a01b03811661093e576040805162461bcd60e51b81526020600482015260166024820152752824a930ba32a9b2ba3a32b917b73ab63616b0b2323960511b604482015290519081900360640190fd5b81631bdc98db60e21b141561096d57600480546001600160a01b0319166001600160a01b038316179055610a4c565b816c37b930b1b632a932b630bcb2b960991b14156109a557600580546001600160a01b0319166001600160a01b038316179055610a4c565b816c39b2ba3a32b92932b630bcb2b960991b14156109dd57600680546001600160a01b0319166001600160a01b038316179055610a4c565b816c3834b221b0b631bab630ba37b960991b1415610a1557600780546001600160a01b0319166001600160a01b038316179055610a4c565b60405162461bcd60e51b81526004018080602001828103825260268152602001806113c26026913960400191505060405180910390fd5b604080518381526001600160a01b038316602082015281517fd91f38cf03346b5dc15fb60f9076f866295231ad3c3841a1051f8443f25170d1929181900390910190a15050565b670de0b6b3a764000081565b33600090815260208190526040902054600114610aed5760405162461bcd60e51b815260040180806020018281038252602381526020018061139f6023913960400191505060405180910390fd5b6001600160a01b03811660008181526020818152604080832092909255815192835290517f8834a87e641e9716be4f34527af5d23e11624f1ddeefede6ad75a9acfc31b9039281900390910190a150565b6000816104e5846b033b2e3c9fd0803ce800000061050a565b60015481565b6000838015610bfd57600184168015610b7857859250610b7c565b8392505b50600283046002850494505b8415610bf7578586028687820414610b9f57600080fd5b81810181811015610baf57600080fd5b8590049650506001851615610bec578583028387820414158715151615610bd557600080fd5b81810181811015610be557600080fd5b8590049350505b600285049450610b88565b50610c13565b838015610c0d5760009250610c11565b8392505b505b509392505050565b600081831115610c2b5781610c2d565b825b9392505050565b60035481565b6006546001600160a01b031681565b6001600160a01b038116610ca4576040805162461bcd60e51b815260206004820152601e60248201527f5049526174655365747465722f6e756c6c2d6665652d72656365697665720000604482015290519081900360640190fd5b610cc3600254610cb642600154610636565b1015600154600014611358565b610d0d576040805162461bcd60e51b81526020600482015260166024820152755049526174655365747465722f776169742d6d6f726560501b604482015290519081900360640190fd5b60048054604080516309fa15b560e31b8152815160009485946001600160a01b031693634fd0ada89380830193919290829003018186803b158015610d5157600080fd5b505afa158015610d65573d6000803e3d6000fd5b505050506040513d6040811015610d7b57600080fd5b508051602090910151909250905080610dc55760405162461bcd60e51b815260040180806020018281038252602181526020018061137e6021913960400191505060405180910390fd5b60008211610e1a576040805162461bcd60e51b815260206004820152601760248201527f5049526174655365747465722f6e756c6c2d7072696365000000000000000000604482015290519081900360640190fd5b60055460408051630316dd2360e61b815290516000926001600160a01b03169163c5b748c091600480830192602092919082900301818787803b158015610e6057600080fd5b505af1158015610e74573d6000803e3d6000fd5b505050506040513d6020811015610e8a57600080fd5b5051600354909150600090600114610f965760075460408051630be3617360e31b81529051610f91926001600160a01b031691635f1b0b98916004808301926020929190829003018186803b158015610ee257600080fd5b505afa158015610ef6573d6000803e3d6000fd5b505050506040513d6020811015610f0c57600080fd5b505160075460408051636e3126ef60e01b815290516001600160a01b0390921691636e3126ef91600480820192602092909190829003018186803b158015610f5357600080fd5b505afa158015610f67573d6000803e3d6000fd5b505050506040513d6020811015610f7d57600080fd5b50516b033b2e3c9fd0803ce8000000610b5d565b610fa4565b6b033b2e3c9fd0803ce80000005b600754604080516338e3899760e11b815260048101889052602481018690526044810184905290519293506000926001600160a01b03909216916371c7132e9160648082019260209290919082900301818787803b15801561100557600080fd5b505af1158015611019573d6000803e3d6000fd5b505050506040513d602081101561102f57600080fd5b505142600155600654604080516359426fad60e01b8152600481018490526001600160a01b038a8116602483015291519394509116916359426fad9160448082019260009290919082900301818387803b15801561108c57600080fd5b505af192505050801561109d575060015b611190573d8080156110cb576040519150601f19603f3d011682016040523d82523d6000602084013e6110d0565b606091505b507f878358802301ac1f0e23e8ed16d4ab85e7fb999aef9e41643301346986421bf96110fb876104f4565b8584846040518085815260200184815260200183815260200180602001828103825283818151815260200191508051906020019080838360005b8381101561114d578181015183820152602001611135565b50505050905090810190601f16801561117a5780820380516001836020036101000a031916815260200191505b509550505050505060405180910390a1506111d9565b7f16abce12916e67b821a9cdabe7103d806d6f4280a69d5830925b3e34c83f52a86111ba866104f4565b6040805191825260208201869052818101849052519081900360600190a15b505050505050565b6000816104e584670de0b6b3a764000061050a565b336000908152602081905260409020546001146112445760405162461bcd60e51b815260040180806020018281038252602381526020018061139f6023913960400191505060405180910390fd5b816e7570646174655261746544656c617960881b14156112bd57600081116112b3576040805162461bcd60e51b815260206004820152601e60248201527f5049526174655365747465722f6e756c6c2d7570646174652d64656c61790000604482015290519081900360640190fd5b6002819055611319565b816a64656661756c744c65616b60a81b1415610a155760018111156113135760405162461bcd60e51b815260040180806020018281038252602181526020018061135d6021913960400191505060405180910390fd5b60038190555b604080518381526020810183905281517fac7c5c1afaef770ec56ac6268cd3f2fbb1035858ead2601d6553157c33036c3a929181900390910190a15050565b179056fe5049526174655365747465722f696e76616c69642d64656661756c742d6c65616b5049526174655365747465722f696e76616c69642d6f7261636c652d76616c75655049526174655365747465722f6163636f756e742d6e6f742d617574686f72697a65645049526174655365747465722f6d6f646966792d756e7265636f676e697a65642d706172616da26469706673582212200ba8665392e964ce85a61fc77913bf4f93a8a03ecee820461e39cd9f982efeba64736f6c63430006070033d91f38cf03346b5dc15fb60f9076f866295231ad3c3841a1051f8443f25170d1",
        "linkReferences": {}
    },
    "methodIdentifiers": {
        "RAY()": "552033c4",
        "WAD()": "6a146024",
        "addAuthorization(address)": "35b28153",
        "addition(uint256,uint256)": "54f363a3",
        "authorizedAccounts(address)": "24ba5884",
        "defaultLeak()": "ddf0b813",
        "getMarketPrice()": "660e16c3",
        "getRedemptionAndMarketPrices()": "63ac7ca7",
        "lastUpdateTime()": "c8f33c91",
        "minimum(uint256,uint256)": "dd2d2a12",
        "modifyParameters(bytes32,address)": "6614f010",
        "modifyParameters(bytes32,uint256)": "fe4f5890",
        "multiply(uint256,uint256)": "165c4a16",
        "oracleRelayer()": "4faf61ab",
        "orcl()": "4a8d632c",
        "pidCalculator()": "448a2638",
        "rad(uint256)": "46f3e81c",
        "ray(uint256)": "10213447",
        "rdivide(uint256,uint256)": "a0871637",
        "removeAuthorization(address)": "94f3f81d",
        "rmultiply(uint256,uint256)": "056640b7",
        "rpower(uint256,uint256,uint256)": "d6e882dc",
        "setterRelayer()": "f435899f",
        "subtract(uint256,uint256)": "3ef5e445",
        "updateRate(address)": "f74826bb",
        "updateRateDelay()": "63c9f725",
        "wdivide(uint256,uint256)": "f752fdc3",
        "wmultiply(uint256,uint256)": "3c8bb3e6"
    },
    "id": 33
}