{
    "abi": [
        {
            "inputs": [
                {
                    "internalType": "int256",
                    "name": "Kp_",
                    "type": "int256"
                },
                {
                    "internalType": "int256",
                    "name": "Ki_",
                    "type": "int256"
                },
                {
                    "internalType": "uint256",
                    "name": "perSecondCumulativeLeak_",
                    "type": "uint256"
                },
                {
                    "internalType": "uint256",
                    "name": "integralPeriodSize_",
                    "type": "uint256"
                },
                {
                    "internalType": "uint256",
                    "name": "noiseBarrier_",
                    "type": "uint256"
                },
                {
                    "internalType": "uint256",
                    "name": "feedbackOutputUpperBound_",
                    "type": "uint256"
                },
                {
                    "internalType": "int256",
                    "name": "feedbackOutputLowerBound_",
                    "type": "int256"
                },
                {
                    "internalType": "int256[]",
                    "name": "importedState",
                    "type": "int256[]"
                }
            ],
            "stateMutability": "nonpayable",
            "type": "constructor"
        },
        {
            "inputs": [],
            "name": "adat",
            "outputs": [
                {
                    "internalType": "uint256",
                    "name": "",
                    "type": "uint256"
                }
            ],
            "stateMutability": "view",
            "type": "function"
        },
        {
            "inputs": [
                {
                    "internalType": "address",
                    "name": "account",
                    "type": "address"
                }
            ],
            "name": "addAuthority",
            "outputs": [],
            "stateMutability": "nonpayable",
            "type": "function"
        },
        {
            "inputs": [
                {
                    "internalType": "address",
                    "name": "account",
                    "type": "address"
                }
            ],
            "name": "addReader",
            "outputs": [],
            "stateMutability": "nonpayable",
            "type": "function"
        },
        {
            "inputs": [],
            "name": "ag",
            "outputs": [
                {
                    "internalType": "int256",
                    "name": "",
                    "type": "int256"
                }
            ],
            "stateMutability": "view",
            "type": "function"
        },
        {
            "inputs": [],
            "name": "allReaderToggle",
            "outputs": [
                {
                    "internalType": "uint256",
                    "name": "",
                    "type": "uint256"
                }
            ],
            "stateMutability": "view",
            "type": "function"
        },
        {
            "inputs": [
                {
                    "internalType": "address",
                    "name": "",
                    "type": "address"
                }
            ],
            "name": "authorities",
            "outputs": [
                {
                    "internalType": "uint256",
                    "name": "",
                    "type": "uint256"
                }
            ],
            "stateMutability": "view",
            "type": "function"
        },
        {
            "inputs": [
                {
                    "internalType": "uint256",
                    "name": "piSum",
                    "type": "uint256"
                },
                {
                    "internalType": "uint256",
                    "name": "redemptionPrice",
                    "type": "uint256"
                }
            ],
            "name": "breaksNoiseBarrier",
            "outputs": [
                {
                    "internalType": "bool",
                    "name": "",
                    "type": "bool"
                }
            ],
            "stateMutability": "view",
            "type": "function"
        },
        {
            "inputs": [
                {
                    "internalType": "uint256",
                    "name": "marketPrice",
                    "type": "uint256"
                },
                {
                    "internalType": "uint256",
                    "name": "redemptionPrice",
                    "type": "uint256"
                },
                {
                    "internalType": "uint256",
                    "name": "accumulatedLeak",
                    "type": "uint256"
                }
            ],
            "name": "computeRate",
            "outputs": [
                {
                    "internalType": "uint256",
                    "name": "",
                    "type": "uint256"
                }
            ],
            "stateMutability": "nonpayable",
            "type": "function"
        },
        {
            "inputs": [],
            "name": "dgt",
            "outputs": [
                {
                    "internalType": "uint256",
                    "name": "",
                    "type": "uint256"
                }
            ],
            "stateMutability": "view",
            "type": "function"
        },
        {
            "inputs": [
                {
                    "internalType": "uint256",
                    "name": "i",
                    "type": "uint256"
                }
            ],
            "name": "dos",
            "outputs": [
                {
                    "internalType": "uint256",
                    "name": "",
                    "type": "uint256"
                },
                {
                    "internalType": "int256",
                    "name": "",
                    "type": "int256"
                },
                {
                    "internalType": "int256",
                    "name": "",
                    "type": "int256"
                }
            ],
            "stateMutability": "view",
            "type": "function"
        },
        {
            "inputs": [],
            "name": "drr",
            "outputs": [
                {
                    "internalType": "uint256",
                    "name": "",
                    "type": "uint256"
                }
            ],
            "stateMutability": "view",
            "type": "function"
        },
        {
            "inputs": [],
            "name": "folb",
            "outputs": [
                {
                    "internalType": "int256",
                    "name": "",
                    "type": "int256"
                }
            ],
            "stateMutability": "view",
            "type": "function"
        },
        {
            "inputs": [],
            "name": "foub",
            "outputs": [
                {
                    "internalType": "uint256",
                    "name": "",
                    "type": "uint256"
                }
            ],
            "stateMutability": "view",
            "type": "function"
        },
        {
            "inputs": [
                {
                    "internalType": "int256",
                    "name": "piOutput",
                    "type": "int256"
                }
            ],
            "name": "getBoundedRedemptionRate",
            "outputs": [
                {
                    "internalType": "uint256",
                    "name": "",
                    "type": "uint256"
                },
                {
                    "internalType": "uint256",
                    "name": "",
                    "type": "uint256"
                }
            ],
            "stateMutability": "view",
            "type": "function"
        },
        {
            "inputs": [
                {
                    "internalType": "int256",
                    "name": "proportionalTerm",
                    "type": "int256"
                },
                {
                    "internalType": "int256",
                    "name": "integralTerm",
                    "type": "int256"
                }
            ],
            "name": "getGainAdjustedPIOutput",
            "outputs": [
                {
                    "internalType": "int256",
                    "name": "",
                    "type": "int256"
                }
            ],
            "stateMutability": "view",
            "type": "function"
        },
        {
            "inputs": [
                {
                    "internalType": "int256",
                    "name": "proportionalTerm",
                    "type": "int256"
                },
                {
                    "internalType": "int256",
                    "name": "integralTerm",
                    "type": "int256"
                }
            ],
            "name": "getGainAdjustedTerms",
            "outputs": [
                {
                    "internalType": "int256",
                    "name": "",
                    "type": "int256"
                },
                {
                    "internalType": "int256",
                    "name": "",
                    "type": "int256"
                }
            ],
            "stateMutability": "view",
            "type": "function"
        },
        {
            "inputs": [],
            "name": "getLastIntegralTerm",
            "outputs": [
                {
                    "internalType": "int256",
                    "name": "",
                    "type": "int256"
                }
            ],
            "stateMutability": "view",
            "type": "function"
        },
        {
            "inputs": [],
            "name": "getLastProportionalTerm",
            "outputs": [
                {
                    "internalType": "int256",
                    "name": "",
                    "type": "int256"
                }
            ],
            "stateMutability": "view",
            "type": "function"
        },
        {
            "inputs": [
                {
                    "internalType": "int256",
                    "name": "proportionalTerm",
                    "type": "int256"
                },
                {
                    "internalType": "uint256",
                    "name": "accumulatedLeak",
                    "type": "uint256"
                }
            ],
            "name": "getNextPriceDeviationCumulative",
            "outputs": [
                {
                    "internalType": "int256",
                    "name": "",
                    "type": "int256"
                },
                {
                    "internalType": "int256",
                    "name": "",
                    "type": "int256"
                }
            ],
            "stateMutability": "view",
            "type": "function"
        },
        {
            "inputs": [
                {
                    "internalType": "uint256",
                    "name": "marketPrice",
                    "type": "uint256"
                },
                {
                    "internalType": "uint256",
                    "name": "redemptionPrice",
                    "type": "uint256"
                },
                {
                    "internalType": "uint256",
                    "name": "accumulatedLeak",
                    "type": "uint256"
                }
            ],
            "name": "getNextRedemptionRate",
            "outputs": [
                {
                    "internalType": "uint256",
                    "name": "",
                    "type": "uint256"
                },
                {
                    "internalType": "int256",
                    "name": "",
                    "type": "int256"
                },
                {
                    "internalType": "int256",
                    "name": "",
                    "type": "int256"
                },
                {
                    "internalType": "uint256",
                    "name": "",
                    "type": "uint256"
                }
            ],
            "stateMutability": "view",
            "type": "function"
        },
        {
            "inputs": [
                {
                    "internalType": "uint256",
                    "name": "i",
                    "type": "uint256"
                }
            ],
            "name": "hcd",
            "outputs": [
                {
                    "internalType": "int256",
                    "name": "",
                    "type": "int256"
                }
            ],
            "stateMutability": "view",
            "type": "function"
        },
        {
            "inputs": [],
            "name": "ips",
            "outputs": [
                {
                    "internalType": "uint256",
                    "name": "",
                    "type": "uint256"
                }
            ],
            "stateMutability": "view",
            "type": "function"
        },
        {
            "inputs": [],
            "name": "lut",
            "outputs": [
                {
                    "internalType": "uint256",
                    "name": "",
                    "type": "uint256"
                }
            ],
            "stateMutability": "view",
            "type": "function"
        },
        {
            "inputs": [
                {
                    "internalType": "bytes32",
                    "name": "parameter",
                    "type": "bytes32"
                },
                {
                    "internalType": "int256",
                    "name": "val",
                    "type": "int256"
                }
            ],
            "name": "modifyParameters",
            "outputs": [],
            "stateMutability": "nonpayable",
            "type": "function"
        },
        {
            "inputs": [
                {
                    "internalType": "bytes32",
                    "name": "parameter",
                    "type": "bytes32"
                },
                {
                    "internalType": "address",
                    "name": "addr",
                    "type": "address"
                }
            ],
            "name": "modifyParameters",
            "outputs": [],
            "stateMutability": "nonpayable",
            "type": "function"
        },
        {
            "inputs": [
                {
                    "internalType": "bytes32",
                    "name": "parameter",
                    "type": "bytes32"
                },
                {
                    "internalType": "uint256",
                    "name": "val",
                    "type": "uint256"
                }
            ],
            "name": "modifyParameters",
            "outputs": [],
            "stateMutability": "nonpayable",
            "type": "function"
        },
        {
            "inputs": [],
            "name": "nb",
            "outputs": [
                {
                    "internalType": "uint256",
                    "name": "",
                    "type": "uint256"
                }
            ],
            "stateMutability": "view",
            "type": "function"
        },
        {
            "inputs": [],
            "name": "oll",
            "outputs": [
                {
                    "internalType": "uint256",
                    "name": "",
                    "type": "uint256"
                }
            ],
            "stateMutability": "view",
            "type": "function"
        },
        {
            "inputs": [],
            "name": "pdc",
            "outputs": [
                {
                    "internalType": "int256",
                    "name": "",
                    "type": "int256"
                }
            ],
            "stateMutability": "view",
            "type": "function"
        },
        {
            "inputs": [],
            "name": "pscl",
            "outputs": [
                {
                    "internalType": "uint256",
                    "name": "",
                    "type": "uint256"
                }
            ],
            "stateMutability": "view",
            "type": "function"
        },
        {
            "inputs": [
                {
                    "internalType": "address",
                    "name": "",
                    "type": "address"
                }
            ],
            "name": "readers",
            "outputs": [
                {
                    "internalType": "uint256",
                    "name": "",
                    "type": "uint256"
                }
            ],
            "stateMutability": "view",
            "type": "function"
        },
        {
            "inputs": [
                {
                    "internalType": "address",
                    "name": "account",
                    "type": "address"
                }
            ],
            "name": "removeAuthority",
            "outputs": [],
            "stateMutability": "nonpayable",
            "type": "function"
        },
        {
            "inputs": [
                {
                    "internalType": "address",
                    "name": "account",
                    "type": "address"
                }
            ],
            "name": "removeReader",
            "outputs": [],
            "stateMutability": "nonpayable",
            "type": "function"
        },
        {
            "inputs": [
                {
                    "internalType": "uint256",
                    "name": "marketPrice",
                    "type": "uint256"
                },
                {
                    "internalType": "uint256",
                    "name": "redemptionPrice",
                    "type": "uint256"
                },
                {
                    "internalType": "uint256",
                    "name": "accumulatedLeak",
                    "type": "uint256"
                }
            ],
            "name": "rt",
            "outputs": [
                {
                    "internalType": "uint256",
                    "name": "",
                    "type": "uint256"
                }
            ],
            "stateMutability": "view",
            "type": "function"
        },
        {
            "inputs": [],
            "name": "seedProposer",
            "outputs": [
                {
                    "internalType": "address",
                    "name": "",
                    "type": "address"
                }
            ],
            "stateMutability": "view",
            "type": "function"
        },
        {
            "inputs": [],
            "name": "sg",
            "outputs": [
                {
                    "internalType": "int256",
                    "name": "",
                    "type": "int256"
                }
            ],
            "stateMutability": "view",
            "type": "function"
        },
        {
            "inputs": [],
            "name": "tlv",
            "outputs": [
                {
                    "internalType": "uint256",
                    "name": "",
                    "type": "uint256"
                }
            ],
            "stateMutability": "view",
            "type": "function"
        }
    ],
    "bytecode": {
        "object": "0x60806040523480156200001157600080fd5b5060405162002bb638038062002bb683398181016040526101008110156200003857600080fd5b815160208301516040808501516060860151608087015160a088015160c089015160e08a0180519651989a9799959894979396929591949391820192846401000000008211156200008857600080fd5b9083019060208201858111156200009e57600080fd5b8251866020820283011164010000000082111715620000bc57600080fd5b82525081516020918201928201910280838360005b83811015620000eb578181015183820152602001620000d1565b505050509050016040525050506b033b2e3c9fd0803ce80000006006819055506200014e6200013a620001296000196006546200053c60201b60201c565b60016001600160e01b036200053c16565b84108415156001600160e01b036200058d16565b6200018b5760405162461bcd60e51b815260040180806020018281038252602881526020018062002b406028913960400191505060405180910390fd5b620001b3600083126b033b2e3c9fd0803ce7fffffe198412156001600160e01b036200058d16565b620001f05760405162461bcd60e51b815260040180806020018281038252602881526020018062002b8e6028913960400191505060405180910390fd5b60008511620002315760405162461bcd60e51b815260040180806020018281038252602781526020018062002a9c6027913960400191505060405180910390fd5b42816000815181106200024057fe5b60200260200101511115620002875760405162461bcd60e51b815260040180806020018281038252603181526020018062002b0f6031913960400191505060405180910390fd5b620002a9841515670de0b6b3a76400008611156001600160e01b036200058d16565b620002e65760405162461bcd60e51b815260040180806020018281038252602681526020018062002ae96026913960400191505060405180910390fd5b62000312670de0b6b3a763ffff19891215670de0b6b3a76400008a13156001600160e01b036200058d16565b6200034f5760405162461bcd60e51b815260040180806020018281038252602681526020018062002ac36026913960400191505060405180910390fd5b6200037b670de0b6b3a763ffff19881215670de0b6b3a76400008913156001600160e01b036200058d16565b620003b85760405162461bcd60e51b815260040180806020018281038252602681526020018062002b686026913960400191505060405180910390fd5b33600090815260208181526040808320600190819055808352928190209290925560078590556008849055600987905581518083019092528982520187905260028890556003878155600d879055815182919081106200041457fe5b6020026020010151600c8190555083600581905550806000815181106200043757fe5b6020026020010151600e819055506000816004815181106200045557fe5b60200260200101511315620004f757600a6040518060600160405280836004815181106200047f57fe5b60200260200101518152602001836001815181106200049a57fe5b6020026020010151815260200183600281518110620004b557fe5b60209081029190910181015190915282546001818101855560009485529382902083516003909202019081559082015192810192909255604001516002909101555b5050600c54600b80546001810182556000919091527f0175b7a638427703f0dbe7bb9bbf987a2551717b34e79f33b5b1008d1fa01db90155506200062c945050505050565b60006200058683836040518060400160405280601e81526020017f536166654d6174683a207375627472616374696f6e206f766572666c6f7700008152506200059160201b60201c565b9392505050565b1690565b60008184841115620006245760405162461bcd60e51b81526004018080602001828103825283818151815260200191508051906020019080838360005b83811015620005e8578181015183820152602001620005ce565b50505050905090810190601f168015620006165780820380516001836020036101000a031916815260200191505b509250505060405180910390fd5b505050900390565b612460806200063c6000396000f3fe608060405234801561001057600080fd5b50600436106102275760003560e01c80636e3126ef11610130578063c1b80083116100b8578063e5aa2ed01161007c578063e5aa2ed01461056b578063e85d3bec14610588578063f167a1b814610590578063f6d5924d146105b3578063fe4f5890146105ee57610227565b8063c1b80083146104f6578063c234f25a1461052d578063d2c00e2414610535578063d41fb39c1461053d578063d544e0101461054557610227565b80638d8900bd116100ff5780638d8900bd1461049257806391223d691461049a5780639f180501146104c0578063afd8b1d1146104c8578063b5647d07146104ee57610227565b80636e3126ef1461045157806371c7132e14610459578063803c6ee614610482578063822c530e1461048a57610227565b80634635a4f4116101b35780635f1b0b98116101825780635f1b0b98146103ce578063610a714a146103d65780636531fe7b146103f95780636614f0101461040157806369cb99451461042d57610227565b80634635a4f41461032e57806350473b681461037d57806351e59ffb146103a0578063579e3cb3146103c657610227565b806330d1c515116101fa57806330d1c515146102cd5780633523af48146102d557806337345e63146102dd57806338d65d11146103005780633bd2b97f1461032657610227565b80631f5b30051461022c57806326defa731461026257806328f2d5891461028a5780632af8afca146102c5575b600080fd5b6102496004803603602081101561024257600080fd5b5035610611565b6040805192835260208301919091528051918290030190f35b6102886004803603602081101561027857600080fd5b50356001600160a01b031661072c565b005b6102b3600480360360608110156102a057600080fd5b5080359060208101359060400135610797565b60408051918252519081900360200190f35b6102b3610812565b6102b3610879565b6102b36108e0565b610249600480360360408110156102f357600080fd5b5080359060200135610976565b6102886004803603602081101561031657600080fd5b50356001600160a01b0316610a5a565b6102b3610ac2565b6103576004803603606081101561034457600080fd5b5080359060208101359060400135610b29565b604080519485526020850193909352838301919091526060830152519081900360800190f35b6102496004803603604081101561039357600080fd5b5080359060200135610c69565b6102b3600480360360208110156103b657600080fd5b50356001600160a01b0316610d16565b6102b3610d28565b6102b3610dca565b610288600480360360408110156103ec57600080fd5b5080359060200135610e31565b6102b3611068565b6102886004803603604081101561041757600080fd5b50803590602001356001600160a01b031661106e565b61043561111a565b604080516001600160a01b039092168252519081900360200190f35b6102b3611129565b6102b36004803603606081101561046f57600080fd5b50803590602081013590604001356111ae565b6102b36112ef565b6102b3611356565b6102b36113bd565b6102b3600480360360208110156104b057600080fd5b50356001600160a01b0316611424565b6102b3611436565b610288600480360360208110156104de57600080fd5b50356001600160a01b031661149d565b6102b3611508565b6105196004803603604081101561050c57600080fd5b508035906020013561156f565b604080519115158252519081900360200190f35b6102b3611622565b6102b3611689565b6102b36116f0565b6102886004803603602081101561055b57600080fd5b50356001600160a01b0316611757565b6102b36004803603602081101561058157600080fd5b50356117bf565b6102b361183e565b6102b3600480360360408110156105a657600080fd5b50803590602001356118e0565b6105d0600480360360208110156105c957600080fd5b5035611964565b60408051938452602084019290925282820152519081900360600190f35b6102886004803603604081101561060457600080fd5b5080359060200135611a31565b60045433600090815260016020819052604082205491928392610638929182149114611c42565b6106735760405162461bcd60e51b81526004018080602001828103825260288152602001806121b96028913960400191505060405180910390fd5b600854839060009082121561068c57600854915061069c565b60075485131561069c5760075491505b600080831280156106b257506006548360000312155b905080156106ce576b033b2e3c9fd0803ce7ffffff9150610720565b6000831280156106eb57506b033b2e3c9fd0803ce7fffffe198313155b156107115760065461070a906b033b2e3c9fd0803ce7fffffe19611c46565b9150610720565b61071d60065484611c46565b91505b50946001945092505050565b3360009081526020819052604090205460011461077a5760405162461bcd60e51b815260040180806020018281038252602c81526020018061218d602c913960400191505060405180910390fd5b6001600160a01b0316600090815260208190526040902060019055565b60045433600090815260016020819052604082205491926107bc929082149114611c42565b6107f75760405162461bcd60e51b81526004018080602001828103825260288152602001806121b96028913960400191505060405180910390fd5b6000610804858585610b29565b9450505050505b9392505050565b6004543360009081526001602081905260408220549192610837929082149114611c42565b6108725760405162461bcd60e51b81526004018080602001828103825260288152602001806121b96028913960400191505060405180910390fd5b5060015b90565b600454336000908152600160208190526040822054919261089e929082149114611c42565b6108d95760405162461bcd60e51b81526004018080602001828103825260288152602001806121b96028913960400191505060405180910390fd5b50600e5490565b6004543360009081526001602081905260408220549192610905929082149114611c42565b6109405760405162461bcd60e51b81526004018080602001828103825260288152602001806121b96028913960400191505060405180910390fd5b600061094e42600e54611cab565b9050600954811015610964576000915050610876565b61097081600954611cab565b91505090565b6004543360009081526001602081905260408220549192839261099d929182149114611c42565b6109d85760405162461bcd60e51b81526004018080602001828103825260288152602001806121b96028913960400191505060405180910390fd5b60006109e2610d28565b90506000600e54600014610a01576109fc42600e54611cab565b610a04565b60005b90506000610a1b610a158885611ced565b83611d0a565b90506000610a40610a2e88600c54611d0a565b6b033b2e3c9fd0803ce8000000611db3565b9050610a4c8183611c46565b989197509095505050505050565b33600090815260208190526040902054600114610aa85760405162461bcd60e51b815260040180806020018281038252602c81526020018061218d602c913960400191505060405180910390fd5b6001600160a01b0316600090815260016020526040812055565b6004543360009081526001602081905260408220549192610ae7929082149114611c42565b610b225760405162461bcd60e51b81526004018080602001828103825260288152602001806121b96028913960400191505060405180910390fd5b50600c5490565b600080600080610b6660045460011460016000336001600160a01b03166001600160a01b0316815260200190815260200160002054600114611c42565b610ba15760405162461bcd60e51b81526004018080602001828103825260288152602001806121b96028913960400191505060405180910390fd5b6000610bb188633b9aca00611e6b565b9050600087610bd5610bc38a85611ec4565b6b033b2e3c9fd0803ce8000000611d0a565b81610bdc57fe5b0590506000610beb8289610976565b5090506000610bfa83836118e0565b9050610c0e610c0882611f29565b8b61156f565b8015610c1957508015155b15610c4057600080610c2a83610611565b909a50949850929650929450610c609350505050565b506b033b2e3c9fd0803ce80000009650909450925060019150610c609050565b93509350935093565b60045433600090815260016020819052604082205491928392610c90929182149114611c42565b610ccb5760405162461bcd60e51b81526004018080602001828103825260288152602001806121b96028913960400191505060405180910390fd5b670de0b6b3a7640000610ce385600260000154611d0a565b81610cea57fe5b05670de0b6b3a7640000610d0385600260010154611d0a565b81610d0a57fe5b05915091509250929050565b60016020526000908152604090205481565b6004543360009081526001602081905260408220549192610d4d929082149114611c42565b610d885760405162461bcd60e51b81526004018080602001828103825260288152602001806121b96028913960400191505060405180910390fd5b610d90611508565b610d9c57506000610876565b600a6001610da8611508565b0381548110610db357fe5b906000526020600020906003020160010154905090565b6004543360009081526001602081905260408220549192610def929082149114611c42565b610e2a5760405162461bcd60e51b81526004018080602001828103825260288152602001806121b96028913960400191505060405180910390fd5b50600d5490565b33600090815260208190526040902054600114610e7f5760405162461bcd60e51b815260040180806020018281038252602c81526020018061218d602c913960400191505060405180910390fd5b81633337b63160e11b1415610ef057610eab600082126b033b2e3c9fd0803ce7fffffe19831215611f3f565b610ee65760405162461bcd60e51b81526004018080602001828103825260288152602001806123d56028913960400191505060405180910390fd5b6008819055611064565b8161736760f01b1415610f6357610f1e670de0b6b3a763ffff19821215670de0b6b3a7640000831315611f3f565b610f595760405162461bcd60e51b81526004018080602001828103825260268152602001806122c66026913960400191505060405180910390fd5b6002819055611064565b8161616760f01b1415610fd657610f91670de0b6b3a763ffff19821215670de0b6b3a7640000831315611f3f565b610fcc5760405162461bcd60e51b81526004018080602001828103825260268152602001806123af6026913960400191505060405180910390fd5b6003819055611064565b816270646360e81b141561102d57600354156110235760405162461bcd60e51b815260040180806020018281038252602a815260200180612339602a913960400191505060405180910390fd5b600c819055611064565b60405162461bcd60e51b81526004018080602001828103825260358152602001806122276035913960400191505060405180910390fd5b5050565b60045481565b336000908152602081905260409020546001146110bc5760405162461bcd60e51b815260040180806020018281038252602c81526020018061218d602c913960400191505060405180910390fd5b816b39b2b2b2283937b837b9b2b960a11b141561102d57600f80546001600160a01b03908116600090815260016020819052604080832083905584546001600160a01b03191686851617948590559390921681529190912055611064565b600f546001600160a01b031681565b600454336000908152600160208190526040822054919261114e929082149114611c42565b6111895760405162461bcd60e51b81526004018080602001828103825260288152602001806121b96028913960400191505060405180910390fd5b6000600e546000146111a6576111a142600e54611cab565b610970565b600091505090565b600f546000906001600160a01b031633146111fa5760405162461bcd60e51b815260040180806020018281038252602e8152602001806123fd602e913960400191505060405180910390fd5b60095461120942600e54611cab565b1015806112165750600e54155b6112515760405162461bcd60e51b81526004018080602001828103825260258152602001806121e16025913960400191505060405180910390fd5b600061126185633b9aca00611e6b565b9050600084611273610bc38785611ec4565b8161127a57fe5b0590506112878185611f43565b42600e81905550600061129c82600c546118e0565b90506112b06112aa82611f29565b8761156f565b80156112bb57508015155b156112d85760006112cb82610611565b50945061080b9350505050565b6b033b2e3c9fd0803ce8000000935050505061080b565b6004543360009081526001602081905260408220549192611314929082149114611c42565b61134f5760405162461bcd60e51b81526004018080602001828103825260288152602001806121b96028913960400191505060405180910390fd5b5060075490565b600454336000908152600160208190526040822054919261137b929082149114611c42565b6113b65760405162461bcd60e51b81526004018080602001828103825260288152602001806121b96028913960400191505060405180910390fd5b5060085490565b60045433600090815260016020819052604082205491926113e2929082149114611c42565b61141d5760405162461bcd60e51b81526004018080602001828103825260288152602001806121b96028913960400191505060405180910390fd5b5060025490565b60006020819052908152604090205481565b600454336000908152600160208190526040822054919261145b929082149114611c42565b6114965760405162461bcd60e51b81526004018080602001828103825260288152602001806121b96028913960400191505060405180910390fd5b5060035490565b336000908152602081905260409020546001146114eb5760405162461bcd60e51b815260040180806020018281038252602c81526020018061218d602c913960400191505060405180910390fd5b6001600160a01b0316600090815260016020819052604090912055565b600454336000908152600160208190526040822054919261152d929082149114611c42565b6115685760405162461bcd60e51b81526004018080602001828103825260288152602001806121b96028913960400191505060405180910390fd5b50600a5490565b6004543360009081526001602081905260408220549192611594929082149114611c42565b6115cf5760405162461bcd60e51b81526004018080602001828103825260288152602001806121b96028913960400191505060405180910390fd5b60006115ef6115e76002670de0b6b3a7640000611e6b565b600554611cab565b905061161561160f6116018584611e6b565b670de0b6b3a764000061202a565b84611cab565b8410159150505b92915050565b6004543360009081526001602081905260408220549192611647929082149114611c42565b6116825760405162461bcd60e51b81526004018080602001828103825260288152602001806121b96028913960400191505060405180910390fd5b5060095490565b60045433600090815260016020819052604082205491926116ae929082149114611c42565b6116e95760405162461bcd60e51b81526004018080602001828103825260288152602001806121b96028913960400191505060405180910390fd5b5060055490565b6004543360009081526001602081905260408220549192611715929082149114611c42565b6117505760405162461bcd60e51b81526004018080602001828103825260288152602001806121b96028913960400191505060405180910390fd5b5060065490565b336000908152602081905260409020546001146117a55760405162461bcd60e51b815260040180806020018281038252602c81526020018061218d602c913960400191505060405180910390fd5b6001600160a01b0316600090815260208190526040812055565b60045433600090815260016020819052604082205491926117e4929082149114611c42565b61181f5760405162461bcd60e51b81526004018080602001828103825260288152602001806121b96028913960400191505060405180910390fd5b600b828154811061182c57fe5b90600052602060002001549050919050565b6004543360009081526001602081905260408220549192611863929082149114611c42565b61189e5760405162461bcd60e51b81526004018080602001828103825260288152602001806121b96028913960400191505060405180910390fd5b6118a6611508565b6118b257506000610876565b600a60016118be611508565b03815481106118c957fe5b906000526020600020906003020160020154905090565b6004543360009081526001602081905260408220549192611905929082149114611c42565b6119405760405162461bcd60e51b81526004018080602001828103825260288152602001806121b96028913960400191505060405180910390fd5b60008061194d8585610c69565b9150915061195b8282611c46565b95945050505050565b60045433600090815260016020819052604082205491928392839261198c9281149114611c42565b6119c75760405162461bcd60e51b81526004018080602001828103825260288152602001806121b96028913960400191505060405180910390fd5b600a84815481106119d457fe5b906000526020600020906003020160000154600a85815481106119f357fe5b906000526020600020906003020160010154600a8681548110611a1257fe5b9060005260206000209060030201600201549250925092509193909250565b33600090815260208190526040902054600114611a7f5760405162461bcd60e51b815260040180806020018281038252602c81526020018061218d602c913960400191505060405180910390fd5b8161373160f11b1415611ae957611aa460008211670de0b6b3a7640000831115611f3f565b611adf5760405162461bcd60e51b81526004018080602001828103825260268152602001806122ec6026913960400191505060405180910390fd5b6005819055611064565b816269707360e81b1415611b405760008111611b365760405162461bcd60e51b81526004018080602001828103825260248152602001806121696024913960400191505060405180910390fd5b6009819055611064565b81633337bab160e11b1415611bba57611b75611b6a611b63600019600654611cab565b6001611cab565b821060008311611f3f565b611bb05760405162461bcd60e51b81526004018080602001828103825260288152602001806123876028913960400191505060405180910390fd5b6007819055611064565b81631c1cd8db60e21b1415611c1e576b033b2e3c9fd0803ce8000000811115611c145760405162461bcd60e51b815260040180806020018281038252602881526020018061225c6028913960400191505060405180910390fd5b600d819055611064565b816e616c6c526561646572546f67676c6560881b141561102d576004819055611064565b1790565b6000828201818312801590611c5b5750838112155b80611c705750600083128015611c7057508381125b61080b5760405162461bcd60e51b81526004018080602001828103825260218152602001806122066021913960400191505060405180910390fd5b600061080b83836040518060400160405280601e81526020017f536166654d6174683a207375627472616374696f6e206f766572666c6f77000081525061206c565b60006002611cfb8484611c46565b81611d0257fe5b059392505050565b600082611d195750600061161c565b82600019148015611d2d5750600160ff1b82145b15611d695760405162461bcd60e51b81526004018080602001828103825260278152602001806123126027913960400191505060405180910390fd5b82820282848281611d7657fe5b051461080b5760405162461bcd60e51b81526004018080602001828103825260278152602001806123126027913960400191505060405180910390fd5b600081611e07576040805162461bcd60e51b815260206004820181905260248201527f5369676e6564536166654d6174683a206469766973696f6e206279207a65726f604482015290519081900360640190fd5b81600019148015611e1b5750600160ff1b83145b15611e575760405162461bcd60e51b81526004018080602001828103825260218152602001806122846021913960400191505060405180910390fd5b6000828481611e6257fe5b05949350505050565b600082611e7a5750600061161c565b82820282848281611e8757fe5b041461080b5760405162461bcd60e51b81526004018080602001828103825260218152602001806122a56021913960400191505060405180910390fd5b6000818303818312801590611ed95750838113155b80611eee5750600083128015611eee57508381135b61080b5760405162461bcd60e51b81526004018080602001828103825260248152602001806123636024913960400191505060405180910390fd5b6000808212611f38578161161c565b5060000390565b1690565b6000611f4f8383610976565b50600c819055600b805460018082019092557f0175b7a638427703f0dbe7bb9bbf987a2551717b34e79f33b5b1008d1fa01db9018290556040805160608101825242815260208101968752908101928352600a80549283018155600052517fc65a7bb8d6351c1cf70c95a316cc6a92839c986682d98bc35f958f4883f9d2a860039092029182015593517fc65a7bb8d6351c1cf70c95a316cc6a92839c986682d98bc35f958f4883f9d2a9850155517fc65a7bb8d6351c1cf70c95a316cc6a92839c986682d98bc35f958f4883f9d2aa909301929092555050565b600061080b83836040518060400160405280601a81526020017f536166654d6174683a206469766973696f6e206279207a65726f000000000000815250612103565b600081848411156120fb5760405162461bcd60e51b81526004018080602001828103825283818151815260200191508051906020019080838360005b838110156120c05781810151838201526020016120a8565b50505050905090810190601f1680156120ed5780820380516001836020036101000a031916815260200191505b509250505060405180910390fd5b505050900390565b600081836121525760405162461bcd60e51b81526020600482018181528351602484015283519092839260449091019190850190808383600083156120c05781810151838201526020016120a8565b50600083858161215e57fe5b049594505050505056fe50495363616c65645065725365636f6e6443616c63756c61746f722f6e756c6c2d69707350495363616c65645065725365636f6e6443616c63756c61746f722f6e6f742d616e2d617574686f7269747950495363616c65645065725365636f6e6443616c63756c61746f722f6e6f742d612d72656164657250495363616c65645065725365636f6e6443616c63756c61746f722f776169742d6d6f72655369676e6564536166654d6174683a206164646974696f6e206f766572666c6f7750495363616c65645065725365636f6e6443616c63756c61746f722f6d6f646966792d756e7265636f676e697a65642d706172616d50495363616c65645065725365636f6e6443616c63756c61746f722f696e76616c69642d7073636c5369676e6564536166654d6174683a206469766973696f6e206f766572666c6f77536166654d6174683a206d756c7469706c69636174696f6e206f766572666c6f7750495363616c65645065725365636f6e6443616c63756c61746f722f696e76616c69642d736750495363616c65645065725365636f6e6443616c63756c61746f722f696e76616c69642d6e625369676e6564536166654d6174683a206d756c7469706c69636174696f6e206f766572666c6f7750495363616c65645065725365636f6e6443616c63756c61746f722f63616e6e6f742d7365742d7064635369676e6564536166654d6174683a207375627472616374696f6e206f766572666c6f7750495363616c65645065725365636f6e6443616c63756c61746f722f696e76616c69642d666f756250495363616c65645065725365636f6e6443616c63756c61746f722f696e76616c69642d616750495363616c65645065725365636f6e6443616c63756c61746f722f696e76616c69642d666f6c6250495363616c65645065725365636f6e6443616c63756c61746f722f696e76616c69642d6d73672d73656e646572a2646970667358221220299f3ae355dad7cdeb9d851f356417b0a2ec8338e47af2317deb0987371da18864736f6c6343000607003350495363616c65645065725365636f6e6443616c63756c61746f722f696e76616c69642d69707350495363616c65645065725365636f6e6443616c63756c61746f722f696e76616c69642d736750495363616c65645065725365636f6e6443616c63756c61746f722f696e76616c69642d6e6250495363616c65645065725365636f6e6443616c63756c61746f722f696e76616c69642d696d706f727465642d74696d6550495363616c65645065725365636f6e6443616c63756c61746f722f696e76616c69642d666f756250495363616c65645065725365636f6e6443616c63756c61746f722f696e76616c69642d616750495363616c65645065725365636f6e6443616c63756c61746f722f696e76616c69642d666f6c62",
        "linkReferences": {}
    },
    "methodIdentifiers": {
        "adat()": "3523af48",
        "addAuthority(address)": "26defa73",
        "addReader(address)": "afd8b1d1",
        "ag()": "9f180501",
        "allReaderToggle()": "6531fe7b",
        "authorities(address)": "91223d69",
        "breaksNoiseBarrier(uint256,uint256)": "c1b80083",
        "computeRate(uint256,uint256,uint256)": "71c7132e",
        "dgt()": "2af8afca",
        "dos(uint256)": "f6d5924d",
        "drr()": "d41fb39c",
        "folb()": "822c530e",
        "foub()": "803c6ee6",
        "getBoundedRedemptionRate(int256)": "1f5b3005",
        "getGainAdjustedPIOutput(int256,int256)": "f167a1b8",
        "getGainAdjustedTerms(int256,int256)": "50473b68",
        "getLastIntegralTerm()": "e85d3bec",
        "getLastProportionalTerm()": "579e3cb3",
        "getNextPriceDeviationCumulative(int256,uint256)": "37345e63",
        "getNextRedemptionRate(uint256,uint256,uint256)": "4635a4f4",
        "hcd(uint256)": "e5aa2ed0",
        "ips()": "c234f25a",
        "lut()": "30d1c515",
        "modifyParameters(bytes32,address)": "6614f010",
        "modifyParameters(bytes32,int256)": "610a714a",
        "modifyParameters(bytes32,uint256)": "fe4f5890",
        "nb()": "d2c00e24",
        "oll()": "b5647d07",
        "pdc()": "3bd2b97f",
        "pscl()": "5f1b0b98",
        "readers(address)": "51e59ffb",
        "removeAuthority(address)": "d544e010",
        "removeReader(address)": "38d65d11",
        "rt(uint256,uint256,uint256)": "28f2d589",
        "seedProposer()": "69cb9945",
        "sg()": "8d8900bd",
        "tlv()": "6e3126ef"
    },
    "id": 30
}