{
    "abi": [
        {
            "inputs": [
                {
                    "internalType": "address",
                    "name": "safeEngine_",
                    "type": "address"
                },
                {
                    "internalType": "address",
                    "name": "extraSurplusReceiver_",
                    "type": "address"
                },
                {
                    "internalType": "address",
                    "name": "coinJoin_",
                    "type": "address"
                }
            ],
            "stateMutability": "nonpayable",
            "type": "constructor"
        },
        {
            "anonymous": false,
            "inputs": [
                {
                    "indexed": false,
                    "internalType": "address",
                    "name": "account",
                    "type": "address"
                }
            ],
            "name": "AddAuthorization",
            "type": "event"
        },
        {
            "anonymous": false,
            "inputs": [],
            "name": "DisableContract",
            "type": "event"
        },
        {
            "anonymous": false,
            "inputs": [
                {
                    "indexed": true,
                    "internalType": "address",
                    "name": "account",
                    "type": "address"
                },
                {
                    "indexed": false,
                    "internalType": "uint256",
                    "name": "rad",
                    "type": "uint256"
                },
                {
                    "indexed": false,
                    "internalType": "uint256",
                    "name": "expensesAccumulator",
                    "type": "uint256"
                }
            ],
            "name": "GiveFunds",
            "type": "event"
        },
        {
            "anonymous": false,
            "inputs": [
                {
                    "indexed": false,
                    "internalType": "bytes32",
                    "name": "parameter",
                    "type": "bytes32"
                },
                {
                    "indexed": false,
                    "internalType": "address",
                    "name": "addr",
                    "type": "address"
                }
            ],
            "name": "ModifyParameters",
            "type": "event"
        },
        {
            "anonymous": false,
            "inputs": [
                {
                    "indexed": false,
                    "internalType": "bytes32",
                    "name": "parameter",
                    "type": "bytes32"
                },
                {
                    "indexed": false,
                    "internalType": "uint256",
                    "name": "val",
                    "type": "uint256"
                }
            ],
            "name": "ModifyParameters",
            "type": "event"
        },
        {
            "anonymous": false,
            "inputs": [
                {
                    "indexed": true,
                    "internalType": "address",
                    "name": "sender",
                    "type": "address"
                },
                {
                    "indexed": true,
                    "internalType": "address",
                    "name": "dstAccount",
                    "type": "address"
                },
                {
                    "indexed": false,
                    "internalType": "address",
                    "name": "token",
                    "type": "address"
                },
                {
                    "indexed": false,
                    "internalType": "uint256",
                    "name": "rad",
                    "type": "uint256"
                },
                {
                    "indexed": false,
                    "internalType": "uint256",
                    "name": "expensesAccumulator",
                    "type": "uint256"
                }
            ],
            "name": "PullFunds",
            "type": "event"
        },
        {
            "anonymous": false,
            "inputs": [
                {
                    "indexed": false,
                    "internalType": "address",
                    "name": "account",
                    "type": "address"
                }
            ],
            "name": "RemoveAuthorization",
            "type": "event"
        },
        {
            "anonymous": false,
            "inputs": [
                {
                    "indexed": true,
                    "internalType": "address",
                    "name": "account",
                    "type": "address"
                },
                {
                    "indexed": false,
                    "internalType": "uint256",
                    "name": "rad",
                    "type": "uint256"
                }
            ],
            "name": "SetPerBlockAllowance",
            "type": "event"
        },
        {
            "anonymous": false,
            "inputs": [
                {
                    "indexed": true,
                    "internalType": "address",
                    "name": "account",
                    "type": "address"
                },
                {
                    "indexed": false,
                    "internalType": "uint256",
                    "name": "rad",
                    "type": "uint256"
                }
            ],
            "name": "SetTotalAllowance",
            "type": "event"
        },
        {
            "anonymous": false,
            "inputs": [
                {
                    "indexed": true,
                    "internalType": "address",
                    "name": "account",
                    "type": "address"
                },
                {
                    "indexed": false,
                    "internalType": "uint256",
                    "name": "rad",
                    "type": "uint256"
                }
            ],
            "name": "TakeFunds",
            "type": "event"
        },
        {
            "anonymous": false,
            "inputs": [
                {
                    "indexed": false,
                    "internalType": "address",
                    "name": "extraSurplusReceiver",
                    "type": "address"
                },
                {
                    "indexed": false,
                    "internalType": "uint256",
                    "name": "fundsToTransfer",
                    "type": "uint256"
                }
            ],
            "name": "TransferSurplusFunds",
            "type": "event"
        },
        {
            "inputs": [],
            "name": "accumulatorTag",
            "outputs": [
                {
                    "internalType": "uint256",
                    "name": "",
                    "type": "uint256"
                }
            ],
            "stateMutability": "view",
            "type": "function"
        },
        {
            "inputs": [
                {
                    "internalType": "address",
                    "name": "account",
                    "type": "address"
                }
            ],
            "name": "addAuthorization",
            "outputs": [],
            "stateMutability": "nonpayable",
            "type": "function"
        },
        {
            "inputs": [
                {
                    "internalType": "address",
                    "name": "",
                    "type": "address"
                }
            ],
            "name": "authorizedAccounts",
            "outputs": [
                {
                    "internalType": "uint256",
                    "name": "",
                    "type": "uint256"
                }
            ],
            "stateMutability": "view",
            "type": "function"
        },
        {
            "inputs": [],
            "name": "coinJoin",
            "outputs": [
                {
                    "internalType": "contract CoinJoinLike",
                    "name": "",
                    "type": "address"
                }
            ],
            "stateMutability": "view",
            "type": "function"
        },
        {
            "inputs": [],
            "name": "contractEnabled",
            "outputs": [
                {
                    "internalType": "uint256",
                    "name": "",
                    "type": "uint256"
                }
            ],
            "stateMutability": "view",
            "type": "function"
        },
        {
            "inputs": [],
            "name": "disableContract",
            "outputs": [],
            "stateMutability": "nonpayable",
            "type": "function"
        },
        {
            "inputs": [],
            "name": "expensesAccumulator",
            "outputs": [
                {
                    "internalType": "uint256",
                    "name": "",
                    "type": "uint256"
                }
            ],
            "stateMutability": "view",
            "type": "function"
        },
        {
            "inputs": [],
            "name": "expensesMultiplier",
            "outputs": [
                {
                    "internalType": "uint256",
                    "name": "",
                    "type": "uint256"
                }
            ],
            "stateMutability": "view",
            "type": "function"
        },
        {
            "inputs": [],
            "name": "extraSurplusReceiver",
            "outputs": [
                {
                    "internalType": "address",
                    "name": "",
                    "type": "address"
                }
            ],
            "stateMutability": "view",
            "type": "function"
        },
        {
            "inputs": [
                {
                    "internalType": "address",
                    "name": "account",
                    "type": "address"
                }
            ],
            "name": "getAllowance",
            "outputs": [
                {
                    "internalType": "uint256",
                    "name": "",
                    "type": "uint256"
                },
                {
                    "internalType": "uint256",
                    "name": "",
                    "type": "uint256"
                }
            ],
            "stateMutability": "view",
            "type": "function"
        },
        {
            "inputs": [
                {
                    "internalType": "address",
                    "name": "account",
                    "type": "address"
                },
                {
                    "internalType": "uint256",
                    "name": "rad",
                    "type": "uint256"
                }
            ],
            "name": "giveFunds",
            "outputs": [],
            "stateMutability": "nonpayable",
            "type": "function"
        },
        {
            "inputs": [],
            "name": "latestSurplusTransferTime",
            "outputs": [
                {
                    "internalType": "uint256",
                    "name": "",
                    "type": "uint256"
                }
            ],
            "stateMutability": "view",
            "type": "function"
        },
        {
            "inputs": [],
            "name": "minimumFundsRequired",
            "outputs": [
                {
                    "internalType": "uint256",
                    "name": "",
                    "type": "uint256"
                }
            ],
            "stateMutability": "view",
            "type": "function"
        },
        {
            "inputs": [
                {
                    "internalType": "bytes32",
                    "name": "parameter",
                    "type": "bytes32"
                },
                {
                    "internalType": "address",
                    "name": "addr",
                    "type": "address"
                }
            ],
            "name": "modifyParameters",
            "outputs": [],
            "stateMutability": "nonpayable",
            "type": "function"
        },
        {
            "inputs": [
                {
                    "internalType": "bytes32",
                    "name": "parameter",
                    "type": "bytes32"
                },
                {
                    "internalType": "uint256",
                    "name": "val",
                    "type": "uint256"
                }
            ],
            "name": "modifyParameters",
            "outputs": [],
            "stateMutability": "nonpayable",
            "type": "function"
        },
        {
            "inputs": [
                {
                    "internalType": "address",
                    "name": "dstAccount",
                    "type": "address"
                },
                {
                    "internalType": "address",
                    "name": "token",
                    "type": "address"
                },
                {
                    "internalType": "uint256",
                    "name": "wad",
                    "type": "uint256"
                }
            ],
            "name": "pullFunds",
            "outputs": [],
            "stateMutability": "nonpayable",
            "type": "function"
        },
        {
            "inputs": [],
            "name": "pullFundsMinThreshold",
            "outputs": [
                {
                    "internalType": "uint256",
                    "name": "",
                    "type": "uint256"
                }
            ],
            "stateMutability": "view",
            "type": "function"
        },
        {
            "inputs": [
                {
                    "internalType": "address",
                    "name": "",
                    "type": "address"
                },
                {
                    "internalType": "uint256",
                    "name": "",
                    "type": "uint256"
                }
            ],
            "name": "pulledPerBlock",
            "outputs": [
                {
                    "internalType": "uint256",
                    "name": "",
                    "type": "uint256"
                }
            ],
            "stateMutability": "view",
            "type": "function"
        },
        {
            "inputs": [
                {
                    "internalType": "address",
                    "name": "account",
                    "type": "address"
                }
            ],
            "name": "removeAuthorization",
            "outputs": [],
            "stateMutability": "nonpayable",
            "type": "function"
        },
        {
            "inputs": [],
            "name": "safeEngine",
            "outputs": [
                {
                    "internalType": "contract SAFEEngineLike",
                    "name": "",
                    "type": "address"
                }
            ],
            "stateMutability": "view",
            "type": "function"
        },
        {
            "inputs": [
                {
                    "internalType": "address",
                    "name": "account",
                    "type": "address"
                },
                {
                    "internalType": "uint256",
                    "name": "rad",
                    "type": "uint256"
                }
            ],
            "name": "setPerBlockAllowance",
            "outputs": [],
            "stateMutability": "nonpayable",
            "type": "function"
        },
        {
            "inputs": [
                {
                    "internalType": "address",
                    "name": "account",
                    "type": "address"
                },
                {
                    "internalType": "uint256",
                    "name": "rad",
                    "type": "uint256"
                }
            ],
            "name": "setTotalAllowance",
            "outputs": [],
            "stateMutability": "nonpayable",
            "type": "function"
        },
        {
            "inputs": [],
            "name": "settleDebt",
            "outputs": [],
            "stateMutability": "nonpayable",
            "type": "function"
        },
        {
            "inputs": [],
            "name": "surplusTransferDelay",
            "outputs": [
                {
                    "internalType": "uint256",
                    "name": "",
                    "type": "uint256"
                }
            ],
            "stateMutability": "view",
            "type": "function"
        },
        {
            "inputs": [],
            "name": "systemCoin",
            "outputs": [
                {
                    "internalType": "contract SystemCoinLike",
                    "name": "",
                    "type": "address"
                }
            ],
            "stateMutability": "view",
            "type": "function"
        },
        {
            "inputs": [
                {
                    "internalType": "address",
                    "name": "account",
                    "type": "address"
                },
                {
                    "internalType": "uint256",
                    "name": "rad",
                    "type": "uint256"
                }
            ],
            "name": "takeFunds",
            "outputs": [],
            "stateMutability": "nonpayable",
            "type": "function"
        },
        {
            "inputs": [],
            "name": "transferSurplusFunds",
            "outputs": [],
            "stateMutability": "nonpayable",
            "type": "function"
        },
        {
            "inputs": [],
            "name": "treasuryCapacity",
            "outputs": [
                {
                    "internalType": "uint256",
                    "name": "",
                    "type": "uint256"
                }
            ],
            "stateMutability": "view",
            "type": "function"
        }
    ],
    "bytecode": {
        "object": "0x60806040523480156200001157600080fd5b506040516200286f3803806200286f833981810160405260608110156200003757600080fd5b508051602080830151604093840151845163a7e9445560e01b815294519394919390926000926001600160a01b0385169263a7e9445592600480840193919291829003018186803b1580156200008c57600080fd5b505afa158015620000a1573d6000803e3d6000fd5b505050506040513d6020811015620000b857600080fd5b50516001600160a01b03161415620001025760405162461bcd60e51b8152600401808060200182810382526025815260200180620028206025913960400191505060405180910390fd5b6001600160a01b038216620001495760405162461bcd60e51b815260040180806020018281038252602a81526020018062002845602a913960400191505060405180910390fd5b336000908152602081815260409182902060019055600380546001600160a01b038781166001600160a01b031992831617909255600680548784169083161790556005805486841692169190911790819055835163a7e9445560e01b8152935191169263a7e94455926004808301939192829003018186803b158015620001cf57600080fd5b505afa158015620001e4573d6000803e3d6000fd5b505050506040513d6020811015620001fb57600080fd5b5051600480546001600160a01b0319166001600160a01b039283161780825542600e5560646009556001600f556005546040805163095ea7b360e01b8152918516938201939093526000196024820152915192169163095ea7b3916044808201926020929091908290030181600087803b1580156200027957600080fd5b505af11580156200028e573d6000803e3d6000fd5b505050506040513d6020811015620002a557600080fd5b50506040805133815290517f599a298163e1678bb1c676052a8930bf0b8a1261ed6e01b8a2391e55f70001029181900360200190a150505061253380620002ed6000396000f3fe608060405234801561001057600080fd5b50600436106101c45760003560e01c806379b5f040116100f9578063aafb96b611610097578063c4cc925311610071578063c4cc9253146103f5578063ca9ece3514610421578063eb5a662e14610429578063fe4f589014610468576101c4565b8063aafb96b6146103b9578063b6e785b1146103c1578063b7340540146103c9576101c4565b806394f3f81d116100d357806394f3f81d1461037b5780639e6ab9a3146103a15780639ff8edff146103a9578063a7e94455146103b1576101c4565b806379b5f040146103635780638454ff5a1461036b578063894ba83314610373576101c4565b806341b3a0d911610166578063505239bf11610140578063505239bf146102fb5780636614f0101461030357806367aea3131461032f5780636e7dd91714610337576101c4565b806341b3a0d9146102bf57806343e9c6b0146102c75780634e6afb9e146102f3576101c4565b806330413a2a116101a257806330413a2a1461024157806335b281531461026557806337b7eca11461028b5780633d285a6f14610293576101c4565b8063021de13f146101c9578063201add9b146101e357806324ba58841461021b575b600080fd5b6101d161048b565b60408051918252519081900360200190f35b610219600480360360608110156101f957600080fd5b506001600160a01b03813581169160208101359091169060400135610491565b005b6101d16004803603602081101561023157600080fd5b50356001600160a01b0316610afe565b610249610b10565b604080516001600160a01b039092168252519081900360200190f35b6102196004803603602081101561027b57600080fd5b50356001600160a01b0316610b1f565b6101d1610bbf565b610219600480360360408110156102a957600080fd5b506001600160a01b038135169060200135610bc5565b6101d1610cf9565b610219600480360360408110156102dd57600080fd5b506001600160a01b038135169060200135610cff565b610249610e30565b610219610e3f565b6102196004803603604081101561031957600080fd5b50803590602001356001600160a01b031661118c565b61024961137b565b6102196004803603604081101561034d57600080fd5b506001600160a01b03813516906020013561138a565b6101d16116c1565b6101d16116c7565b6102196116cd565b6102196004803603602081101561039157600080fd5b50356001600160a01b0316611887565b6101d1611926565b6101d161192c565b610249611932565b610219611941565b6101d1611aaa565b6101d1600480360360408110156103df57600080fd5b506001600160a01b038135169060200135611ab0565b6102196004803603604081101561040b57600080fd5b506001600160a01b038135169060200135611acd565b6101d1611c1b565b61044f6004803603602081101561043f57600080fd5b50356001600160a01b0316611c21565b6040805192835260208301919091528051918290030190f35b6102196004803603604081101561047e57600080fd5b5080359060200135611c44565b60095481565b6001600160a01b0383163014156104a757610af9565b6104bc81676765c793fa10079d601b1b611e6e565b33600090815260016020526040902054101561051f576040805162461bcd60e51b815260206004820181905260248201527f53746162696c69747946656554726561737572792f6e6f742d616c6c6f776564604482015290519081900360640190fd5b6001600160a01b03831661057a576040805162461bcd60e51b815260206004820152601d60248201527f53746162696c69747946656554726561737572792f6e756c6c2d647374000000604482015290519081900360640190fd5b6006546001600160a01b03848116911614156105c75760405162461bcd60e51b815260040180806020018281038252602d815260200180612480602d913960400191505060405180910390fd5b600081116106065760405162461bcd60e51b81526004018080602001828103825260298152602001806121de6029913960400191505060405180910390fd5b6004546001600160a01b038381169116146106525760405162461bcd60e51b815260040180806020018281038252602681526020018061218d6026913960400191505060405180910390fd5b3360009081526001602081905260409091200154156106ec5733600090815260016020818152604080842090920154600282528284204385529091529120546106af906106aa84676765c793fa10079d601b1b611e6e565b611eca565b11156106ec5760405162461bcd60e51b815260040180806020018281038252602d81526020018061228d602d913960400191505060405180910390fd5b336000908152600260209081526040808320438452909152902054610720906106aa83676765c793fa10079d601b1b611e6e565b336000908152600260209081526040808320438452909152902055610743611f0c565b61074b611941565b600354604080516311005b0760e01b815230600482015290516001600160a01b03909216916311005b0791602480820192602092909190829003018186803b15801561079657600080fd5b505afa1580156107aa573d6000803e3d6000fd5b505050506040513d60208110156107c057600080fd5b5051156107fe5760405162461bcd60e51b81526004018080602001828103825260298152602001806122076029913960400191505060405180910390fd5b61081381676765c793fa10079d601b1b611e6e565b60035460408051633eaf7a0360e21b815230600482015290516001600160a01b039092169163fabde80c91602480820192602092909190829003018186803b15801561085e57600080fd5b505afa158015610872573d6000803e3d6000fd5b505050506040513d602081101561088857600080fd5b505110156108c75760405162461bcd60e51b81526004018080602001828103825260258152602001806124ad6025913960400191505060405180910390fd5b600d5460035460408051633eaf7a0360e21b815230600482015290516001600160a01b039092169163fabde80c91602480820192602092909190829003018186803b15801561091557600080fd5b505afa158015610929573d6000803e3d6000fd5b505050506040513d602081101561093f57600080fd5b5051101561097e5760405162461bcd60e51b815260040180806020018281038252603281526020018061239b6032913960400191505060405180910390fd5b336000908152600160205260409020546109ac906109a783676765c793fa10079d601b1b611e6e565b61207a565b33600090815260016020526040902055600b546109d8906106aa83676765c793fa10079d601b1b611e6e565b600b556003546001600160a01b031663efabcadc3085610a0385676765c793fa10079d601b1b611e6e565b6040518463ffffffff1660e01b815260040180846001600160a01b03166001600160a01b03168152602001836001600160a01b03166001600160a01b031681526020018281526020019350505050600060405180830381600087803b158015610a6b57600080fd5b505af1158015610a7f573d6000803e3d6000fd5b50505050826001600160a01b0316336001600160a01b03167f7f1bd32912cc1caeaa0a1221e71cf675c272dadfc4bbb9f9e7b15e3aba962c8384610ace85676765c793fa10079d601b1b611e6e565b600b54604080516001600160a01b039094168452602084019290925282820152519081900360600190a35b505050565b60006020819052908152604090205481565b6005546001600160a01b031681565b33600090815260208190526040902054600114610b6d5760405162461bcd60e51b815260040180806020018281038252602b8152602001806121b3602b913960400191505060405180910390fd5b6001600160a01b0381166000818152602081815260409182902060019055815192835290517f599a298163e1678bb1c676052a8930bf0b8a1261ed6e01b8a2391e55f70001029281900390910190a150565b600a5481565b33600090815260208190526040902054600114610c135760405162461bcd60e51b815260040180806020018281038252602b8152602001806121b3602b913960400191505060405180910390fd5b816001600160a01b038116301415610c5c5760405162461bcd60e51b815260040180806020018281038252602f815260200180612451602f913960400191505060405180910390fd5b6001600160a01b038316610ca15760405162461bcd60e51b815260040180806020018281038252602181526020018061234f6021913960400191505060405180910390fd5b6001600160a01b038316600081815260016020818152604092839020909101859055815185815291517f872b1baa7b7b264504136eb033469a05552185dc7454b7dc405f006fe41752989281900390910190a2505050565b600f5481565b33600090815260208190526040902054600114610d4d5760405162461bcd60e51b815260040180806020018281038252602b8152602001806121b3602b913960400191505060405180910390fd5b816001600160a01b038116301415610d965760405162461bcd60e51b815260040180806020018281038252602f815260200180612451602f913960400191505060405180910390fd5b6001600160a01b038316610ddb5760405162461bcd60e51b815260040180806020018281038252602181526020018061234f6021913960400191505060405180910390fd5b6001600160a01b038316600081815260016020908152604091829020859055815185815291517f2c5e94d86b8348fb36d52453e5460c21e506c0fa8a48a721d021490e22ece3eb9281900390910190a2505050565b6006546001600160a01b031681565b610e4d600e54600a54611eca565b421015610e8b5760405162461bcd60e51b81526004018080602001828103825260318152602001806123cd6031913960400191505060405180910390fd5b6000610e9b600b54600c5461207a565b90506000610eb5610eae60095484611e6e565b60646120bc565b6007541115610ec657600754610ed5565b610ed5610eae60095484611e6e565b9050600854610ee9610eae60095485611e6e565b1115610ef55780610ef9565b6008545b600b54600c5542600e559050610f0d611f0c565b610f15611941565b600354604080516311005b0760e01b815230600482015290516001600160a01b03909216916311005b0791602480820192602092909190829003018186803b158015610f6057600080fd5b505afa158015610f74573d6000803e3d6000fd5b505050506040513d6020811015610f8a57600080fd5b505115610fc85760405162461bcd60e51b81526004018080602001828103825260298152602001806122076029913960400191505060405180910390fd5b60035460408051633eaf7a0360e21b8152306004820152905183926001600160a01b03169163fabde80c916024808301926020929190829003018186803b15801561101257600080fd5b505afa158015611026573d6000803e3d6000fd5b505050506040513d602081101561103c57600080fd5b505111156111885760035460408051633eaf7a0360e21b815230600482015290516000926110c8926001600160a01b039091169163fabde80c91602480820192602092909190829003018186803b15801561109657600080fd5b505afa1580156110aa573d6000803e3d6000fd5b505050506040513d60208110156110c057600080fd5b50518361207a565b60035460065460408051633beaf2b760e21b81523060048201526001600160a01b03928316602482015260448101859052905193945091169163efabcadc9160648082019260009290919082900301818387803b15801561112857600080fd5b505af115801561113c573d6000803e3d6000fd5b5050600654604080516001600160a01b0390921682526020820185905280517f405ec0d46a8a982eb3d6a307ca6e12b0a8c5b178bd7b41dd6aec3232fccc83c1945091829003019150a1505b5050565b336000908152602081905260409020546001146111da5760405162461bcd60e51b815260040180806020018281038252602b8152602001806121b3602b913960400191505060405180910390fd5b600f5460011461121b5760405162461bcd60e51b81526004018080602001828103825260298152602001806122f36029913960400191505060405180910390fd5b6001600160a01b038116611276576040805162461bcd60e51b815260206004820152601e60248201527f53746162696c69747946656554726561737572792f6e756c6c2d616464720000604482015290519081900360640190fd5b817332bc3a3930a9bab938363ab9a932b1b2b4bb32b960611b14156112fd576001600160a01b0381163014156112dd5760405162461bcd60e51b81526004018080602001828103825260398152602001806122ba6039913960400191505060405180910390fd5b600680546001600160a01b0319166001600160a01b038316179055611334565b60405162461bcd60e51b815260040180806020018281038252602e8152602001806123fe602e913960400191505060405180910390fd5b604080518381526001600160a01b038316602082015281517fd91f38cf03346b5dc15fb60f9076f866295231ad3c3841a1051f8443f25170d1929181900390910190a15050565b6003546001600160a01b031681565b336000908152602081905260409020546001146113d85760405162461bcd60e51b815260040180806020018281038252602b8152602001806121b3602b913960400191505060405180910390fd5b816001600160a01b0381163014156114215760405162461bcd60e51b815260040180806020018281038252602f815260200180612451602f913960400191505060405180910390fd5b6001600160a01b0383166114665760405162461bcd60e51b815260040180806020018281038252602181526020018061234f6021913960400191505060405180910390fd5b61146e611f0c565b611476611941565b600354604080516311005b0760e01b815230600482015290516001600160a01b03909216916311005b0791602480820192602092909190829003018186803b1580156114c157600080fd5b505afa1580156114d5573d6000803e3d6000fd5b505050506040513d60208110156114eb57600080fd5b5051156115295760405162461bcd60e51b81526004018080602001828103825260298152602001806122076029913960400191505060405180910390fd5b60035460408051633eaf7a0360e21b8152306004820152905184926001600160a01b03169163fabde80c916024808301926020929190829003018186803b15801561157357600080fd5b505afa158015611587573d6000803e3d6000fd5b505050506040513d602081101561159d57600080fd5b505110156115dc5760405162461bcd60e51b81526004018080602001828103825260258152602001806124ad6025913960400191505060405180910390fd5b6006546001600160a01b03848116911614611601576115fd600b5483611eca565b600b555b60035460408051633beaf2b760e21b81523060048201526001600160a01b038681166024830152604482018690529151919092169163efabcadc91606480830192600092919082900301818387803b15801561165c57600080fd5b505af1158015611670573d6000803e3d6000fd5b5050600b5460408051868152602081019290925280516001600160a01b03881694507ff3b9d7846b41e3cdfe96580c8ccad08ec3180b2156af0d3bd27cb67a8eb849529350918290030190a2505050565b600e5481565b600c5481565b3360009081526020819052604090205460011461171b5760405162461bcd60e51b815260040180806020018281038252602b8152602001806121b3602b913960400191505060405180910390fd5b600f5460011461175c5760405162461bcd60e51b815260040180806020018281038252602581526020018061242c6025913960400191505060405180910390fd5b6000600f55611769611f0c565b60035460065460408051633eaf7a0360e21b8152306004820181905291516001600160a01b039485169463efabcadc941691859163fabde80c91602480820192602092909190829003018186803b1580156117c357600080fd5b505afa1580156117d7573d6000803e3d6000fd5b505050506040513d60208110156117ed57600080fd5b5051604080516001600160e01b031960e087901b1681526001600160a01b03948516600482015292909316602483015260448201529051606480830192600092919082900301818387803b15801561184457600080fd5b505af1158015611858573d6000803e3d6000fd5b50506040517f2d4b4ecff7bd7503135271925520a2f6c0d98c9473ffc1a1e72c92502f51b25e925060009150a1565b336000908152602081905260409020546001146118d55760405162461bcd60e51b815260040180806020018281038252602b8152602001806121b3602b913960400191505060405180910390fd5b6001600160a01b03811660008181526020818152604080832092909255815192835290517f8834a87e641e9716be4f34527af5d23e11624f1ddeefede6ad75a9acfc31b9039281900390910190a150565b60085481565b600b5481565b6004546001600160a01b031681565b60035460408051633eaf7a0360e21b815230600482015290516000926001600160a01b03169163fabde80c916024808301926020929190829003018186803b15801561198c57600080fd5b505afa1580156119a0573d6000803e3d6000fd5b505050506040513d60208110156119b657600080fd5b5051600354604080516311005b0760e01b815230600482015290519293506000926001600160a01b03909216916311005b0791602480820192602092909190829003018186803b158015611a0957600080fd5b505afa158015611a1d573d6000803e3d6000fd5b505050506040513d6020811015611a3357600080fd5b505190508015611188576003546001600160a01b03166327a0bb33611a588484612173565b6040518263ffffffff1660e01b815260040180828152602001915050600060405180830381600087803b158015611a8e57600080fd5b505af1158015611aa2573d6000803e3d6000fd5b505050505050565b60075481565b600260209081526000928352604080842090915290825290205481565b33600090815260208190526040902054600114611b1b5760405162461bcd60e51b815260040180806020018281038252602b8152602001806121b3602b913960400191505060405180910390fd5b816001600160a01b038116301415611b645760405162461bcd60e51b815260040180806020018281038252602f815260200180612451602f913960400191505060405180910390fd5b60035460408051633beaf2b760e21b81526001600160a01b038681166004830152306024830152604482018690529151919092169163efabcadc91606480830192600092919082900301818387803b158015611bbf57600080fd5b505af1158015611bd3573d6000803e3d6000fd5b50506040805185815290516001600160a01b03871693507fbbf79e146587871d724f2a0ff9c8beff1c42b3d5ef6ea6a7ba1990b104be51e492509081900360200190a2505050565b600d5481565b6001600160a01b0316600090815260016020819052604090912080549101549091565b33600090815260208190526040902054600114611c925760405162461bcd60e51b815260040180806020018281038252602b8152602001806121b3602b913960400191505060405180910390fd5b600f54600114611ce9576040805162461bcd60e51b815260206004820152601d60248201527f53746162696c69747946656554726561737572792f6e6f742d6c697665000000604482015290519081900360640190fd5b817132bc3832b739b2b9a6bab63a34b83634b2b960711b1415611d10576009819055611e2f565b816f7472656173757279436170616369747960801b1415611d7657600854811015611d6c5760405162461bcd60e51b81526004018080602001828103825260328152602001806122306032913960400191505060405180910390fd5b6007819055611e2f565b81731b5a5b9a5b5d5b519d5b991cd4995c5d5a5c995960621b1415611de057600754811115611dd65760405162461bcd60e51b815260040180806020018281038252603381526020018061231c6033913960400191505060405180910390fd5b6008819055611e2f565b81741c1d5b1b119d5b991cd35a5b951a1c995cda1bdb19605a1b1415611e0a57600d819055611e2f565b8173737572706c75735472616e7366657244656c617960601b14156112fd57600a8190555b604080518381526020810183905281517fac7c5c1afaef770ec56ac6268cd3f2fbb1035858ead2601d6553157c33036c3a929181900390910190a15050565b6000811580611e8957505080820282828281611e8657fe5b04145b611ec45760405162461bcd60e51b815260040180806020018281038252602b815260200180612370602b913960400191505060405180910390fd5b92915050565b81810182811015611ec45760405162461bcd60e51b815260040180806020018281038252602b815260200180612262602b913960400191505060405180910390fd5b60048054604080516370a0823160e01b81523093810193909352516000926001600160a01b03909216916370a08231916024808301926020929190829003018186803b158015611f5b57600080fd5b505afa158015611f6f573d6000803e3d6000fd5b505050506040513d6020811015611f8557600080fd5b505111156120785760055460048054604080516370a0823160e01b81523093810184905290516001600160a01b0394851694633b4da69f949316916370a08231916024808301926020929190829003018186803b158015611fe557600080fd5b505afa158015611ff9573d6000803e3d6000fd5b505050506040513d602081101561200f57600080fd5b5051604080516001600160e01b031960e086901b1681526001600160a01b039093166004840152602483019190915251604480830192600092919082900301818387803b15801561205f57600080fd5b505af1158015612073573d6000803e3d6000fd5b505050505b565b80820382811115611ec45760405162461bcd60e51b815260040180806020018281038252602c8152602001806124d2602c913960400191505060405180910390fd5b6000808211612112576040805162461bcd60e51b815260206004820152601f60248201527f53746162696c69747946656554726561737572792f6469762d792d6e756c6c00604482015290519081900360640190fd5b81838161211b57fe5b04905082811115611ec4576040805162461bcd60e51b815260206004820181905260248201527f53746162696c69747946656554726561737572792f6469762d696e76616c6964604482015290519081900360640190fd5b6000818311156121835781612185565b825b939250505056fe53746162696c69747946656554726561737572792f746f6b656e2d756e617661696c61626c6553746162696c69747946656554726561737572792f6163636f756e742d6e6f742d617574686f72697a656453746162696c69747946656554726561737572792f6e756c6c2d7472616e736665722d616d6f756e7453746162696c69747946656554726561737572792f6f75747374616e64696e672d6261642d6465627453746162696c69747946656554726561737572792f63617061636974792d6c6f7765722d7468616e2d6d696e2d66756e647353746162696c69747946656554726561737572792f6164642d75696e742d75696e742d6f766572666c6f7753746162696c69747946656554726561737572792f7065722d626c6f636b2d6c696d69742d657863656564656453746162696c69747946656554726561737572792f6163636f756e74696e672d656e67696e652d63616e6e6f742d62652d747265617375727953746162696c69747946656554726561737572792f636f6e74726163742d6e6f742d656e61626c656453746162696c69747946656554726561737572792f6d696e2d66756e64732d6869676865722d7468616e2d636170616369747953746162696c69747946656554726561737572792f6e756c6c2d6163636f756e7453746162696c69747946656554726561737572792f6d756c2d75696e742d75696e742d6f766572666c6f7753746162696c69747946656554726561737572792f62656c6f772d70756c6c46756e64732d6d696e2d7468726573686f6c6453746162696c69747946656554726561737572792f7472616e736665722d636f6f6c646f776e2d6e6f742d70617373656453746162696c69747946656554726561737572792f6d6f646966792d756e7265636f676e697a65642d706172616d53746162696c69747946656554726561737572792f616c72656164792d64697361626c656453746162696c69747946656554726561737572792f6163636f756e742d63616e6e6f742d62652d747265617375727953746162696c69747946656554726561737572792f6473742d63616e6e6f742d62652d6163636f756e74696e6753746162696c69747946656554726561737572792f6e6f742d656e6f7567682d66756e647353746162696c69747946656554726561737572792f7375622d75696e742d75696e742d756e646572666c6f77a26469706673582212207db783d56dbcf2e9ef4962213e5780406374366300b234b594234af8e0717a1b64736f6c6343000607003353746162696c69747946656554726561737572792f6e756c6c2d73797374656d2d636f696e53746162696c69747946656554726561737572792f6e756c6c2d737572706c75732d7265636569766572",
        "linkReferences": {}
    },
    "methodIdentifiers": {
        "accumulatorTag()": "8454ff5a",
        "addAuthorization(address)": "35b28153",
        "authorizedAccounts(address)": "24ba5884",
        "coinJoin()": "30413a2a",
        "contractEnabled()": "41b3a0d9",
        "disableContract()": "894ba833",
        "expensesAccumulator()": "9ff8edff",
        "expensesMultiplier()": "021de13f",
        "extraSurplusReceiver()": "4e6afb9e",
        "getAllowance(address)": "eb5a662e",
        "giveFunds(address,uint256)": "6e7dd917",
        "latestSurplusTransferTime()": "79b5f040",
        "minimumFundsRequired()": "9e6ab9a3",
        "modifyParameters(bytes32,address)": "6614f010",
        "modifyParameters(bytes32,uint256)": "fe4f5890",
        "pullFunds(address,address,uint256)": "201add9b",
        "pullFundsMinThreshold()": "ca9ece35",
        "pulledPerBlock(address,uint256)": "b7340540",
        "removeAuthorization(address)": "94f3f81d",
        "safeEngine()": "67aea313",
        "setPerBlockAllowance(address,uint256)": "3d285a6f",
        "setTotalAllowance(address,uint256)": "43e9c6b0",
        "settleDebt()": "aafb96b6",
        "surplusTransferDelay()": "37b7eca1",
        "systemCoin()": "a7e94455",
        "takeFunds(address,uint256)": "c4cc9253",
        "transferSurplusFunds()": "505239bf",
        "treasuryCapacity()": "b6e785b1"
    },
    "id": 47
}